:020000040800F2
:10D00000C84A0020F5D30008F9D10008FBD1000878
:10D01000FFD1000803D2000807D20008000000007A
:10D020000000000000000000000000000BD200081B
:10D030000DD20008000000000FD2000811D2000835
:10D040000FD400080FD400080FD400080FD4000834
:10D050000FD400080FD4000865F8000883F8000812
:10D06000A3F80008C3F80008E3F800080FD400088C
:10D070000FD400080FD400080FD400080FD4000804
:10D080000FD400080FD400080FD400080FD40008F4
:10D090000FD400080FD400080FD4000803F90008CB
:10D0A0000FD400080FD400080FD400080FD40008D4
:10D0B000D50101084B0201086D0201080FD40008D8
:10D0C0000FD400080FD400080FD400080FD40008B4
:10D0D0000FD40008690D01088F0D0108B50D010876
:10D0E00097F900080FD400080FD400080FD40008E7
:10D0F0000FD400080FD400080FD400080FD4000884
:10D100000FD400080FD400080FD400080FD4000873
:10D11000050E01082B0E0108BD020108DF020108FF
:10D120000FD400080FD400080FD400080FD4000853
:10D13000DFF80CD005F090FA0048004791D10008C4
:10D14000C84A0020EFF30980704780F309887047D0
:10D15000EFF30880704780F30888704740BA704743
:10D16000C0BA704770B50025002615A119A005F0BA
:10D17000A5FA19A51126002404E029571BA005F0E3
:10D180009DFA641CB442F8D319A005F097FA70BD5B
:10D1900062B64FF000601749086002F013FA0020F1
:10D1A00003F0ECFE0468A047052002F07FFAFFF7C9
:10D1B000D9FF05F0A4F901E004F0BCFAFCE7000097
:10D1C0004672696D7761726556657273696F6E3A02
:10D1D0002000000025730000426F6F744C6F616483
:10D1E00065722056312E302E30000000256300007D
:10D1F0000D0A000008ED00E0704700BFFEE700BF29
:10D20000FEE700BFFEE700BFFEE7704770477047CC
:10D21000704700000CB50020019000906C48006839
:10D2200040F480306A49086000BF6948006800F433
:10D23000003000900198401C0190009818B90198A6
:10D24000B0F5A06FF1D16248006800F4003010B171
:10D250000120009001E0002000900098012843D1B7
:10D260005C48006840F010005A49086008460068B1
:10D2700020F0030008600846006840F002000860E3
:10D28000534840685249486008464068486008462C
:10D29000406840F4806048600846406820F47C1094
:10D2A00048600846406840F4E81048600846006856
:10D2B00040F08070086000BF4548006800F00070D2
:10D2C0000028F9D04248406820F0030040494860F7
:10D2D0000846406840F00200486000BF3C48406893
:10D2E00000F00C000828F9D10CBD10B5FFF792FF33
:10D2F00010BD10B53648006840F0010034490860A0
:10D30000084640683449084031494860084600688A
:10D31000324908402E4908600846006820F4802001
:10D3200008600846406820F4FE0048604FF41F0083
:10D330008860FFF7DAFF4FF000602949086010BDF0
:10D3400010B5002100200022214B5B6803F00C0186
:10D3500021B1042906D0082928D107E0214B224C0D
:10D36000236027E01F4B204C236023E0184B5B68B1
:10D3700003F47010164B5B6803F48032022303EB56
:10D38000904022B9194B4343174C23600DE0104BDA
:10D390005B6803F4003323B1144B4343124C236006
:10D3A00003E0104B4343104C236003E00D4B0E4C45
:10D3B000236000BF00BF064B5B68C3F303130C4C34
:10D3C000E15C094B1B68CB40074C236010BD00009B
:10D3D00000100240002002400000FFF8FFFFF6FEB0
:10D3E00008ED00E000127A000000002000093D0076
:10D3F000040000200648804706480047FEE7FEE795
:10D40000FEE7FEE7FEE7FEE7FEE7FEE7FEE7FEE7F4
:10D41000F3D2000831D1000830BF704720BF7047F9
:10D4200040BF704701DF7047EFF31480704780F30F
:10D430001488BFF36F8F7047EFF30980704780F354
:10D4400009887047EFF30880704780F308887047B9
:10D4500062B6704772B67047EFF31080704771B6CE
:10D46000704761B67047EFF31380704780F31188FF
:10D470007047EFF31280704740BA704700BA7047A8
:10D480003C4901433C4A1160704770B500210023BC
:10D490000F22C47804B3384C246804F4E064C4F563
:10D4A000E064210AC1F10403CA40447804FA03F19C
:10D4B0008478144021430901304C0678A155047842
:10D4C00004F01F050124AC4005786D11AD0005F195
:10D4D000E025C5F8004109E0047804F01F050124A7
:10D4E000AC40274D0678761145F8264070BD254A98
:10D4F0000A400243204B1B1F1A60704739B11E4A75
:10D50000121D126802431C4B1B1D1A6006E01A4ACA
:10D51000121D12688243184B1B1D1A60704710B50C
:10D52000FFF798FF10BD10B5FFF792FF10BD10B5C3
:10D53000FFF795FF10BD10B5FFF793FF10BD10B5B5
:10D5400004462001FFF792FF10BD042808D14FF0D8
:10D55000E021096941F004014FF0E022116107E088
:10D560004FF0E021096921F004014FF0E022116140
:10D57000704700000000FA050CED00E000E400E058
:10D5800080E100E080FFFF1F002044490860091D82
:10D590000860091D0860091D086041483F491431B1
:10D5A0000860704700213D498279002A3AD00A4636
:10D5B000126803689A430B461A600A1D12680368D2
:10D5C0009A430B1D1A60027911440A6803681A43D2
:10D5D0000A60324A0832126803689A432F4B0833B4
:10D5E0001A601A1D126803689A432C4B0C331A6098
:10D5F0004279102A0ED11A1F126803681A43274B6A
:10D6000008331A601A1D126803681A43234B0C333F
:10D610001A600DE02149427911440A6803681A43EF
:10D620000A6005E0027911440A6803689A430A60B7
:10D6300070470021016001710C214171002181714D
:10D6400070471649103109680143144A10321160BD
:10D65000704701460020114A143212680A400AB18C
:10D66000012000E0002070470C4914310860704729
:10D67000014600200022094B1B6803EA0102074B08
:10D6800014331B680B4013B10AB1012000E00020E5
:10D6900070470249143108607047000000040140DF
:10D6A000FFFF0F0001460020FE4A106800F038001E
:10D6B000084310607047FB49096821F00801F94AE6
:10D6C000116011460968014311607047F549096806
:10D6D00021F01001F34A11601146096801431160FD
:10D6E0007047F148EF494860F04848607047EE489D
:10D6F000EC494860ED4848607047EA48006940F0EE
:10D700008000E84908617047E648006940F0800001
:10D71000E449086170470420E249C96801F0010149
:10D7200009B101200EE0DF49C96801F0040109B127
:10D73000022007E0DB49C96801F0100109B10320AC
:10D7400000E00420704700B502460423FFF7E3FF22
:10D75000034603E0FFF7DFFF0346521E012B01D112
:10D76000002AF7D102B90523184600BD30B504469A
:10D7700004254FF43020FFF7E6FF0546042D17D1AE
:10D78000C848006940F00200C64908610846446183
:10D79000006940F0400008614FF43020FFF7D3FFEC
:10D7A0000546C048006941F6FD710840BD49086161
:10D7B000284630BD10B504244FF43020FFF7C3FFD6
:10D7C0000446042C16D1B748006940F00400B5495E
:10D7D00008610846006940F0400008614FF43020BD
:10D7E000FFF7B1FF0446AF48006941F6FB710840FE
:10D7F000AC490861204610BD00B502460423FFF77E
:10D800008AFF034603E0FFF786FF0346521E012B03
:10D8100001D1002AF7D102B90523184600BD10B581
:10D8200004244FF43020FFF7E7FF0446042C16D100
:10D830009C48006940F004009A4908610846006964
:10D8400040F0400008614FF43020FFF7D5FF044658
:10D850009448006941F6FB710840924908612046EE
:10D8600010BD00208F49C96901F0020109B10120F2
:10D8700000E00020704730B5A5250424FFF7F1FF34
:10D8800000B100254FF43020FFF75DFF0446042C63
:10D890003AD1854883498860844888600846006991
:10D8A00040F0200008610846006940F0400008612F
:10D8B0004FF43020FFF747FF0446042C1BD1794872
:10D8C000006941F6DF710840764908610846006941
:10D8D00040F01000086176480580E002FFF733FF52
:10D8E0000446052C10D06F48006941F6EF710840DE
:10D8F0006C49086108E0052C06D06A48006941F6C9
:10D90000EF71084067490861204630BD78B506468A
:10D910000C46042500200090E802FFF714FF05469E
:10D92000042D24D15F48006940F001005D49086181
:10D930003480E802FFF707FF0546042D10D1B01C24
:10D940000090200C00990880E802FFF7FCFE0546D5
:10D950005448006941F6FE7108405249086106E0EA
:10D960005048006941F6FE7108404E49086128465A
:10D9700078BD70B504460D460426F002FFF7E3FEBD
:10D980000646042E11D14748006940F00100454980
:10D9900008612580F002FFF7D6FE0646414800697F
:10D9A00041F6FE7108403F490861304670BD70B5D0
:10D9B00005460E460424E002FFF7C5FE0446042C8B
:10D9C00017D1394837498860384888600846006967
:10D9D00040F0100008612E80E002FFF7B4FE04461C
:10D9E000052C06D02F48006941F6EF7108402D49FB
:10D9F0000861204670BD2DE9F04304464FF6FF76DE
:10DA00003746B046B1460425E443E6B2C4F30727DF
:10DA1000C4F307484FEA1469E802FFF794FE05468D
:10DA2000042D49D120481F49886020488860084655
:10DA3000006940F010000861FF2E06D01C48083035
:10DA40000680E802FFF77FFE0546042D08D1FF2F70
:10DA500006D017480A300780E802FFF774FE054633
:10DA6000042D0AD1B8F1FF0F07D011480C30A0F8EF
:10DA70000080E802FFF767FE0546042D0AD1B9F1E0
:10DA8000FF0F07D00A480E30A0F80090E802FFF719
:10DA90005AFE0546052D0FD00248006941F6EF7188
:10DAA000084007E00020024023016745AB89EFCD25
:10DAB00000F8FF1F664908612846BDE8F08330B5CD
:10DAC000054604244FF43020FFF73DFE0446042CA5
:10DAD00041D160485E4988605F48886008460069B7
:10DAE00040F0200008610846006940F040000861ED
:10DAF0004FF43020FFF727FE0446042C22D154486F
:10DB0000006941F6DF710840514908610846006923
:10DB100040F0100008611DB100205049088002E06B
:10DB2000A5204E4908804FF43020FFF70CFE044634
:10DB3000052C10D04648006941F6EF710840444971
:10DB4000086108E0052C06D04148006941F6DF7104
:10DB500008403F490861204630BDF0B505460E46F5
:10DB6000174604243B483A4988603B488860E002F5
:10DB7000FFF7E9FD0446042C19D13548006940F04F
:10DB800010003349086147F0F80030432843334917
:10DB9000891C0880E002FFF7D6FD0446052C06D05C
:10DBA0002B48006941F6EF71084029490861204679
:10DBB000F0BD2748C069800870472548006A704753
:10DBC00000202349096801F0200109B1012000E08B
:10DBD0000020704729B11E4A126902431C4B1A618A
:10DBE00004E01B4A12698243194B1A6170470146CF
:10DBF0000020012908D1164AD26902F001020AB1B7
:10DC0000012008E0002006E0114AD2680A400AB16B
:10DC1000012000E0002070470D49C86070470420D3
:10DC20000B49C96801F0010109B101200EE0084962
:10DC3000C96801F0040109B1022007E00449C9687C
:10DC400001F0100109B1032000E00420704700003A
:10DC50000020024023016745AB89EFCD00F8FF1F8C
:10DC600010B50446CC48844208D10121042000F0BC
:10DC70004DFB0021042000F049FB46E0C7488442E8
:10DC800008D10121082000F041FB0021082000F00C
:10DC90003DFB3AE0C248844208D10121102000F047
:10DCA00035FB0021102000F031FB2EE0BD488442FE
:10DCB00008D10121202000F029FB0021202000F0C4
:10DCC00025FB22E0B848844208D10121402000F021
:10DCD0001DFB0021402000F019FB16E0B3488442F0
:10DCE00008D10121802000F011FB0021802000F0EC
:10DCF0000DFB0AE0AE48844207D10121801500F0F7
:10DD000005FB0021A01500F001FB10BD10B501219D
:10DD1000084600F0FBFA0021012000F0F7FA10BDE0
:10DD20002DE9F041024600250026002000230024B2
:10DD3000002791F803C00CF00F0591F803C00CF018
:10DD4000100CBCF1000F03D091F802C04CEA05059D
:10DD500091F800C0BCF1000F31D0146800202BE016
:10DD60004FF0010C0CFA00F3B1F800C00CEA030606
:10DD70009E4220D183004FF00F0C0CFA03F7BC43F6
:10DD800005FA03FC4CEA040491F803C0BCF1280F27
:10DD900006D14FF0010C0CFA00FCC2F814C00AE0E6
:10DDA00091F803C0BCF1480F05D14FF0010C0CFAFB
:10DDB00000FCC2F810C0401C0828D1D31460B1F890
:10DDC00000C0BCF1FF0F34DD546800202EE000F1EC
:10DDD000080C4FF0010808FA0CF3B1F800C00CEA87
:10DDE00003069E4221D183004FF00F0C0CFA03F77B
:10DDF000BC4305FA03FC4CEA040491F803C0BCF1EF
:10DE0000280F05D100F1080C08FA0CF8C2F81480AC
:10DE100091F803C0BCF1480F07D100F1080C4FF096
:10DE2000010808FA0CF8C2F81080401C0828CED36C
:10DE30005460BDE8F0814FF6FF71018002218170CE
:10DE40000421C17070470246002093680B400BB15B
:10DE5000012000E0002070470146886880B27047CA
:10DE600002460020D3680B400BB1012000E00020E7
:10DE700070470146C86880B27047016170474161D0
:10DE800070470AB1016100E041617047C1607047AD
:10DE90004FF480320A4382618161826182698269C2
:10DEA000704702460020434B18684FF680731840B5
:10DEB00040EA021008433F4B186070473E49C86172
:10DEC0007047F0B50A46002300240021002500F029
:10DED0000046B6F1004F02D1364EF16901E0354EF1
:10DEE0007168C0F3034583B200F44016B6F5401FD5
:10DEF00008D121F070612F4E766826F070662D4FA4
:10DF00007E6012E000F48016B6F5801F06D103266D
:10DF100006FA05F4A14341F0706106E0460D3601B2
:10DF200003FA06F6B14341F0706122B1460D3601A5
:10DF300003FA06F6314300F00046B6F1004F02D175
:10DF40001C4EF16101E01B4E7160F0BD30B5002246
:10DF50008B071C0F0F2303FA04F2164B08338C10A7
:10DF600053F824309343134C08348D1044F8253073
:10DF700023468C1053F824308C07240F00FA04F445
:10DF800023430C4C08348D1044F8253030BD0A4929
:10DF9000DC3108607047000000080140000C0140BF
:10DFA000001001400014014000180140001C014015
:10DFB0000020014000000140000020420E4908609E
:10DFC00070470D49486070470B49886070474AF6B2
:10DFD000AA200949086070474CF6CC400649086001
:10DFE000704701460020044AD2680A400AB1012065
:10DFF00000E000207047000000300040DF4800686B
:10E0000040F00100DD49086008464068DC490840EE
:10E01000DA49486008460068DA490840D74908608C
:10E020000846006820F4802008600846406820F414
:10E03000FE0048604FF41F0088607047CF490968B0
:10E0400021F48031CD4A11601146096821F4802104
:10E050001160B0F5803F03D0B0F5802F0ED106E0FF
:10E06000C649096841F48031C44A116007E0C349D8
:10E07000096841F4A021C14A116000E000BF00BF5F
:10E08000704710B501460022002300204A11012AE2
:10E0900002D1BA4C236806E0022A02D1B74C236AA7
:10E0A00001E0B64C636A01F01F02012494401C4059
:10E0B0000CB1012000E0002010BD38B50020009018
:10E0C0000024002500BF3120FFF7DBFF0546009844
:10E0D000401C00900098B0F5A06F01D0002DF2D048
:10E0E0003120FFF7CEFF08B1012400E000242046D4
:10E0F00038BD01460020A14A106820F0F80040EA2F
:10E10000C10010607047A0490860704702460020B7
:10E110009A4B586820F47C1042EA01031843974B4D
:10E120005860704798490866704701460020934A36
:10E13000506820F003000843506070478F484068E3
:10E1400000F00C007047014600208C4A506820F017
:10E15000F00008435060704701460020874A50682D
:10E1600020F4E06008435060704701460020834A75
:10E17000506820F4605040EAC1005060704729B1F7
:10E180007E4A527A02437D4B5A7204E07B4A527AAD
:10E1900082437A4B5A7270477B49D8310860704786
:10E1A00001460020754A506820F440400843506002
:10E1B00070470021714A20321170704A82F8201095
:10E1C000012802D004280AD104E001216B4A203240
:10E1D000117005E00521694A2032117000E000BF8E
:10E1E00000BF70476949086070476449096A014384
:10E1F000624A11627047654944390860704730B51A
:10E2000000210022002400235C4D6D6805F00C0104
:10E2100021B1042905D0082923D105E05C4D056012
:10E2200022E05B4D05601FE0544D6D6805F47012EF
:10E23000524D6D6805F48034022505EB92421CB9FD
:10E24000544D554305600BE04C4D6D6805F40035A9
:10E250001DB1504D5543056002E04D4D55430560DD
:10E2600002E04B4D056000BF00BF444D6D6805F0F6
:10E27000F0010909484D6B5C0568DD4045603F4D84
:10E280006D6805F4E061090A434D6B5C4568DD404B
:10E2900085603A4D6D6805F46051C90A3E4D6B5C6E
:10E2A0004568DD40C560354D6D6805F44041890B1A
:10E2B0003A4D6B5CC568B5FBF3F5056130BD29B11E
:10E2C0002E4A526902432D4B5A6104E02B4A52698F
:10E2D00082432A4B5A61704729B1284A9269024306
:10E2E000264B9A6104E0254A92698243234B9A6146
:10E2F000704729B1214AD2690243204BDA6104E018
:10E300001E4AD26982431D4BDA61704729B11B4A0C
:10E31000D2680243194BDA6004E0184AD26882439B
:10E32000164BDA60704729B1144A12690243134B45
:10E330001A6104E0114A12698243104B1A61704756
:10E3400012494039086070470F49C86470470B494B
:10E35000C87170470948406A40F0807007494862B8
:10E36000704701460020054A92680A400AB1012020
:10E3700000E0002070470149887270470010024099
:10E380000000FFF8FFFFF6FE000042428004424218
:10E3900000127A0000093D00140000202400002033
:10E3A00010B50446FE48844208D10121C014FFF78D
:10E3B000ADFF0021E014FFF7A9FFC4E0B4F1804FE6
:10E3C00008D101210846FFF7AEFF00210120FFF729
:10E3D000AAFFB8E0F348844208D101210220FFF7E8
:10E3E000A2FF00210220FFF79EFFACE0EE4884422E
:10E3F00008D101210420FFF796FF00210420FFF738
:10E4000092FFA0E0E948844208D101210820FFF7EB
:10E410008AFF00210820FFF786FF94E0E448844249
:10E4200008D101211020FFF77EFF00211020FFF707
:10E430007AFF88E0DF48844208D101212020FFF7DD
:10E4400072FF00212020FFF76EFF7CE0DA48844253
:10E4500008D101214014FFF759FF00216014FFF794
:10E4600055FF70E0D548844209D10121C804FFF767
:10E470004DFF00214FF40020FFF748FF63E0D04834
:10E48000844209D101210805FFF740FF00214FF424
:10E490008010FFF73BFF56E0CA48844209D10121B2
:10E4A0004805FFF733FF00214FF40010FFF72EFF60
:10E4B00049E0C548844208D101214020FFF733FFDD
:10E4C00000214020FFF72FFF3DE0C048844208D1E3
:10E4D00001218020FFF727FF00218020FFF723FF85
:10E4E00031E0BB48844208D101218015FFF71BFFB2
:10E4F0000021A015FFF717FF25E0B648844209D197
:10E5000001210804FFF702FF00214FF48030FFF7DC
:10E51000FDFE18E0B048844209D101214804FFF70C
:10E52000F5FE00214FF40030FFF7F0FE0BE0AB48A2
:10E53000844208D101218804FFF7E8FE00214FF44E
:10E540008020FFF7E3FE10BD00220288944B984222
:10E550000ED0994B98420BD0B0F1804F08D0914B20
:10E56000984205D0904B984202D0904B984204D1EB
:10E570004FF68F731A404B881A438D4B984207D041
:10E580008C4B984204D04FF6FF431A40CB881A4375
:10E5900002808B8883850B880385814B98420BD042
:10E5A000854B984208D08B4B984205D08A4B9842B5
:10E5B00002D08A4B984201D10B7A038601238382D1
:10E5C000704770B5002400220023058C4FF6FE76BC
:10E5D00035400584028C8388048B4FF68F752C4060
:10E5E000B51E2C400D882C43751E2A400D892A43E8
:10E5F0004D882A436A4DA8420BD06F4DA84208D0DF
:10E60000744DA84205D0744DA84202D0734DA84263
:10E6100013D14FF6F7752A404D892A434FF6FB7503
:10E620002A408D882A434FF6FF652B404FF6FF5551
:10E630002B408D892B43CD892B4383800483CD8848
:10E640008586028470BD70B5002400220023058CED
:10E650004FF6EF7635400584028C8388048B48F6AC
:10E66000FF752C404FF6FF452C400D884FF6FF7686
:10E6700006EA05252C434FF6DF752A400D8906EA88
:10E6800005152A434D8806EA05152A43444DA8423C
:10E6900002D0494DA8421DD14FF67F752A404D89C1
:10E6A0004FF6FF7606EA05152A434FF6BF752A4056
:10E6B0008D8806EA05152A434FF6FF352B404FF2A9
:10E6C000FF752B408D8906EA85052B43CD8906EA27
:10E6D00085052B4383800483CD880587028470BD24
:10E6E00070B5002400220023058C4FF6FF663540EC
:10E6F0000584028C8388848B4FF68F752C404FF6EF
:10E70000FC752C400D882C434FF6FF552A400D898F
:10E710004FF6FF7606EA05252A434D8806EA0525C9
:10E720002A431F4DA84202D0234DA8421DD14FF2CB
:10E73000FF752A404D894FF6FF7606EA05252A43E4
:10E740004FF6FF352A408D8806EA05252A434EF606
:10E75000FF752B404DF6FF752B408D8906EA051598
:10E760002B43CD8906EA05152B4383808483CD880E
:10E770008587028470BD70B5002200230024058CBB
:10E780004EF6FF7635400584038C8488828B48F6EC
:10E79000FF752A404FF6FF452A400D8820E0000013
:10E7A000002C01400004004000080040000C004024
:10E7B000001000400014004000340140004C0140B3
:10E7C000005001400054014000180040001C00406F
:10E7D000002000400040014000440140004801404A
:10E7E0004FF6FF7606EA05252A434DF6FF752B40C6
:10E7F0000D8906EA05352B434D8806EA05352B437E
:10E80000FA4DA84202D0FA4DA84208D14BF6FF7546
:10E810002C408D894FF6FF7606EA85152C438480BF
:10E820008283CD88A0F84050038470BD828B4FF264
:10E83000FF331A408283828B4FF6FF7303EA012372
:10E840001A4382837047F0B50C461546002200211A
:10E850000026078C4EF6FF7C07EA0C070784828BA4
:10E86000018C4FF6FF7707EA043640F6FF473A403F
:10E870004FF6FF7707EA05273A434FF6FF7707EA97
:10E8800003373A43D94FB8420ED0D94FB8420BD0D4
:10E89000B0F1804F08D0D74FB84205D0D64FB8421C
:10E8A00002D0D64FB84206D14DF6FF77394046F434
:10E8B0008057394305E047F6FF57394044F4805705
:10E8C000394382830184F0BD828B4FF6F3731A4083
:10E8D0008283828B0A4382837047F0B50C461546CB
:10E8E000002200210026078C4FF6FF6C07EA0C0778
:10E8F0000784828B018C4FF6FF7707EA04264FF6D8
:10E900000C773A404FF6FF7707EA03172F433A4355
:10E91000B64FB8420ED0B64FB8420BD0B0F1804FD0
:10E9200008D0B44FB84205D0B34FB84202D0B34F6D
:10E93000B84206D14FF6FF57394046F48077394345
:10E9400005E04FF2FF57394044F480773943828322
:10E950000184F0BD028B4FF2FF331A400283028B19
:10E960004FF6FF7303EA01231A4302837047F0B5A1
:10E970000C461546002200210026078C4FF6EF7C3E
:10E9800007EA0C070784028B018C4FF6FF7707EA32
:10E99000041640F6FF473A404FF6FF7707EA033781
:10E9A0003A434FF6FF7707EA05273A438F4FB842BD
:10E9B0000ED08F4FB8420BD0B0F1804F08D08D4FA2
:10E9C000B84205D08C4FB84202D08C4FB84206D125
:10E9D0004FF6DF77394046F01007394305E04FF630
:10E9E0005F77394044F01007394302830184F0BD5A
:10E9F000028B4FF6F3731A400283028B0A430283A1
:10EA00007047F0B50C46154600220021068C4FF6E3
:10EA1000FE773E400684028B018C4FF60C76324026
:10EA20007E1C06EA03162E433243704EB0420ED0CF
:10EA30006F4EB0420BD0B0F1804F08D06D4EB04257
:10EA400005D06D4EB04202D06C4EB04206D14FF6AA
:10EA5000FD76314044F00106314305E04FF6F5768E
:10EA6000314044F00106314302830184F0BD70B5AA
:10EA700005460C465D4885420ED05D4885420BD068
:10EA8000B5F1804F08D05B48854205D05A48854291
:10EA900002D05A48854200D100E000BF208850B91A
:10EAA0002389A28861882846FFF7ABFFE1882846C2
:10EAB000FFF79EFF25E0208804280AD12389A28839
:10EAC00061882846FFF753FFE1882846FFF742FF99
:10EAD00017E0208808280AD12389A288618828465F
:10EAE000FFF7FBFEE1882846FFF7EEFE09E02389E9
:10EAF000A28861882846FFF7A6FEE1882846FFF72E
:10EB000095FE70BD2DE9F04105460C460026012713
:10EB1000608808B9022600E00026A088012801D1FB
:10EB2000022700E001272088A0B92389A2886188F4
:10EB30002846FFF766FFE1882846FFF759FF23893B
:10EB40003A4631462846FFF712FFE1882846FFF78C
:10EB500001FF13E02389A28861882846FFF707FF99
:10EB6000E1882846FFF7F6FE23893A4631462846D3
:10EB7000FFF747FFE1882846FFF73AFFBDE8F0813D
:10EB80000A884B881A438B881A43CB881A430B890F
:10EB90001A434B891A438B891A43A0F844207047C3
:10EBA0004FF6FF71818000210180C1804180017298
:10EBB00070470021018041808180C18001814181B5
:10EBC0008181C181704700210180418001218180C4
:10EBD0000021C18001817047002101804180818036
:10EBE000C18001814181818170470000002C01407A
:10EBF000003401400004004000080040000C0040C8
:10EC000021B1028842F00102028004E002884FF63E
:10EC1000FE731A400280704731B1B0F8442042F4CC
:10EC20000042A0F8442005E0B0F84420C2F30E02F0
:10EC3000A0F8442070471AB183890B43838102E016
:10EC400083898B43838170478182704741EA020345
:10EC5000A0F8483070471AB183890B43838102E0E2
:10EC600083898B438381704701894FF6F872114085
:10EC7000018170470A46002101894FF68F731940C0
:10EC800011430181704730B504460D4629462046A0
:10EC9000FFF7F0FF208940F00700208130BD2DE90B
:10ECA000F04104460D4616461F46602D06D13B46F0
:10ECB000012231462046FFF75AFE05E03B4601227D
:10ECC00031462046FFF79DFE29462046FFF7D2FF3A
:10ECD000208940F007002081BDE8F08130B50C4666
:10ECE00000210189C9B24FF6FF7505EA03251543D6
:10ECF00025432943018130BD2DE9F04105460E46EB
:10ED000017469846002443463A4631462846FFF7C0
:10ED1000E5FF2C894FF6F870044044F007044FF6E5
:10ED20008F70044044F070042C81BDE8F081F0B590
:10ED300004460D4616461F463B46324629462046A7
:10ED4000FFF7CCFF208940F480402081F0BD018591
:10ED5000828270470A46002101884FF68F7319405E
:10ED6000114301807047F0B50C4615461E46002140
:10ED7000002200230189028B038C4FF6F87739407B
:10ED800021434FF6FC473A4040F201173A434FF611
:10ED9000DD773B404FF6FF7707EA06172F433B43EB
:10EDA000018102830384F0BD0A460021018B4FF6E6
:10EDB0008F7319401143018370470A460021018B6C
:10EDC00048F6FF7319404FF6FF7303EA0223194315
:10EDD000018370470A460021818B4FF68F731940DB
:10EDE0001143818370470A460021818B48F6FF73E7
:10EDF00019404FF6FF7303EA0223194381837047DA
:10EE000021B1028842F08002028004E002884FF6BD
:10EE10007F731A400280704721B1828842F0040259
:10EE2000828004E082884FF6FB731A40828070472C
:10EE300021B1828842F00802828004E082884FF685
:10EE4000F7731A408280704721B1828842F0010234
:10EE5000828004E082884FF6FE731A4082807047F9
:10EE60000A460021018B4FF6F773194011430183C5
:10EE700070470A460021018B4FF2FF7319404FF68D
:10EE8000FF7303EA02231943018370470A460021F6
:10EE9000818B4FF6F77319401143818370470A46FF
:10EEA0000021818B4FF2FF7319404FF6FF7303EA85
:10EEB00002231943818370470A460021018B4FF6D4
:10EEC000FB7319401143018370470A460021018BEF
:10EED0004FF6FF3319404FF6FF7303EA022319433D
:10EEE000018370470A460021818B4FF6FB7319405E
:10EEF0001143818370470A460021818B4FF6FF330F
:10EF000019404FF6FF7303EA0223194381837047C8
:10EF10000A460021018B4FF67F731940114301838C
:10EF200070470A460021018BC1F30E014FF6FF73B3
:10EF300003EA02231943018370470A460021818BAB
:10EF40004FF67F7319401143818370470A460021B1
:10EF5000818BC1F30E014FF6FF7303EA02231943BD
:10EF6000818370470A460021018C4FF6FD731940DA
:10EF70001143018470470A460021018C4FF6F77354
:10EF800019401143018470470A460021018C4FF655
:10EF9000DF7319404FF6FF7303EA0213194301842C
:10EFA00070470A460021018C4FF67F7319404FF6D7
:10EFB000FF7303EA02131943018470470A460021D4
:10EFC000018C4FF6FF5319404FF6FF7303EA0223FB
:10EFD0001943018470470A460021018C4FF2FF73E8
:10EFE00019404FF6FF7303EA022319430184704767
:10EFF0000A460021018C4DF6FF7319404FF6FF734E
:10F0000003EA023319430184704730B50023012419
:10F010008C40A3B2048C9C430484048C02FA01F556
:10F02000ADB22C43048430BD30B5002304248C40A1
:10F03000A3B2048C9C430484048C02FA01F5ADB2A3
:10F040002C43048430BD70B50346002000241846CC
:10F05000183001258D40ACB21D8CA5431D8409B12B
:10F06000082909D100EB6100056825F070050560ED
:10F070000568154305600EE00D1FC5F34E052844D5
:10F08000056825F4E045056005684FF6FF7606EA59
:10F0900002263543056070BD21B1028842F00202AC
:10F0A000028004E002884FF6FD731A400280704728
:10F0B00021B1028842F00402028004E002884FF687
:10F0C000FB731A400280704721B1828842F08002AF
:10F0D000828004E082884FF67F731A4082807047F6
:10F0E00002884FF6F7731A40028002880A430280B2
:10F0F000704782884FF68F731A40828082880A4355
:10F100008280704702894FF6F8731A4002810289A3
:10F110000A430281704702894FF67F731A400281C9
:10F1200002890A4302817047818470478185704754
:10F13000818670470187704781877047A0F840102B
:10F14000704702884FF6FF431A40028002880A4344
:10F15000028070470146888E70470146088F7047CD
:10F160000146888F70470146B1F84000704701465C
:10F17000888C70470146088D704702460020138A2C
:10F180000B400BB1012000E000207047CA4302820F
:10F19000704730B50246002000230024158A05EA96
:10F1A0000103958905EA010413B10CB1012000E0C7
:10F1B000002030BDCA4302827047000010B50446EB
:10F1C000FB48844209D101218803FFF79FF8002101
:10F1D0004FF48040FFF79AF832E0F648844209D1B4
:10F1E00001214804FFF79FF800214FF40030FFF79A
:10F1F0009AF825E0F048844209D101218804FFF7FC
:10F2000092F800214FF48020FFF78DF818E0EB48CA
:10F21000844209D10121C804FFF785F800214FF489
:10F220000020FFF780F80BE0E548844208D1012177
:10F230000805FFF778F800214FF48010FFF773F806
:10F2400010BD2DE9F04786B005460E460024A246C3
:10F2500000BFA1460027B08900B100BF2F462C8A0D
:10F260004CF6FF700440F08804432C82AC894EF6C3
:10F27000F3100440B088318908437189084304437E
:10F28000AC81AC8A4FF6FF400440B0890443AC82A5
:10F2900001A8FEF7B4FFC648874202D1DDF810A0EE
:10F2A00001E0DDF80CA0A88900F4004040B10AEBB1
:10F2B000CA0000EB0A1031684900B0FBF1F807E022
:10F2C0000AEBCA0000EB0A1031688900B0FBF1F8C4
:10F2D0006420B8FBF0F004012009642101FB1089CF
:10F2E000A88900F4004040B1322000EBC900B0FB17
:10F2F000F1F000F00700044308E0322000EB0910B1
:10F300006421B0FBF1F000F00F0004432C8106B043
:10F31000BDE8F0874FF41651016000218180C18063
:10F3200001810C21418100218181704710B5024685
:10F330000020108A4FF2FF0318400B884C882343AB
:10F340008C882343CC8823431843108210BD0021AE
:10F35000018041808180C180704721B1828942F45F
:10F360000052828104E082894DF6FF731A40828147
:10F370007047F0B50346002400260025002040F623
:10F380006A17B94200D100BF1846C1F3421401F018
:10F390001F06012707FA06F5012C01D10C3004E005
:10F3A000022C01D1103000E014301AB107682F434D
:10F3B000076002E00768AF430760F0BD1AB1838AB7
:10F3C0000B43838202E0838A8B4383827047028AE5
:10F3D0004FF6F0731A400282028A0A430282704793
:10F3E00082894FF2FF731A40828182890A438281A7
:10F3F000704721B1828942F00202828104E0828951
:10F400004FF6FD731A4082817047028A4FF6DF7310
:10F410001A400282028A0A430282704721B1028A9C
:10F4200042F48042028204E0028A4BF6FF731A40E3
:10F4300002827047C1F308028280704701468888C3
:10F44000C0F308007047818941F001018181704754
:10F45000028BD2B20283028B42EA012202837047FE
:10F46000028B02F47F420283028B0A4302837047BD
:10F4700021B1828A42F02002828204E0828A4FF621
:10F48000DF731A408282704721B1828A42F01002F3
:10F49000828204E0828A4FF6EF731A4082827047BC
:10F4A00021B1828A42F00802828204E0828A4FF609
:10F4B000F7731A408282704721B1828942F4004278
:10F4C000828103E08289C2F30E028281704721B1FA
:10F4D000828A42F40062828204E0828A4FF2FF73E1
:10F4E0001A4082827047828A4FF6FB731A408282EA
:10F4F000828A0A438282704721B1828A42F00202E4
:10F50000828204E0828A4FF6FD731A40828270473D
:10F5100002460020B1F5007F00D100BF13880B40E8
:10F520000BB1012000E00020704701F40072B2F539
:10F53000007F00D100BFCA430280704770B5024609
:10F54000002400230025002040F66A16B14200D1B5
:10F5500000BFC1F3421501F01F03012606FA03F3B1
:10F56000012D02D19689334006E0022D02D1168A80
:10F57000334001E0968A33400C12012606FA04F467
:10F580001688344013B10CB1012000E0002070BD9A
:10F5900010B50022002340F66A14A14200D100BF3A
:10F5A0000A1201249440A3B2DC43048010BD000081
:10F5B000003801400044004000480040004C00403A
:10F5C0000050004010B5FEF719FD4FF48030FEF7F3
:10F5D00035FDFEF772FD0446012C24D10220FEF712
:10F5E00061F81020FEF772F80020FEF7ACFD002055
:10F5F000FEF7BBFDA002FEF7AFFD4FF4E0112004C3
:10F60000FEF784FD0120FEF78DFD00BF3920FEF7D7
:10F6100038FD0028FAD00220FEF787FD00BFFEF774
:10F620008DFD0828FBD101217D20FEF755FE01212B
:10F630004F48FEF746FC0120FEF7D4FD6FF00400B2
:10F64000FDF783FF4B4800684B49B0FBF1F04B4995
:10F65000087010BD10B5014609B9002010BD48481A
:10F6600002680A70100A4870100C8870100EC8707A
:10F670004348001D03680B71180A4871180C887103
:10F68000180EC8713E48083004680C72200A48728F
:10F69000200C8872200EC8720C20DFE710B5FEF730
:10F6A00096FC10BD10B5FFF7F9FF10BD10B504466C
:10F6B00045F25550FEF782FC0520FEF782FC4FF420
:10F6C0009C71614388B2FEF77FFCFEF780FCFEF779
:10F6D00083FC4FF47A712B4801F074FF10BD014692
:10F6E000264A12784A434FF0E0235A6100229A6179
:10F6F0001A46126942F001021A6100BF4FF0E0227F
:10F70000106900F001021AB100F48032002AF5D02D
:10F710004FF0E022126922F001024FF0E0231A615B
:10F7200000229A6170470146174A12884A434FF0F7
:10F73000E0235A6100229A611A46126942F00102DE
:10F740001A6100BF4FF0E022106900F001021AB107
:10F7500000F48032002AF5D04FF0E022126922F046
:10F7600001024FF0E0231A6100229A617047000005
:10F77000000430000000002000127A002800002061
:10F78000E8F7FF1FA5F600082A00002030B50B4659
:10F790000021002400BF0AE05D5C85EA20240E4DB4
:10F7A00035F8145085EA0025A8B24D1CA9B2914243
:10F7B000F2DB30BD30B50B460021002400BF08E06D
:10F7C0005D5C85EA1064054D55F8245085EA0020FB
:10F7D000491C9142F4D330BD582B0108582D010823
:10F7E0002DE9FE4307460C4615461E46DDF82880E7
:10F7F00001210846FEF770FDE1B23846FEF7A6FB90
:10F800000120A04001908DF808508DF8096001207A
:10F810008DF80A0001A8FDF7C5FE4FF4C060FDF7A2
:10F820002FFE052C04DAA01DC0B28DF8000008E000
:10F830000A2C03DA17208DF8000002E028208DF84A
:10F84000000001208DF8010002208DF80200012047
:10F850008DF803006846FDF718FE7D4840F82480C7
:10F86000BDE8FE8310B50120FDF702FF012807D196
:10F87000FDF70FFF7648006810B1754908688047AA
:10F8800010BD10B50220FDF7F3FE012808D10220BB
:10F89000FDF7FFFE6E48406810B16D49486880472B
:10F8A00010BD10B50420FDF7E3FE012808D10420A7
:10F8B000FDF7EFFE6648806810B1654988688047AB
:10F8C00010BD10B50820FDF7D3FE012808D108208F
:10F8D000FDF7DFFE5E48C06810B15D49C86880472B
:10F8E00010BD10B51020FDF7C3FE012808D110206F
:10F8F000FDF7CFFE5648006910B1554908698047A9
:10F9000010BD10B52020FDF7B3FE012808D120203E
:10F91000FDF7BFFE4E48406910B14D494869804728
:10F920004020FDF7A5FE012808D14020FDF7B1FEDB
:10F930004748806910B14649886980478020FDF7B3
:10F9400097FE012808D18020FDF7A3FE4048C0693A
:10F9500010B13F49C86980474FF48070FDF788FEB9
:10F96000012808D10002FDF794FE3948006A10B161
:10F970003749086A80474FF40070FDF779FE012887
:10F9800008D14002FDF785FE3148406A10B1304988
:10F99000486A804710BD10B54FF48060FDF768FEDF
:10F9A000012808D18002FDF774FE2948806A10B151
:10F9B0002749886A80474FF40060FDF759FE012807
:10F9C00008D1C002FDF765FE2148C06A10B1204988
:10F9D000C86A80474FF48050FDF74AFE012808D1DD
:10F9E0000003FDF756FE1A48006B10B11849086B6A
:10F9F00080474FF40050FDF73BFE012808D140033B
:10FA0000FDF747FE1248406B10B11149486B804723
:10FA10004FF48040FDF72CFE012808D18003FDF74C
:10FA200038FE0B48806B10B10949886B80474FF452
:10FA30000040FDF71DFE012808D1C003FDF729FE97
:10FA40000348C06B10B10249C86B804710BD00006D
:10FA5000B400002001460020002205E0401C02F511
:10FA600000628A4200D300E0F8E700BF70472DE94A
:10FA7000F04700240025002601274FF002084FF030
:10FA800004094FF0010AFEF798F8064606EA04005A
:10FA9000A04235D0FEF78DF805463443FDF7EBFE66
:10FAA0008246601C18B1E043FDF7A5FF824605F0D1
:10FAB0000700072812D005F0010000B9002705F063
:10FAC000020008B94FF0000805F0040008B94FF033
:10FAD00000094A4641463846FEF73FF8BAF1040F9E
:10FAE0000ED100BF6448006800F4E0606349084339
:10FAF000001D61490860BFF3408F00BF00BFFEE7F3
:10FB0000BDE8F0872DE9F04705460E464FF00008A6
:10FB1000C14600243046FFF79DFF8146FDF7E1FD19
:10FB20003520FEF779F8042700BF07E04FF40061A5
:10FB300001FB0450FDF71AFE0746641C4C4501D238
:10FB4000042FF3D0042F01D14FF00108FDF7D5FDAC
:10FB50004046BDE8F0872DE9F05F06460F46904627
:10FB60004FF000094FF0010B002400253C463546BC
:10FB7000FDF7B7FD3520FEF74FF84FF0040A00BF40
:10FB80000FE021882846FDF7F4FE82462888218868
:10FB9000884202D04FF0000B08E0A41CAD1C09F114
:10FBA0000209C14502D2BAF1040FEAD000BFBAF18E
:10FBB000040F01D04FF0000BFDF79FFD5846BDE844
:10FBC000F09F10B504460B460BB9002010BD002174
:10FBD00002E060585854491C9142FAD30120F5E7DD
:10FBE0002DE9F05F05460E4617464FF00009CA465C
:10FBF000C846C3462248854202D20020BDE8F09F95
:10FC0000C5F30A003844B0F5007F01D90020F5E7BC
:10FC1000C5F30A00A5EB000A4FF4007219495046DB
:10FC2000FFF7CFFFC5F30A0800240EE008EB04003D
:10FC30001449085C315D884206D0305D08EB040150
:10FC4000104A50544FF0010B641CBC42EED3BBF180
:10FC5000000F0ED04FF400615046FFF753FF40B144
:10FC60004FF4007207495046FFF775FF08B14FF097
:10FC700001094846C2E700000CED00E00000FA056B
:10FC800000F00308F400002070B504460D46164647
:10FC90006448844203D3A0196349884201D30020F9
:10FCA00070BD0DB90020FBE7324629462046FFF71C
:10FCB00052FFF5E770B504460D4616465948844292
:10FCC00001D2002070BD324629462046FFF779FF59
:10FCD000F8E72DE9F05F05460E4617464FF000099C
:10FCE000CA46C846C3465148854202D20020BDE8F4
:10FCF000F09FC5F30A003844B0F5007F01D9002019
:10FD0000F5E7C5F30A00A5EB000A4FF40072484975
:10FD10005046FFF756FFC5F30A0800240EE008EB33
:10FD200004004349085C315D884206D0305D08EB31
:10FD300004013F4A50544FF0010B641CBC42EED307
:10FD4000BBF1000F0ED04FF400715046FFF7DAFE02
:10FD500040B14FF4007236495046FFF7FCFE08B13F
:10FD60004FF001094846C2E738B504460094012225
:10FD700069462E48FFF7ADFF38BD08B5002000905A
:10FD8000012269462948FFF71CFF9DF8000008B1D1
:10FD9000012008BD0020FCE710B52648FDF760FFF4
:10FDA00000210420FEF798FA00210120FEF794FAC2
:10FDB00072B610BD70B5044600251A4884421BD1A6
:10FDC00000681D490840B0F1005F27D1FFF7D5FF5B
:10FDD000002823D019A002F071FC1DA002F06EFCD7
:10FDE00041F28830FFF77BFCFFF7D6FF656820689B
:10FDF000FDF7B1F9A84711E0214616A002F05EFC1C
:10FE000013A002F05BFC41F28830FFF768FCFFF7BB
:10FE1000C3FF65682068FDF79EF9A84770BD1349C8
:10FE20000860704700D0000800F0030800C8000810
:10FE3000F4020020000801400000FE2F4A756D709A
:10FE400020746F204170706C69636174696F6E001B
:10FE50000D0A00004A756D7020746F204164647251
:10FE60003A2030582530386C5800000008ED00E08A
:10FE70007FB504460D46002C41D001210846FEF70F
:10FE800038FA4FF08040FEF78BFA6800401E80B2CF
:10FE9000ADF8080048F69F40ADF804000020ADF82A
:10FEA0000A00ADF8060001A94FF08040FEF74CFBB8
:10FEB000F7480078A8B94FF44070FDF7E1FA1C202C
:10FEC0008DF8000000208DF8010003208DF802005D
:10FED00001208DF803006846FDF7D7FA0120EC49B0
:10FEE000087001218807FFF751F901221146900798
:10FEF000FEF7A1FE01218807FEF782FE11E0012135
:10FF00008807FFF743F9002201218807FEF793FED7
:10FF100000214FF08040FEF773FE4FF08040FEF767
:10FF20003FFA7FBD7FB504460D46002C3FD001212E
:10FF30000220FEF7DEF9D748FEF732FA6800401ECD
:10FF400080B2ADF8080048F69F40ADF804000020EC
:10FF5000ADF80A00ADF8060001A9CE48FEF7F4FAA4
:10FF6000CD480078A8B94FF44070FDF789FA1D20FC
:10FF70008DF8000000208DF8010003208DF80200AC
:10FF800001208DF803006846FDF77FFA0120C24981
:10FF900008700121BF48FFF7F9F801221146BD485A
:10FFA000FEF749FE0121BB48FEF72AFE0FE00121C2
:10FFB000B848FFF7EBF800220121B648FEF73BFEF8
:10FFC0000021B448FEF71CFEB248FEF7E9F97FBDF8
:10FFD0007FB504460D46002C3FD001210420FEF7DA
:10FFE00088F9AE48FEF7DCF96800401E80B2ADF833
:10FFF000080048F69F40ADF804000020ADF80A0064
:020000040801F1
:10000000ADF8060001A9A548FEF79EFAA4480078BD
:10001000A8B94FF44070FDF733FA1E208DF80000A8
:1000200000208DF8010003208DF8020001208DF8DA
:1000300003006846FDF729FA01209949087001215B
:100040009648FFF7A3F8012211469448FEF7F3FD06
:1000500001219248FEF7D4FD0FE001218F48FFF700
:1000600095F8002201218D48FEF7E5FD00218B481F
:10007000FEF7C6FD8948FEF793F97FBD7FB50446BC
:100080000D46002C3FD001211020FEF732F98548A3
:10009000FEF786F96800401E80B2ADF8080048F609
:1000A0009F40ADF804000020ADF80A00ADF806004E
:1000B00001A97C48FEF748FA7B480078A8B94FF4BC
:1000C0004070FDF7DDF936208DF8000000208DF836
:1000D000010003208DF8020001208DF8030068461E
:1000E000FDF7D3F901207049087001216D48FFF731
:1000F0004DF8012211466B48FEF79DFD012169482C
:10010000FEF77EFD0FE001216648FFF73FF8002271
:1001100001216448FEF78FFD00216248FEF770FD63
:100120006048FEF73DF97FBD7FB504460D46002CC3
:100130003FD001212020FEF7DCF85C48FEF730F9C3
:100140006800401E80B2ADF8080048F69F40ADF848
:1001500004000020ADF80A00ADF8060001A95348DC
:10016000FEF7F2F952480078A8B94FF44070FDF755
:1001700087F937208DF8000000208DF8010003205A
:100180008DF8020001208DF803006846FDF77DF927
:1001900001204749087001214448FEF7F7FF01227A
:1001A00011464248FEF747FD01214048FEF728FD71
:1001B0000FE001213D48FEF7E9FF002201213B4805
:1001C000FEF739FD00213948FEF71AFD3748FEF7E2
:1001D000E7F87FBD10B501218807FEF7DAFF98B375
:1001E00001218807FEF7E6FF00242BE004EB440022
:1001F000304951F8200018B304EB440001EB8000B3
:100200004068401C04EB44012A4A02EB810148602B
:1002100004EB4400114601EB8000406804EB44010C
:1002200002EB8101896888420AD3002004EB440173
:1002300002EB8101486004EB440152F82100804741
:10024000601C84B2202CD1DB10BD10B501211148F7
:10025000FEF79FFF48B101210E48FEF7ABFF16489D
:10026000006810B114490868804710BD10B501211D
:100270000A48FEF78EFF48B101210848FEF79AFFB1
:100280000D48406810B10C494868804710BD000017
:100290002E000020000400402F0000200008004035
:1002A0003000002000100040310000200014004009
:1002B0003200002004050020F404002010B50121C4
:1002C000BA48FEF766FF48B10121B848FEF772FF51
:1002D000B748806810B1B6498868804710BD10B52E
:1002E0000121B448FEF755FF48B10121B148FEF79E
:1002F00061FFAF48C06810B1AD49C868804710BD04
:100300002DE9F04105460E46012715B9B81EBDE896
:10031000F081A9480088202802DB4FF0FF30F6E783
:1003200032210120FFF7A4FD322E03D93220B6FB83
:10033000F0F700E00127002417E004EB44009F4998
:1003400051F82000A8420ED1002004EB44019B4A42
:1003500002EB8101486004EB4400114601EB800090
:100360008760201DD3E7601C84B2934800888442D4
:10037000E3DB91480088844218D104EB44008F49A4
:1003800041F82050002004EB44018C4A02EB81012B
:10039000486004EB4400114601EB8000876086480A
:1003A0000088401C84490880201DB0E74FF0FF30D2
:1003B000ADE72DE9F04105460F460024661E15B94C
:1003C000601EBDE8F0817E48006840B97D487C49E8
:1003D00008607D4848607D4888607D48C86000248A
:1003E0000EE0734850F82400A84207D1744850F832
:1003F0002420394601209047264603E0601C84B241
:10040000042CEEDB00BF002E1CDA002410E068484C
:1004100050F8240050B9664840F82450684850F815
:100420002420394601209047264603E0601C84B210
:10043000042CECDB00BF002E04DA39462846FFF717
:100440005FFF06463046BCE770B505465C4800686D
:1004500040B95C485A4908605B4848605B4888601E
:100460005B48C860002411E0514850F82400A842BD
:100470000AD100204E4941F82400514850F8242068
:1004800000210846904770BD601C84B2042CEBDB51
:10049000002409E004EB4400484951F82000A84238
:1004A00000D105E0601C84B2434800888442F1DB3F
:1004B00000BF41480088844237DA002424E0601CF1
:1004C00000EB40003D4951F8200004EB44013B4A59
:1004D00042F82100601C00EB4000114601EB800057
:1004E000406804EB440102EB81014860601C00EBB2
:1004F0004000114601EB8000806804EB440102EBF0
:1005000081018860601C84B22B480088401EA04294
:10051000D5DC29480088401E274908800846008805
:1005200018B900210846FFF7A3FC00BFABE770B580
:1005300005462348006840B92248214908602248FE
:100540004860224888602248C860284604280CD2A7
:10055000284684B20020164941F82400184850F873
:1005600024200021084690471FE0281F20281CD285
:1005700084B2002004EB4401104A42F8210004EB4D
:10058000440102EB8101486004EB440102EB81016C
:10059000886009480088401E07490880084600888E
:1005A00018B900210846FFF763FC70BD0010004039
:1005B000F4040020001400402C000020040500205A
:1005C0008406002025FF0008D1FF00087D000108F7
:1005D0002901010810B50446FE4804600146FE48A2
:1005E000FEF72FFE10BD10B50446FA488480014680
:1005F000F948FEF726FE10BD10B50446F548C48044
:100600000146F548FEF71DFE10BD10B50446F14841
:1006100004810146F048FEF714FE10BD10B50446F3
:1006200000BF4021EC48FEF773FF0028F9D02146B7
:10063000E948FEF7FFFE10BD70B504460D460026E2
:100640004CB100BF05E02078FFF7E8FF641C701C88
:1006500086B2AE42F7DB70BDE049086070471CB55A
:10066000012144F20500FDF737FEDB48FEF7A6FD49
:100670004FF40070ADF8040003208DF80600182038
:100680008DF8070001A9D648FDF74AFB4FF48060BA
:10069000ADF8040004208DF8070001A9D048FDF74B
:1006A0003FFB4FF4E130CB49086000208880C880D0
:1006B000088188810C204881C748FEF7C2FD2520AB
:1006C0008DF8000000208DF8010003208DF8020055
:1006D00001208DF803006846FCF7D7FE012240F2A6
:1006E0002551BD48FEF745FE0121BB48FEF735FE0A
:1006F0001CBD08B54FF40070ADF8000003208DF864
:10070000020004208DF803006946B548FDF708FB98
:100710004FF48060ADF8000004208DF803006946B6
:10072000AF48FDF7FDFA002240F22551AA48FEF736
:1007300020FE0021A848FEF710FE0020A74908600F
:1007400008BD10B50446A348046100F11001A54896
:10075000FEF777FD10BD10B504469E48848200F177
:100760001001A048FEF76DFD10BD10B50446994874
:10077000C48200F110019B48FEF763FD10BD10B567
:1007800004469448048300F110019648FEF759FD91
:1007900010BD10B5044600BF40219248FEF7B8FED8
:1007A0000028F9D021468F48FEF744FE10BD70B5F1
:1007B00004460D4600264CB100BF05E02078FFF747
:1007C000E8FF641C701C86B2AE42F7DB70BD834943
:1007D000486070471CB501210520FDF77DFD012112
:1007E0004804FDF786FD7F48FEF7E8FC0420ADF8DD
:1007F000040003208DF8060018208DF8070001A9D9
:100800007748FDF78DFA0820ADF8040004208DF834
:10081000070001A97248FDF783FA4FF4E1306D49F2
:10082000086100216B488182C182018381830C2190
:10083000418300F110016B48FEF703FD26208DF87F
:10084000000000208DF8010003208DF80200012037
:100850008DF803006846FCF718FE012240F225518E
:100860006048FEF786FD01215E48FEF776FD1CBD5F
:1008700008B50420ADF8000003208DF80200042024
:100880008DF8030069465648FDF74AFA0820ADF88E
:10089000000004208DF8030069465148FDF740FA36
:1008A000002240F225514F48FEF763FD00214D48DC
:1008B000FEF753FD00204949486008BD10B50446C5
:1008C0004448046200F120014748FEF7BAFC10BD1D
:1008D00010B504463F48848400F120014248FEF7E9
:1008E000B0FC10BD10B504463A48C48400F12001A4
:1008F0003D48FEF7A6FC10BD10B5044635480485FA
:1009000000F120013848FEF79CFC10BD10B50446EC
:1009100000BF40213448FEF7FBFD0028F9D02146F6
:100920003148FEF787FD10BD70B504460D46002620
:100930004CB100BF05E02078FFF7E8FF641C701C95
:1009400086B2AE42F7DB70BD2449886070471CB5A3
:1009500001210920FDF7C0FC01218804FDF7C9FC35
:100960002148FEF72BFC4FF48060ADF80400032013
:100970008DF8060018208DF8070001A91B48FDF727
:10098000CFF94FF40060ADF8040004208DF80700A3
:1009900001A91648FDF7C4F94FF4E1300D4908628A
:1009A00000210C488184C184018581850C21418509
:1009B00000F120010C48FEF744FC27208DF80000D0
:1009C00000208DF8010003208DF8020001208DF831
:1009D00003000DE09406002000380140E4060020EA
:1009E000000801400044004000480040000C014065
:1009F0006846FCF74AFD012240F22551F748FEF710
:100A0000B8FC0121F548FEF7A8FC1CBD08B54FF461
:100A10008060ADF8000003208DF8020004208DF8FE
:100A200003006946EE48FDF77BF94FF40060ADF82E
:100A3000000004208DF803006946E948FDF770F9CD
:100A4000002240F22551E548FEF793FC0021E348DF
:100A5000FEF783FC0020E349886008BD10B504461A
:100A6000E148046300F13001E048FEF7EAFB10BD05
:100A700010B50446DC48848600F13001DB48FEF7FF
:100A8000E0FB10BD10B50446D748C48600F1300124
:100A9000D648FEF7D6FB10BD10B50446D2480487F1
:100AA00000F13001D148FEF7CCFB10BD10B5044673
:100AB00000BF4021CD48FEF72BFD0028F9D021468C
:100AC000CA48FEF7B7FC10BD70B504460D460026B7
:100AD0004CB100BF05E02078FFF7E8FF641C701CF4
:100AE00086B2AE42F7DB70BDBE49C86070471CB528
:100AF00001211120FDF7F0FB0121C804FDF7F9FBEE
:100B0000BA48FEF75BFB4FF48060ADF804000320A9
:100B10008DF8060018208DF8070001A9B448FDF7EC
:100B2000FFF84FF40060ADF8040004208DF80700D2
:100B300001A9AF48FDF7F4F84FF4E130AA49086382
:100B40000021A9488186C186018781870C214187C0
:100B500000F13001A548FEF774FB34208DF8000049
:100B600000208DF8010003208DF8020001208DF88F
:100B700003006846FCF789FC012240F225519B489E
:100B8000FEF7F7FB01219948FEF7E7FB1CBD08B50E
:100B90004FF48060ADF8000003208DF802000420BF
:100BA0008DF8030069469248FDF7BAF84FF40060EB
:100BB000ADF8000004208DF8030069468C48FDF76D
:100BC000AFF8002240F225518848FEF7D2FB002101
:100BD0008648FEF7C2FB00208249C86008BD10B5F8
:100BE00004468148046400F140018248FEF729FB75
:100BF00010BD10B504467C48A0F8444000F1400107
:100C00007C48FEF71EFB10BD10B504467648A0F8E0
:100C1000464000F140017748FEF713FB10BD10B5C8
:100C200004467148A0F8484000F140017148FEF7C1
:100C300008FB10BD10B5044600BF40216D48FEF70B
:100C400067FC0028F9D021466A48FEF7F3FB10BD87
:100C500070B504460D4600264CB100BF05E0207873
:100C6000FFF7E8FF641C701C86B2AE42F7DB70BD74
:100C70005C49086170471CB501213120FDF72CFB50
:100C800001210805FDF735FB5A48FEF797FA4FF4A6
:100C90008050ADF8040003208DF8060018208DF870
:100CA000070001A95248FDF73BF80420ADF8040005
:100CB0008DF8070001A95048FDF732F84FF4E130F4
:100CC0004949086400214848A0F84410A0F846109B
:100CD000A0F84810A0F84C100C21A0F84A1000F120
:100CE00040014448FEF7ADFA35208DF800000020A1
:100CF0008DF8010003208DF8020001208DF803001B
:100D00006846FCF7C2FB012240F225513948FEF744
:100D100030FB01213748FEF720FB1CBD08B54FF41E
:100D20008050ADF8000003208DF8020004208DF8FB
:100D3000030069462E48FCF7F3FF0420ADF80000DD
:100D40008DF8030069462C48FCF7EAFF002240F2C8
:100D500025512848FEF70DFB00212648FEF7FDFA35
:100D600000202049086108BD10B540F225512348F4
:100D7000FEF7E4FB50B12148FEF760FBC4B219480E
:100D8000006818B1174801682046884710BD10B5A3
:100D900040F225511A48FEF7D1FB50B11848FEF732
:100DA0004DFBC4B20F48406818B10E484168204658
:100DB000884710BD10B540F225510848FEF7BEFB2C
:100DC00050B10648FEF73AFBC4B20648806818B135
:100DD000044881682046884710BD00000048004054
:100DE000000C0140E406002094060020004C004066
:100DF0000010014000500040001401400038014044
:100E00000044004010B540F225516748FEF796FBBC
:100E100050B16548FEF712FBC4B26448C06818B10F
:100E20006248C1682046884710BD10B540F2255180
:100E30005F48FEF783FB50B15D48FEF7FFFAC4B28E
:100E40005A48006918B1594801692046884710BDC1
:100E500010B50446052C7DD2DFE804F0031B354FA6
:100E600069005448544988605448086054484860B0
:100E70005448C860544808615448486154488861DF
:100E80005448C861084654490860096808688047A2
:100E900072E05249484881625148474908625149C5
:100EA000454841625049C16250490163504941631C
:100EB000504981635049C1632030474948604968BF
:100EC0000868804758E04D493B4881644C483A499E
:100ED00008644C49384841644B49C1644B49016539
:100EE0004B4941654B4981654B49C16540303A49A1
:100EF00088608968086880473EE048492E488166D6
:100F000047482D49086647492B4841664649C1660E
:100F10004649016746494167464981674649C16775
:100F200060302D49C860C9680868804724E043499B
:100F30002148C0F8881042481F49C1F88000414943
:100F40001D48C0F884104049C0F88C103F49C0F8D3
:100F5000901000E00FE03E49C0F894103D49C0F801
:100F600098103D49C0F89C1080301B490861096900
:100F70000868804700E000BF00BF10BD10B5044600
:100F8000154850F8240010B92046FFF761FF1248B9
:100F900050F8240010BD70B504460D46E0B2FFF7CE
:100FA0003DFB204670BD0000004C0040E4060020E0
:100FB0000050004059060108F80600205F060108AD
:100FC000F3060108D5050108E7050108F905010840
:100FD0000B0601083906010898070020CF07010811
:100FE000D5070108710801084307010857070108E0
:100FF0006B0701087F070108AF07010849090108CD
:101000004F0901080D0A0108BD080108D1080108AF
:10101000E5080108F908010829090108E90A010899
:10102000EF0A01088F0B01085D0A0108710A010827
:10103000850A0108990A0108C90A0108710C01080A
:10104000770C01081D0D0108DF0B0108F30B0108E7
:10105000090C01081F0C0108510C01080249088005
:1010600070470148008870473400002010B50A46D8
:101070000021072A00DB10BD931E03EB4303FE4C47
:1010800004EB430103780B7043784B7000234B80D3
:1010900083888B8000BFEEE72DE9F04781468846C4
:1010A00092461E46002400BF002700BF48E004EB24
:1010B000041000EB8410F14911F8100048453DD1AF
:1010C000B8F1000F1DD0404601F084FA87B2802F9E
:1010D00000DB7F2704EB041101EB8411E74A02EBEC
:1010E0004101481C3A46414601F062FA002204EBF5
:1010F000041000EB8410E14901EB4000401C791C16
:10110000425404EB041101EB8411DC4A02EB41016F
:1011100081F8816000250CE01AF8051004EB04103A
:1011200000EB8410D54A02EB400082304155681C28
:1011300085B2B542F0DB0120BDE8F087601C84B2C7
:10114000CF4800888442B2DBCD49098801EB011207
:1011500002EB8111C94A02F81190B8F1000F1DD0BD
:10116000404601F037FA87B2802F00DB7F2704EB7F
:10117000041101EB8411C14A02EB4101481C3A46BB
:10118000414601F015FA002204EB041000EB841034
:10119000BA4901EB4000401C791C4254B849098807
:1011A00001EB011202EB8111B44A02EB410181F81B
:1011B000816000250CE01AF8051004EB041000EB28
:1011C0008410AE4A02EB400082304155681C85B263
:1011D000B542F0DBAA480088401CA94908800120DC
:1011E000AAE70246002100BF0CE001EB011000EB72
:1011F0008110A24B13F81000904201D101207047DA
:10120000481C81B29E4800888142EEDB0020F6E750
:1012100070B5064674783578A01E00EB40009649FC
:1012200001EB4000407838BB2046FFF7DAFF38B9C1
:10123000022C05D100231A4692A12046FFF72CFF6D
:101240000121A01E00EB40008B4A02EB40004170E0
:101250000021A01E00EB400002EB400041808C48C2
:10126000006848B18A480068006828B1884800686A
:101270000121026820469047072D01DB002070BD48
:10128000022D04DA304600F003FE0120F7E7A81E25
:10129000804951F8200030B1A81E0A4652F82000BB
:1012A000C168304688470020E9E770B505460C461E
:1012B000072C04DB0220FFF7D1FE002070BD022CBA
:1012C00001DA0120FAE7A01E724951F8200028B186
:1012D000A11E704A52F8211048688047A01E6D492F
:1012E00041F820500120E9E76B48704770B504468B
:1012F0000D46072C04DB0120FFF7B0FE002070BD77
:10130000022C0CDB2C70A01E624951F8200030B179
:10131000A01E0A4652F82000C168284688470120CE
:10132000EDE770B506460024002500BF0BE004EB96
:10133000041000EB8410514911F81000B04200D1A4
:1013400005E0601C84B24E4800888442EFDB00BF99
:101350004B480088844201DB002070BD58E0601CCF
:1013600000EB001101EB8010444911F8100004EB70
:10137000041101EB8411414A02F81100621C02EBD6
:10138000021303EB82123D4B03EB4202511C04EBB0
:10139000041202EB841203EB4202501C01F021F90B
:1013A000601C00EB001101EB8010344901EB4000A0
:1013B00090F8810004EB041101EB84112F4A02EB39
:1013C000410181F88100002514E0601C00EB001150
:1013D00001EB8010294901EB40008230415D04EBB4
:1013E000041000EB8410254A02EB40008230415586
:1013F000681C85B2601C00EB001101EB80101F49D6
:1014000001EB400090F88100A842DEDC601C84B251
:101410001B480088401EA042A1DC19480088401EDD
:1014200017490880012098E7014609B90020704754
:101430001348008808801148F9E7002000BF01E048
:10144000411C88B20528FBDB704710B5002400BFA3
:1014500054E004EB4400084901EB40004078E8B355
:1014600004EB440001EB40004088401C04EB4401C5
:10147000014A02EB410111E0C0070020DE07002015
:101480003C000020446562756720556E6974000059
:1014900038000020AC070020080B0020488004EB37
:1014A0004400114601EB4000408804EB440102EB8C
:1014B0004101898888421FDDA11C88B2FFF731FFF6
:1014C000002004EB4401164A02EB4101487004EB92
:1014D000440102EB41014880124800E00CE0006842
:1014E00050B110480068006830B1A11C88B20D49A5
:1014F00009680A6800219047601C84B2052CA8DBAB
:1015000010BD10B504464FF47A710748FEF7F8FE97
:101510004FF47A710548FEF7F3FE0248046010BDEF
:10152000C0070020380000203B1401084B140108BC
:101530000146234800786C2806D10020C8B2020278
:1015400042EA112290B270470846FCE701461C4867
:1015500000786C2806D10020C8B2020242EA1122AB
:1015600090B270470846FCE70146154800786C28A1
:101570000ED10020C8B2C1F3072242EA0020C1F315
:10158000074242EA00200A0E60F31F22104670470D
:101590000846FCE701460A4800786C280ED1002076
:1015A000C8B2C1F3072242EA0020C1F3074242EA6F
:1015B00000200A0E60F31F22104670470846FCE721
:1015C0004000002030B502460B4600211AB1724897
:1015D0000088322802DB4FF0FF3030BD00210AE0E6
:1015E00001EB41006D4C54F82000904201D10846B7
:1015F000F3E7481C01B2684800888142F0DB664886
:10160000008800EB4000654C44F820200020624C2C
:10161000248804EB4404614D05EB840460605E485B
:10162000008800EB40002C4604EB800083605A48A1
:101630000088401C584C20802046008800B2CCE72F
:1016400010B50146002001B910BD002009E000EBF3
:101650004002524B53F822208A4200D105E0421C3E
:1016600010B24D4A12889042F1DB00BF4A4A1288FC
:1016700090422EDA24E0421C02EB4202474B53F820
:10168000222000EB4003454C44F82320421C02EB8F
:101690004202234603EB8202526800EB400304EB54
:1016A00083035A60421C02EB4202234603EB820290
:1016B000926800EB400304EB83039A60421C10B273
:1016C000354A12889042D6DB334A1288521E324B7A
:1016D0001A8000BFB8E700202F490880704730B556
:1016E00002460B4600210AB9481E30BD00211AE00F
:1016F00001EB4100294C54F82000904211D1002008
:10170000254C248804EB4404244D05EB84046060DC
:101710002148008800EB40002C4604EB80008360E9
:1017200005E0481C01B21C4800888142E0DB00BF94
:101730000846DAE710B5002400BF27E004EB4400B8
:10174000164901EB80004068401C04EB4401134A39
:1017500002EB8101486004EB4400114601EB80007C
:10176000406804EB440102EB8101896888420BD395
:1017700004EB440152F821008047002004EB4401AF
:10178000064A02EB81014860601C04B202480088EE
:101790008442D3DB10BD000044000020140F002061
:1017A0000146C84382B24FF6FF7000EA0232C1F32D
:1017B0000B00104370472DE9F04104460025002737
:1017C0000026257860784540A0784540A08885EAC5
:1017D000202520794540A07945402089FFF7E0FF8A
:1017E000074685EA2725F8B2454000BF05E004F129
:1017F0000A00805D4540701C86B22089B042F6DC4C
:101800002846BDE8F0810146F648F74A128881541F
:10181000F5480088401CF44A10801088C21700EB7D
:1018200092529212A0EB82221432EF4B1A80184689
:101830000088EE4A128890420ED1EC480088401C85
:10184000EA4A10801088C21700EB92529212A0EB65
:1018500082221432E54B1A80704770B50024E348A9
:101860000088E1490988884200D170BDDD48DF4920
:101870000988445CDD480088401CDC4908800888F1
:10188000C11700EB91518912A0EB81211431D74A85
:101890001180D74800780B287ED2DFE800F0060ED2
:1018A0001E262E363E5058609500552C04D1D04847
:1018B0000078401CCE490870B8E0EE2C05D1CC4829
:1018C0000078401CCA49087006E0552C04D000205E
:1018D000C7490870C7490880A8E0C7480470C448D1
:1018E0000078401CC2490870A0E0C3484470C0485A
:1018F0000078401CBE49087098E0BF488470BC481E
:101900000078401CBA49087090E0BC480480B84890
:101910000078401CB649087088E0B848007844EA6E
:101920000020B649088008460088FFF701FEB2494A
:101930008880AF480078401CAD49087076E0AE481A
:101940008471AB480078401CA94908706EE0AC482F
:101950000480A7480078401CA549087066E0A848A4
:10196000007844EA0020A649088008460088FFF76E
:10197000DFFDA14908810889FFF712FF9E49098907
:10198000884210D19C480089C0F30B009A49088115
:1019900097480078401C00E042E09549087000201C
:1019A000944908800FE0002091490870914908800F
:1019B00091490889FFF7F4FE05468F4801892A46B8
:1019C00090A000F07BFE31E08B48008989490988AE
:1019D000884209DD874801880088401C854A1080BC
:1019E00085480A3044541AE0002081490870814932
:1019F00008808148FFF7DFFEA04207D18E480068CB
:101A000068B17D488C490968884708E07A48FFF743
:101A1000D2FE05462A46214688A000F04FFE05E08A
:101A20000020734908707349088000BF00BF00BFE1
:101A30001BE7814908607047F8B504460020009014
:101A4000002500268948006808B90020F8BD552007
:101A50000090864800680121C26968469047EE20E0
:101A60000090824800680121C2696846904720784A
:101A700000907E4800680121C269684690476078FE
:101A800000907A4800680121C26968469047A078B2
:101A90000090764800680121C26968469047A08896
:101AA000FFF754FD0646301200907048006801218F
:101AB000C26968469047F0B200906C480068012106
:101AC000C26968469047A079009068480068012183
:101AD000C269684690472089FFF762FE054628469E
:101AE000FFF734FD05462812009060480068012188
:101AF000C26968469047E8B200905C4800680121DE
:101B0000C26968469047218958480068C26904F153
:101B10000A0090472046FFF74EFE009053480068A9
:101B20000121C2696846904701208FE730B5014620
:101B30000023002209B9002030BD4D4800884D4CDB
:101B40002488A04201D10020F6E749480088401CC3
:101B5000474C2080204600880A2490FBF4F504FBC3
:101B60001500434C208020460078082404EB802098
:101B700082B21046541CA2B23F4C205C0870104642
:101B8000541CA2B23C4C205C48701046541CA2B2BB
:101B9000394C205C88701046541CA2B2364C205C34
:101BA00088801046541CA2B2334C205C0C7940EA69
:101BB000042088801046541CA2B22F4C205C8871EF
:101BC0001046541CA2B22C4C205C08811046541CB8
:101BD000A2B2294C205C0C7A40EA04200881002340
:101BE00056E0000094110020520000205000002018
:101BF000580000205A000020B03D00205C0000206A
:101C00005E000020636F6D6D3A3A47657443686506
:101C1000636B4C656E676874204572726F723A2010
:101C200052585B253032785D2C2043485B2530329A
:101C3000785D0D0A000000004C000020636F6D6DA0
:101C40003A3A476574436865636B56616C75652005
:101C50004572726F723A2052585B253032785D2C93
:101C60002043485B253032785D0D0A004800002093
:101C70005400002056000020A81500201046541CD7
:101C8000A2B2744C245C01F10A00C454581C83B203
:101C900008899842F2DC01204EE730B50146002366
:101CA000002209B9002030BD6B480078082404EBFD
:101CB000802082B20D781046541CA2B2654C255487
:101CC0004D781046541CA2B2624C25548D781046B3
:101CD000541CA2B25F4C2554888805121046541C2F
:101CE000A2B25C4C25540D791046541CA2B2594C3A
:101CF00025548D791046541CA2B2564C255408899F
:101D000005121046541CA2B2524C25540D7A1046AE
:101D1000541CA2B24F4C2554002309E001F10A00E3
:101D2000C55C1046541CA2B24A4C2554581C83B2C0
:101D300008899842F2DC48480088401C464C2080C4
:101D4000204600880A2490FBF4F504FB1500424C61
:101D5000208020460088414C2488A0420DD13F4875
:101D60000088401C3D4C2080204600880A2490FBBF
:101D7000F4F504FB1500394C2080012093E710B5E1
:101D800004462046FFF789FF10BD10B53448FFF721
:101D9000CDFE10B13248FFF74FFE10BD10B504461E
:101DA00004B910BD2F48006818B12E490968486869
:101DB00080472C480460006881682B4888470121CF
:101DC0002A48FFF7FFFB01212948FFF7FBFB00BF73
:101DD000E7E710B50020274908602248006818B1DD
:101DE000204909684868804700201E4908601F484C
:101DF000FFF726FC1E48FFF723FC10BD1E481F49B5
:101E000008601F4848601F4888601F48C8601F4816
:101E10000861084617490860704710B50446154820
:101E2000006808B9FFF7EAFF124850F8240010BD17
:101E300070B505460C460F4850F8240020B10D49F6
:101E400051F82410486880470A4840F8245001207F
:101E500070BD0000A815002056000020540000208E
:101E6000BA41002048000020071801085B1801084B
:101E70008B1D0108801100209D1D01086C110020A0
:101E8000D31D0108331A0108391A01087F1D010802
:101E900010B504462B48006800B910BD2078022810
:101EA00000DBFAE7A078012800D0F6E7A088072831
:101EB00041D2DFE800F040040E182C362200214801
:101EC0000068006820B11F48006801682046884704
:101ED00032E01C480068406820B11A480068416838
:101EE0002046884728E017480068806820B11548D8
:101EF00000688168204688471EE0124800684069F3
:101F000020B11048006841692046884714E00D4818
:101F10000068C06820B10B480068C1682046884747
:101F20000AE008480068006920B1064800680169B5
:101F30002046884700E000BF00BF00BFADE7014971
:101F4000086070476000002070B50024FB48B0F9BD
:101F50000000FB490988884209DBFA48FFF770FB5B
:101F6000601EF94908800020F449088070BDFFF721
:101F7000BBF9044602202070012060700320A0708D
:101F80002220A0800020A071A22020812289EB487D
:101F9000B0F900300088401C00B2E84D288003EB07
:101FA000031000EB8310E94B1B6803EB400104F1C5
:101FB0000A0000F0FDFA21460220FFF797F900BF62
:101FC000D4E710B50446A079032802D0A0790228EE
:101FD00010D1DB48FFF728FADC490860DA48B0F98D
:101FE0000000002806DA4FF47A71D648FFF7EAFAC3
:101FF000D549088010BD10B50446A088222803D119
:102000002046FFF7DEFF00E000BF00BF10BD2DE956
:10201000F0410446A079022818D100270026CCA759
:1020200012262681002504E0795D04F10A0041555D
:102030006D1CB542F8D3002104F10A00415500207F
:10204000A07121460220FFF751F900BFBDE8F081E1
:102050002DE9F0410446A079022818D10027002676
:10206000BBA712262681002504E0795D04F10A0051
:1020700041556D1CB542F8D3002104F10A004155C9
:102080000020A07121460220FFF730F900BFBDE813
:10209000F08110B50446A07902280AD104F10A00A3
:1020A000FDF7D8FA20810020A07121460220FFF719
:1020B0001DF910BD10B50446A088112808D01228BB
:1020C00002D013280CD107E02046FFF7A0FF08E05C
:1020D0002046FFF7BDFF04E02046FFF7DAFF00E0EF
:1020E00000BF00BF10BD10B50446A078022805D07F
:1020F000032807D12046FFF77EFF04E02046FFF7C4
:10210000D9FF00E000BF00BF10BD10B59548FDF736
:1021100051FE10BD10B50446A088012800D010BDA6
:102120002089022800D0FAE78F48FFF789FA0120BA
:102130008E4908804FF6FF708D490880A07A8D493E
:102140000880E07A097840EA01208A490880084638
:102150000088FFF7EDF9874908800020FDF704FEAD
:10216000A079022802D0A079032805D10020A0710F
:1021700060782146FFF7BAF800BFD0E72DE9F041BB
:102180000446A088022801D0BDE8F08120890828F3
:1021900000D0F9E7022075490880A07A76490880C6
:1021A000E07A097840EA01207349088008460088EF
:1021B000FFF7BEF970490880207B70490860607B9A
:1021C000096840EA01206D490860A07B096840EA7F
:1021D00001206A490860E07B096840EA01206749FC
:1021E000086008460068FFF7BFF964490860207C72
:1021F00063490880607C097840EA012060490880D2
:1022000008460088FFF794F95D490880FDF72FFC28
:102210005A4801685348FDF775FC00205949086089
:102220005949088059490860A079022802D0A0794C
:10223000032827D10026002500270020A0710820B0
:1022400020814D480088FFF781F906463012A072C0
:10225000E6724A480068FFF79DF90546290E21738A
:10226000290C6173290AA173E57345480088FFF7BB
:102270006DF9074639122174677460782146FFF7BB
:1022800035F800BF00BF7FE72DE9F0410446002686
:1022900000250027A088032801D0BDE8F08120890F
:1022A000042800DAF9E7032030490880A57AE07AAB
:1022B00040EA0525207B40EA0525607B40EA0525AC
:1022C0002846FFF751F9314908602089061F09683F
:1022D000244A8818324604F10E01FDF7D5FC28B1D6
:1022E000012728480068304426490860A079022860
:1022F00002D0A079032814D10020A07123480068DF
:10230000FFF748F90546280EA072290CE172290A48
:1023100021736573A7730520208160782146FEF73D
:10232000E5FF00BFB9E72DE9F0410446154806680E
:10233000002504200D49088000BF3FE0AC000020CC
:1023400088000020491F0108800000208400002030
:10235000426F6F744C6F616465722056312E302E5F
:102360003000000000D000080B2101086E000020A2
:10237000700000206400002066000020680000203B
:102380006C0000207C0000207800002074000020F9
:1023900005F58070B04200DD12E074496818CA1477
:1023A0007349FDF787FC4FF48072714971480088CA
:1023B000FDF7ECF96F49088005F58075B542E7DB5C
:1023C00000BF721B694968186949FDF773FC701BEF
:1023D00082B2674967480088FDF7D8F965490880E7
:1023E000002065490880634800886449098888425C
:1023F00002D003206049088061480068614909688B
:10240000884202D004205C490880A079022802D0CA
:10241000A079032819D100270020A0715648008810
:10242000FFF794F807463812A072E7725148008807
:10243000FFF78CF807463912217367730420208157
:1024400060782146FEF752FF00BFBDE8F08170B50D
:10245000044605204C490880A079022802D0A079C2
:10246000032810D144480088FFF770F80546002083
:10247000A0712812A072E5720220208160782146A6
:10248000FEF734FF00BF70BD70B50446002600257E
:102490002089012803D03C480088052800D1A67A6D
:1024A0003548008808B9012000E00020054628468C
:1024B000FDF75AFCA079032802D0A079022808D1A0
:1024C0000020A071A5720120208160782146FEF7CE
:1024D0000DFF00202C49088016B12448FDF76AFC46
:1024E00070BD7047704710B50446022060702046EA
:1024F000FEF78EFE10B12046FFF7F5FD10BD3EB58C
:10250000002422A0006800900020FFF786FC04460B
:102510000020FEF733FD0546216888471C48A16866
:10252000884702212046FEF7C0FE03208DF80400F4
:1025300000208DF80500ADF806000A20ADF808006F
:10254000022101A8FEF792FD1248FEF7DAFF1248B9
:10255000FFF7F5FC03236A4610A10120FEF79CFD5E
:102560004FF480211148FFF72DF83EBD00D0000840
:10257000C445002078000020700000206C0000207E
:102580007C000020680000206E0000200102030093
:10259000E7240108A40000208C0000204D61696E32
:1025A00020436F6E74726F6C6C6572000B210108B2
:1025B00040EA01039B0703D009E008C9121F08C0C5
:1025C000042AFAD203E011F8013B00F8013B521E45
:1025D000F9D27047421C10F8011B0029FBD1801A68
:1025E0007047034611F8012B00F8012B002AF9D19E
:1025F000184670472DE9F05F0546002092469B463D
:1026000088460646814640241BE028464146474608
:10261000224600F042F853465A46C01A914110D360
:1026200011461846224600F029F82D1A67EB0108DA
:102630004F4622460120002100F020F817EB000948
:102640004E41201EA4F10104DFDC484631462A46F3
:102650004346BDE8F09F0000064C074D06E0E068E9
:1026600040F0010394E8070098471034AC42F6D3D9
:10267000FAF762FD5831010878310108202A04DB9D
:10268000203A00FA02F1002070479140C2F1200385
:1026900020FA03F3194390407047202A04DB203AC4
:1026A00021FA02F00021704721FA02F3D040C2F172
:1026B0002002914008431946704700000FB4054BB3
:1026C00010B503A9044A029800F018F810BC5DF890
:1026D00014FB0000970F0108B000002002E008C8BA
:1026E000121F08C1002AFAD170477047002001E08C
:1026F00001C1121F002AFBD1704700002DE9FF4FD6
:102700008DB00F460546002606E025280BD0DDE9F2
:102710000F1290476D1C761C28780028F5D111B057
:102720003046BDE8F08F0024A246A1460122EA49C6
:1027300000E0044315F8013F203B02FA03F0084291
:10274000F7D128782A2810D06FF02F022878A0F12E
:102750003001092914D80AEB8A0102EB410144F047
:10276000020400EB010A6D1CF0E701CF5FEA000AEA
:1027700003D544F40054CAF1000A44F002046D1C6D
:1027800028782E2817D115F8010F44F004042A28C0
:102790000ED06FF02F022878A0F1300109290AD855
:1027A00009EB890102EB410100EB01096D1CF2E725
:1027B00057F8049B6D1C28786C280FD006DC4C2839
:1027C00017D068280DD06A2814D104E0742810D0DE
:1027D0007A280FD10DE044F400140AE044F4801488
:1027E00001E044F440146978814202D104F5801478
:1027F0006D1C6D1C2A786E2A1FD00CDC632A31D028
:1028000004DC002A8BD0582A11D19FE0642A68D0BA
:10281000692A0CD165E0732A2ED004DC6F2A73D0AC
:10282000702A04D197E0752A6FD0782A6ED01046AE
:10283000DDE90F129047761C4CE1C4F302500228E8
:1028400006D0032809D0042801CF09D0066041E151
:1028500001CFF117C0E900613CE101CF068039E109
:10286000067037E117F8040B8DF8000000208DF892
:102870000100EB46012003E057F804BB4FF0FF30A6
:1028800061074FF0000102D40DE008F10101884614
:1028900049450FDA8045F8DB1BF808100029F4D110
:1028A00008E008F1010188468142FADB1BF80810B4
:1028B0000029F6D1DDE90F23AAEB08008146214665
:1028C00000F032F9304400EB080604E0DDE90F12B5
:1028D0001BF8010B9047B8F10108F7D22146484692
:1028E000F3E00A21C4F302534FF0000B0891022BCE
:1028F00004D001CFC117032B09D00AE0FF1D27F038
:102900000707F7E8020108E02EE01DE01EE000B234
:10291000C117042B01D140B2C117002907DA4FF0CB
:10292000000CD0EB0C006CEB01012D2302E0230521
:1029300004D52B238DF82430012303E0E30701D0D5
:102940002023F7E7984656E00A210EE010204FF0CA
:10295000000B08900CE010214FF0000B44F0040431
:102960004FF00809089103E008214FF0000B08918F
:10297000C4F30253022B04D001CF0021032B06D055
:1029800006E0FF1D27F00707F7E8020103E080B229
:10299000042B00D1C0B24FF0000823072BD5702ABA
:1029A00007D0DDF820C08CF0100C5CEA0B0C05D0D1
:1029B0000EE040238DF82430012308E050EA0103A3
:1029C00006D030238DF824308DF825200223984638
:1029D000DDF820C08CF0080C5CEA0B0C0BD150EA3F
:1029E000010301D1630706D530238DF824304FF061
:1029F0000108A9F10109582A04D038A20B9208AAAB
:102A00000A920BE03AA2F9E75B46089AFFF7F2FD5B
:102A10000B9B9B5C0A9A521E0A92137050EA0102A9
:102A2000F2D10A98ADEB000000F1200B600702D54F
:102A300024F4803401E04FF00109D94502DDA9EB0F
:102A40000B0000E0002000EB0B0141440890AAEBD2
:102A5000010AE00306D4DDE90F232146504600F0C9
:102A600063F806444FF0000908E009A911F80900CD
:102A7000DDE90F12904709F10109761CC145F4DB2D
:102A8000E0030CD5DDE90F232146504600F04CF859
:102A9000064404E0DDE90F1230209047761C0899C7
:102AA000481E08900029F5DC08E00A980A99007889
:102AB000491C0A91DDE90F129047761CBBF1000119
:102AC000ABF1010BF1DC21465046DDE90F2300F0AC
