:020000040800F2
:10D000004828002001D4000809D200080BD20008EB
:10D010000FD2000813D2000817D200080000000049
:10D020000000000000000000000000001BD200080B
:10D030001DD20008000000001FD20008990201085C
:10D040001BD400081BD400081BD40008E7220108E9
:10D050001BD400081BD40008F904010817050108B7
:10D060003705010857050108770501081BD400089A
:10D070001BD400081BD400081BD400081BD40008D4
:10D080001BD400081BD400081BD400082B2A01085D
:10D090002D2A01081BD400081BD40008970501089D
:10D0A0001BD40008EB1101081BD400081BD4000896
:10D0B0000D1201082F120108511201081BD400089B
:10D0C0001BD400081BD400081BD400081BD4000884
:10D0D0001BD40008DF1E0108051F01082B1F0108D3
:10D0E0002B0601081BD400081BD400081BD4000821
:10D0F0002D1301081BD400081BD400081BD4000802
:10D100001BD400081BD40008731201081BD40008AC
:10D11000791F01089F1F010895120108B712010825
:10D120001BD400081BD400081BD400081BD4000823
:10D13000DFF80CD006F01EFB0048004791D1000834
:10D1400048280020EFF30980704780F30988704772
:10D15000EFF30880704780F30888704740BA704743
:10D16000C0BA704770B50025002617A11BA006F0B5
:10D1700023FB1BA51126002404E029571DA006F05F
:10D180001BFB641CB442F8D31BA006F015FB70BD5A
:10D1900062B61A481A49086003F084F8002004F0C7
:10D1A000B5FF0468A047FFF7DDFF1E2003F00BF971
:10D1B0004FF4FA61134805F0F3FC06F066FA01E05B
:10D1C00005F0A6FDFCE700004672696D77617265A7
:10D1D00056657273696F6E3A200000002573000077
:10D1E0004170706C696374696F6E2056312E302EF9
:10D1F00030000000256300000D0A000000D0000888
:10D2000008ED00E0BF030108704700BFFEE700BF64
:10D21000FEE700BFFEE700BFFEE7704770477047BC
:10D220000CB50020019000906C48006840F48030FC
:10D230006A49086000BF6948006800F40030009047
:10D240000198401C0190009818B90198B0F5A06FA2
:10D25000F1D16248006800F4003010B10120009064
:10D2600001E0002000900098012843D15C4800684C
:10D2700040F010005A4908600846006820F003009A
:10D2800008600846006840F00200086053484068A3
:10D29000524948600846406848600846406840F483
:10D2A000806048600846406820F47C10486008466A
:10D2B000406840F4E81048600846006840F080701C
:10D2C000086000BF4548006800F000700028F9D0F1
:10D2D0004248406820F003004049486008464068E2
:10D2E00040F00200486000BF3C48406800F00C007D
:10D2F0000828F9D10CBD10B5FFF792FF10BD10B58D
:10D300003648006840F0010034490860084640682B
:10D3100034490840314948600846006832490840AD
:10D320002E4908600846006820F4802008600846FE
:10D33000406820F4FE0048604FF41F008860FFF74B
:10D34000DAFF4FF000602949086010BD10B50021D8
:10D3500000200022214B5B6803F00C0121B104295D
:10D3600006D0082928D107E0214B224C236027E072
:10D370001F4B204C236023E0184B5B6803F47010B4
:10D38000164B5B6803F48032022303EB904022B912
:10D39000194B4343174C23600DE0104B5B6803F4BB
:10D3A000003323B1144B4343124C236003E0104B72
:10D3B0004343104C236003E00D4B0E4C236000BF31
:10D3C00000BF064B5B68C3F303130C4CE15C094BD5
:10D3D0001B68CB40074C236010BD000000100240CA
:10D3E000002002400000FFF8FFFFF6FE08ED00E01D
:10D3F00000127A000000002000093D000400002017
:10D400000648804706480047FEE7FEE7FEE7FEE7DE
:10D41000FEE7FEE7FEE7FEE7FEE7FEE7FFD20008D5
:10D4200031D1000830BF704720BF704740BF704700
:10D4300001DF7047EFF31480704780F31488BFF367
:10D440006F8F7047EFF30980704780F3098870474A
:10D45000EFF30880704780F30888704762B6704722
:10D4600072B67047EFF31080704771B6704761B6BF
:10D470007047EFF31380704780F311887047EFF324
:10D480001280704740BA704700BA70473C49014368
:10D490003C4A1160704770B5002100230F22C47808
:10D4A00004B3384C246804F4E064C4F5E064210A51
:10D4B000C1F10403CA40447804FA03F184781440AB
:10D4C00021430901304C0678A155047804F01F056A
:10D4D0000124AC4005786D11AD0005F1E025C5F8DB
:10D4E000004109E0047804F01F050124AC40274DF9
:10D4F0000678761145F8264070BD254A0A40024359
:10D50000204B1B1F1A60704739B11E4A121D12684A
:10D5100002431C4B1B1D1A6006E01A4A121D1268BA
:10D520008243184B1B1D1A60704710B5FFF798FF18
:10D5300010BD10B5FFF792FF10BD10B5FFF795FFB6
:10D5400010BD10B5FFF793FF10BD10B504462001C4
:10D55000FFF792FF10BD042808D14FF0E0210969C0
:10D5600041F004014FF0E022116107E04FF0E021AB
:10D57000096921F004014FF0E022116170470000B9
:10D580000000FA050CED00E000E400E080E100E0BE
:10D5900080FFFF1F10B5012001F098FC002001F072
:10D5A00095FC10BD2A49086070472949091F086089
:10D5B0007047274984310860704701460020254A9A
:10D5C00010884FF67F4210400843224A108070476F
:10D5D000014600201F4A10884FF680721040084311
:10D5E0001C4A1080704708B500220092194A2C3A54
:10D5F0000092009A02440092009A116008BD08B59A
:10D6000001460020009013482C38009000980844F0
:10D6100000900098008808BD0D489C300068C0B29A
:10D6200070470C480830008840F001000949083173
:10D63000088070470648A0300068C0B270470548AF
:10D640000830008840F00200024908310880704725
:10D6500004860D422C6C004010B50446FE488442FE
:10D6600009D10121480601F024FC00214FF000708F
:10D6700001F01FFC08E00121880601F01AFC0021DE
:10D680004FF0806001F015FC10BD30B5024600205F
:10D690000023146824F002041460146844F00104A8
:10D6A000146000E05B1C546804F001041CB94FF6E0
:10D6B000FF74A342F6D1546804F001040CB90020B1
:10D6C0006CE08C79012C04D1146844F0800414605F
:10D6D00003E0146824F080041460CC79012C04D198
:10D6E000146844F04004146003E0146824F040041B
:10D6F00014600C7A012C04D1146844F020041460E6
:10D7000003E0146824F0200414604C7A012C04D146
:10D71000146844F01004146003E0146824F010044A
:10D7200014608C7A012C04D1146844F0080414604D
:10D7300003E0146824F008041460CC7A012C04D1AE
:10D74000146844F00404146003E0146824F0040432
:10D7500014608C78A407CD7844EA05640D7944EA16
:10D7600005444D7944EA05540D886D1E2C43D4615F
:10D77000146824F001041460002300E05B1C54686A
:10D7800004F001041CB14FF6FF74A342F6D15468B3
:10D7900004F001040CB1002000E0012030BD10B500
:10D7A0000021837A012202FA03F1AC4A126842F0A6
:10D7B0000102AA4B1A60A94A1C3212688A43A74B7D
:10D7C0001C331A60027BCAB9A44A0C3212688A431D
:10D7D000A24B0C331A604288C38842EA03439F4A33
:10D7E0004032847A42F834300288838842EA034324
:10D7F0009A4A4032847A02EBC4025360027B012AC7
:10D8000019D1964A0C3212680A43944B0C331A60B1
:10D810004288038842EA0343904A4032847A42F8BD
:10D820003430C288838842EA03438C4A4032847A87
:10D8300002EBC4025360C27A3AB9884A121D1268D8
:10D840008A43864B1B1D1A6006E0844A121D12682B
:10D850000A43824B1B1D1A60028932B97F4A143277
:10D8600012688A437D4B14331A600289012A06D15B
:10D870007A4A143212680A43784B14331A60427B96
:10D88000012A06D1754A1C3212680A43734B1C33B5
:10D890001A60724A126822F00102704B1A6010BDC1
:10D8A00000218171C171017241728172C1728170F6
:10D8B000C170032101710221417101210180704772
:10D8C0006649096841F00101644A1160114609681E
:10D8D00043F60E729143614A11601146096841EAAC
:10D8E000002111601146096821F0010111607047A3
:10D8F00021B1026842F48032026003E0026822F43F
:10D90000803202607047E1B1026842F0800202603A
:10D910004FF4C272125842F480734FF4C272135023
:10D920004FF4CA72125842F480734FF4CA72135003
:10D930004FF4D272125842F480734FF4D2721350E3
:10D940001BE0026822F0800202604FF4C27212589B
:10D9500022F480734FF4C27213504FF4CA721258FB
:10D9600022F480734FF4CA7213504FF4D2721258DB
:10D9700022F480734FF4D2721350704710B50246F0
:10D980000020936803F08063B3F1806F00D110E052
:10D99000936803F00063B3F1006F01D1012008E048
:10D9A000936803F08053B3F1805F01D1022000E05F
:10D9B0000420042879D002F5C07303EB00131B6820
:10D9C00003F0010402F5C07303EB00131C600B7A33
:10D9D0007BB94B7A0C8843EA445302F5C07404EBDC
:10D9E00000142468234302F5C07404EB0014236080
:10D9F00010E00B7A4C6843EAC4034C7A234302F5E7
:10DA0000C07404EB00142468234302F5C07404EBD3
:10DA1000001423608B7A03F00F038B7202F5C0733E
:10DA200003EB00135B6823F00F0402F5C07303EBF4
:10DA300000135C6002F5C07303EB00135B688C7A23
:10DA4000234302F5C07404EB001463608B7B1C0657
:10DA50004B7B44EA034403E000640040006600405E
:10DA60000B7B44EA0323CC7A234302F5C07404EB16
:10DA70000014A3608B7C1C064B7C44EA03440B7CA3
:10DA800044EA0323CC7B234302F5C07404EB001467
:10DA9000E36002F5C07303EB00131B6843F001045D
:10DAA00002F5C07303EB00131C6010BD10B50246F5
:10DAB000002321B1012907D002290FD109E0906884
:10DAC000F94C00EA04030BE09068F84C00EA040308
:10DAD00006E09068F64C00EA040301E0002300BF72
:10DAE00000BFF44C181BA34216D007DC83B16FF0C3
:10DAF0008060184470B1022818D111E0B0F5007FA1
:10DB000010D0ED4C204448B1B0F5003F0ED10BE0F1
:10DB100002230DE000230BE0002309E0002307E0CF
:10DB2000012305E0012303E0012301E0002300BFFE
:10DB300000BFD8B210BD21B1012907D002290FD1F1
:10DB400009E0826842F0800282600AE0826842F462
:10DB50000042826005E0826842F40002826000E0D8
:10DB600000BF00BF704710B500F5D87303EB011379
:10DB70001B6803F004031372137A53B900F5D873CA
:10DB800003EB01131B6840F2FF7404EA5353136064
:10DB900009E000F5D87303EB01131B686FF06044D4
:10DBA00004EAD303536000F5D87303EB01131B6839
:10DBB00003F00203537200F5D87303EB01135B68A3
:10DBC00003F00F03937200F5D87303EB01135B6846
:10DBD0001B0AD37400F5D87303EB01139B68D3724F
:10DBE00000F5D87303EB01139B681C0A147300F54E
:10DBF000D87303EB01139B681C0C547300F5D873A6
:10DC000003EB01139B681B0E937300F5D87303EBB2
:10DC10000113DB68D37300F5D87303EB0113DB68E2
:10DC20001C0A147400F5D87303EB0113DB681C0C99
:10DC3000547400F5D87303EB0113DB681B0E937467
:10DC400021B9C36843F02003C36003E0036943F0D4
:10DC50002003036110BD21B9C26842F02002C260F6
:10DC600003E0026942F02002026170470246002090
:10DC700019B9D36803F0030006E0012903D1136941
:10DC800003F0030000E00020704710B502460B4689
:10DC900000204FF6FF71BBB9146824F0020444F071
:10DCA0000104146000E0491E546804F00304012CD0
:10DCB00001D00029F7D1546804F00304012C01D0ED
:10DCC000002032E0012030E0012B13D1146824F051
:10DCD0000304146000E0491E546804F003040CB10E
:10DCE0000029F8D1546804F003040CB100201CE0B2
:10DCF00001201AE0022B17D1146824F0010444F02B
:10DD00000204146000E0491E546804F00304022C6D
:10DD100001D00029F7D1546804F00304022C01D08B
:10DD2000002002E0012000E0002010BD014600209C
:10DD30000A6822F0010242F002020A604A6802F018
:10DD40000302022A00D10120704701464FF6FF72FC
:10DD500000200B6823F002030B6000E0521E4B68AA
:10DD600003F00203022B01D1002AF7D14B6803F024
:10DD70000203022B00D001207047014600208A696F
:10DD800002F070007047014600208A69100E70474B
:10DD9000014600208A69C2F3074070471AB14369FF
:10DDA0000B43436102E043698B434361704710B505
:10DDB0000246002001F4700343B19369C1F31304D8
:10DDC00023400BB101202DE000202BE001F08073F7
:10DDD00043B15368C1F3130423400BB1012021E088
:10DDE00000201FE001F0006343B19368C1F3130406
:10DDF00023400BB1012015E0002013E001F0007377
:10DE000043B1D368C1F3130423400BB1012009E0EF
:10DE1000002007E01369C1F3130423400BB1012074
:10DE200000E0002010BD0022244B994202D10023C3
:10DE3000836111E0C1F3130201F000730BB1C26002
:10DE40000AE001F080630BB1026105E001F00063BC
:10DE50000BB1826000E0426070470246002002EA97
:10DE600001030BB1012000E00020704770B50446AB
:10DE70000D46002660692840002872D0B5F5807FE5
:10DE800069D01DDC082D42D006DC012D2DD0022DDD
:10DE900031D0042D7FD134E0102D3ED0202D42D042
:10DEA000402D78D145E00000030000040003000885
:10DEB00000000310000100080001FFF77000F030BF
:10DEC000B5F5004F61D009DCB5F5007F4AD0B5F556
:10DED000806F4DD0B5F5006F5DD150E0B5F5803F56
:10DEE0002DD0B5F5003F56D12FE0A0685549FFF77A
:10DEF000B4FF064651E0E0680321FFF7AEFF064697
:10DF00004BE0E0680821FFF7A8FF064645E0E0681F
:10DF10001021FFF7A2FF06463FE020690321FFF72B
:10DF20009CFF064639E020690821FFF796FF064668
:10DF300033E020691021FFF790FF06462DE060686E
:10DF40000821FFF78AFF064627E060681021FFF7E7
:10DF500084FF064621E0A0690121FFF77EFF064607
:10DF60001BE01BE0A0690221FFF777FF064614E0E3
:10DF7000A0690421FFF771FF06460EE00BE0A069DF
:10DF80007021FFF76AFF064607E060680421FFF78B
:10DF900064FF064601E0002600BF00E00026304690
:10DFA00070BDB1F5007F3AD00FDC202928D006DC07
:10DFB00001291CD004291DD0082940D11DE0402989
:10DFC00021D0B1F5807F3AD126E0B1F5004F31D0B4
:10DFD00006DCB1F5806F25D0B1F5006F2FD124E0BC
:10DFE000B1F5803F12D0B1F5003F28D111E0154ABC
:10DFF000826025E00822C26022E01022C2601FE099
:10E00000082202611CE01022026119E0082242602D
:10E0100016E01022426013E00422426010E0042265
:10E0200042600DE0042242600AE000228261042284
:10E03000426005E0002282610422426000E000BFED
:10E0400000BF704701010100002044490860091D1C
:10E050000860091D0860091D086041483F491431E6
:10E060000860704700213D498279002A3AD00A466B
:10E07000126803689A430B461A600A1D1268036807
:10E080009A430B1D1A60027911440A6803681A4307
:10E090000A60324A0832126803689A432F4B0833E9
:10E0A0001A601A1D126803689A432C4B0C331A60CD
:10E0B0004279102A0ED11A1F126803681A43274B9F
:10E0C00008331A601A1D126803681A43234B0C3375
:10E0D0001A600DE02149427911440A6803681A4325
:10E0E0000A6005E0027911440A6803689A430A60ED
:10E0F00070470021016001710C2141710021817183
:10E1000070471649103109680143144A10321160F2
:10E11000704701460020114A143212680A400AB1C1
:10E12000012000E0002070470C491431086070475E
:10E13000014600200022094B1B6803EA0102074B3D
:10E1400014331B680B4013B10AB1012000E000201A
:10E150007047024914310860704700000004014014
:10E16000FFFF0F0001460020FE4A106800F0380053
:10E17000084310607047FB49096821F00801F94A1B
:10E18000116011460968014311607047F54909683B
:10E1900021F01001F34A1160114609680143116032
:10E1A0007047F148EF494860F04848607047EE48D2
:10E1B000EC494860ED4848607047EA48006940F023
:10E1C0008000E84908617047E648006940F0800037
:10E1D000E449086170470420E249C96801F001017F
:10E1E00009B101200EE0DF49C96801F0040109B15D
:10E1F000022007E0DB49C96801F0100109B10320E2
:10E2000000E00420704700B502460423FFF7E3FF57
:10E21000034603E0FFF7DFFF0346521E012B01D147
:10E22000002AF7D102B90523184600BD30B50446CF
:10E2300004254FF43020FFF7E6FF0546042D17D1E3
:10E24000C848006940F00200C649086108464461B8
:10E25000006940F0400008614FF43020FFF7D3FF21
:10E260000546C048006941F6FD710840BD49086196
:10E27000284630BD10B504244FF43020FFF7C3FF0B
:10E280000446042C16D1B748006940F00400B54993
:10E2900008610846006940F0400008614FF43020F2
:10E2A000FFF7B1FF0446AF48006941F6FB71084033
:10E2B000AC490861204610BD00B502460423FFF7B3
:10E2C0008AFF034603E0FFF786FF0346521E012B39
:10E2D00001D1002AF7D102B90523184600BD10B5B7
:10E2E00004244FF43020FFF7E7FF0446042C16D136
:10E2F0009C48006940F004009A490861084600699A
:10E3000040F0400008614FF43020FFF7D5FF04468D
:10E310009448006941F6FB71084092490861204623
:10E3200010BD00208F49C96901F0020109B1012027
:10E3300000E00020704730B5A5250424FFF7F1FF69
:10E3400000B100254FF43020FFF75DFF0446042C98
:10E350003AD18548834988608448886008460069C6
:10E3600040F0200008610846006940F04000086164
:10E370004FF43020FFF747FF0446042C1BD17948A7
:10E38000006941F6DF710840764908610846006976
:10E3900040F01000086176480580E002FFF733FF87
:10E3A0000446052C10D06F48006941F6EF71084013
:10E3B0006C49086108E0052C06D06A48006941F6FE
:10E3C000EF71084067490861204630BD78B50646C0
:10E3D0000C46042500200090E802FFF714FF0546D4
:10E3E000042D24D15F48006940F001005D490861B7
:10E3F0003480E802FFF707FF0546042D10D1B01C5A
:10E400000090200C00990880E802FFF7FCFE05460A
:10E410005448006941F6FE7108405249086106E01F
:10E420005048006941F6FE7108404E49086128468F
:10E4300078BD70B504460D460426F002FFF7E3FEF2
:10E440000646042E11D14748006940F001004549B5
:10E4500008612580F002FFF7D6FE064641480069B4
:10E4600041F6FE7108403F490861304670BD70B505
:10E4700005460E460424E002FFF7C5FE0446042CC0
:10E4800017D139483749886038488860084600699C
:10E4900040F0100008612E80E002FFF7B4FE044651
:10E4A000052C06D02F48006941F6EF7108402D4930
:10E4B0000861204670BD2DE9F04304464FF6FF7613
:10E4C0003746B046B1460425E443E6B2C4F3072715
:10E4D000C4F307484FEA1469E802FFF794FE0546C3
:10E4E000042D49D120481F4988602048886008468B
:10E4F000006940F010000861FF2E06D01C4808306B
:10E500000680E802FFF77FFE0546042D08D1FF2FA5
:10E5100006D017480A300780E802FFF774FE054668
:10E52000042D0AD1B8F1FF0F07D011480C30A0F824
:10E530000080E802FFF767FE0546042D0AD1B9F115
:10E54000FF0F07D00A480E30A0F80090E802FFF74E
:10E550005AFE0546052D0FD00248006941F6EF71BD
:10E56000084007E00020024023016745AB89EFCD5A
:10E5700000F8FF1F664908612846BDE8F08330B502
:10E58000054604244FF43020FFF73DFE0446042CDA
:10E5900041D160485E4988605F48886008460069EC
:10E5A00040F0200008610846006940F04000086122
:10E5B0004FF43020FFF727FE0446042C22D15448A4
:10E5C000006941F6DF710840514908610846006959
:10E5D00040F0100008611DB100205049088002E0A1
:10E5E000A5204E4908804FF43020FFF70CFE04466A
:10E5F000052C10D04648006941F6EF7108404449A7
:10E60000086108E0052C06D04148006941F6DF7139
:10E6100008403F490861204630BDF0B505460E462A
:10E62000174604243B483A4988603B488860E0022A
:10E63000FFF7E9FD0446042C19D13548006940F084
:10E6400010003349086147F0F8003043284333494C
:10E65000891C0880E002FFF7D6FD0446052C06D091
:10E660002B48006941F6EF710840294908612046AE
:10E67000F0BD2748C069800870472548006A704788
:10E6800000202349096801F0200109B1012000E0C0
:10E690000020704729B11E4A126902431C4B1A61BF
:10E6A00004E01B4A12698243194B1A617047014604
:10E6B0000020012908D1164AD26902F001020AB1EC
:10E6C000012008E0002006E0114AD2680A400AB1A1
:10E6D000012000E0002070470D49C8607047042009
:10E6E0000B49C96801F0010109B101200EE0084998
:10E6F000C96801F0040109B1022007E00449C968B2
:10E7000001F0100109B1032000E00420704700006F
:10E710000020024023016745AB89EFCD00F8FF1FC1
:10E7200010B50446CC48844208D10121042000F0F1
:10E73000B3FB0021042000F0AFFB46E0C748844251
:10E7400008D10121082000F0A7FB0021082000F0DB
:10E75000A3FB3AE0C248844208D10121102000F016
:10E760009BFB0021102000F097FB2EE0BD48844267
:10E7700008D10121202000F08FFB0021202000F093
:10E780008BFB22E0B848844208D10121402000F0F0
:10E7900083FB0021402000F07FFB16E0B348844259
:10E7A00008D10121802000F077FB0021802000F0BB
:10E7B00073FB0AE0AE48844207D10121801500F0C6
:10E7C0006BFB0021A01500F067FB10BD10B5012107
:10E7D000084600F061FB0021012000F05DFB10BD48
:10E7E0002DE9F041024600250026002000230024E8
:10E7F000002791F803C00CF00F0591F803C00CF04E
:10E80000100CBCF1000F03D091F802C04CEA0505D2
:10E8100091F800C0BCF1000F31D0146800202BE04B
:10E820004FF0010C0CFA00F3B1F800C00CEA03063B
:10E830009E4220D183004FF00F0C0CFA03F7BC432B
:10E8400005FA03FC4CEA040491F803C0BCF1280F5C
:10E8500006D14FF0010C0CFA00FCC2F814C00AE01B
:10E8600091F803C0BCF1480F05D14FF0010C0CFA30
:10E8700000FCC2F810C0401C0828D1D31460B1F8C5
:10E8800000C0BCF1FF0F34DD546800202EE000F121
:10E89000080C4FF0010808FA0CF3B1F800C00CEABC
:10E8A00003069E4221D183004FF00F0C0CFA03F7B0
:10E8B000BC4305FA03FC4CEA040491F803C0BCF124
:10E8C000280F05D100F1080C08FA0CF8C2F81480E2
:10E8D00091F803C0BCF1480F07D100F1080C4FF0CC
:10E8E000010808FA0CF8C2F81080401C0828CED3A2
:10E8F0005460BDE8F0814FF6FF7101800221817004
:10E900000421C17070470246002093680B400BB190
:10E91000012000E0002070470146886880B27047FF
:10E9200002460020D3680B400BB1012000E000201C
:10E9300070470146C86880B2704701617047416105
:10E9400070470AB1016100E041617047C1607047E2
:10E950004FF480320A4382618161826182698269F7
:10E96000704702460020434B18684FF680731840EA
:10E9700040EA021008433F4B186070473E49C861A7
:10E980007047F0B50A46002300240021002500F05E
:10E990000046B6F1004F02D1364EF16901E0354E26
:10E9A0007168C0F3034583B200F44016B6F5401F0A
:10E9B00008D121F070612F4E766826F070662D4FD9
:10E9C0007E6012E000F48016B6F5801F06D10326A3
:10E9D00006FA05F4A14341F0706106E0460D3601E8
:10E9E00003FA06F6B14341F0706122B1460D3601DB
:10E9F00003FA06F6314300F00046B6F1004F02D1AB
:10EA00001C4EF16101E01B4E7160F0BD30B500227B
:10EA10008B071C0F0F2303FA04F2164B08338C10DC
:10EA200053F824309343134C08348D1044F82530A8
:10EA300023468C1053F824308C07240F00FA04F47A
:10EA400023430C4C08348D1044F8253030BD0A495E
:10EA5000DC3108607047000000080140000C0140F4
:10EA6000001001400014014000180140001C01404A
:10EA70000020014000000140000020420E490860D3
:10EA800070470D49486070470B49886070474AF6E7
:10EA9000AA200949086070474CF6CC400649086036
:10EAA000704701460020044AD2680A400AB101209A
:10EAB00000E00020704700000030004010B5012148
:10EAC000080700F0F6F900214FF0805000F0F1F94E
:10EAD00010BD2A49086270472849086170470146FD
:10EAE0000020274A106820F0E000084310607047BB
:10EAF0002249A0310860704710B502460020204B23
:10EB0000186820F00300104318601E4B1B6843F088
:10EB100004031C4C2360012901D130BF00E020BF59
:10EB2000184B1B6823F00403164C236010BD1448D7
:10EB3000006840F00400124908600846006840F090
:10EB4000020008600F48006840F004000D490860AA
:10EB500000BF00BF30BF704701460020084A52681E
:10EB60000A400AB1012000E000207047044909680A
:10EB700041EA8001024A11607047000000000E4225
:10EB80000070004010ED00E0DF48006840F0010038
:10EB9000DD49086008464068DC490840DA494860B9
:10EBA00008460068DA490840D74908600846006806
:10EBB00020F4802008600846406820F4FE00486089
:10EBC0004FF41F0088607047CF49096821F48031F5
:10EBD000CD4A11601146096821F480211160B0F519
:10EBE000803F03D0B0F5802F0ED106E0C6490968FA
:10EBF00041F48031C44A116007E0C349096841F417
:10EC0000A021C14A116000E000BF00BF704710B5ED
:10EC100001460022002300204A11012A02D1BA4CE9
:10EC2000236806E0022A02D1B74C236A01E0B64C01
:10EC3000636A01F01F02012494401C400CB10120C2
:10EC400000E0002010BD38B5002000900024002511
:10EC500000BF3120FFF7DBFF05460098401C009005
:10EC60000098B0F5A06F01D0002DF2D03120FFF751
:10EC7000CEFF08B1012400E00024204638BD014643
:10EC80000020A14A106820F0F80040EAC10010609E
:10EC90007047A04908607047024600209A4B5868A8
:10ECA00020F47C1042EA01031843974B58607047E8
:10ECB00098490866704701460020934A506820F042
:10ECC00003000843506070478F48406800F00C0014
:10ECD0007047014600208C4A506820F0F00008433D
:10ECE0005060704701460020874A506820F4E06079
:10ECF00008435060704701460020834A506820F462
:10ED0000605040EAC1005060704729B17E4A527A93
:10ED100002437D4B5A7204E07B4A527A82437A4B1B
:10ED20005A7270477B49D83108607047014600200D
:10ED3000754A506820F440400843506070470021F5
:10ED4000714A20321170704A82F82010012802D0D6
:10ED500004280AD104E001216B4A2032117005E039
:10ED60000521694A2032117000E000BF00BF7047E2
:10ED70006949086070476449096A0143624A11623F
:10ED80007047654944390860704730B5002100225A
:10ED9000002400235C4D6D6805F00C0121B10429AD
:10EDA00005D0082923D105E05C4D056022E05B4DCC
:10EDB00005601FE0544D6D6805F47012524D6D688A
:10EDC00005F48034022505EB92421CB9544D55439D
:10EDD00005600BE04C4D6D6805F400351DB1504DDC
:10EDE0005543056002E04D4D5543056002E04B4D33
:10EDF000056000BF00BF444D6D6805F0F0010909D2
:10EE0000484D6B5C0568DD4045603F4D6D6805F41D
:10EE1000E061090A434D6B5C4568DD4085603A4D11
:10EE20006D6805F46051C90A3E4D6B5C4568DD4074
:10EE3000C560354D6D6805F44041890B3A4D6B5CFA
:10EE4000C568B5FBF3F5056130BD29B12E4A52699D
:10EE500002432D4B5A6104E02B4A526982432A4BEC
:10EE60005A61704729B1284A92690243264B9A6138
:10EE700004E0254A92698243234B9A61704729B185
:10EE8000214AD2690243204BDA6104E01E4AD2696A
:10EE900082431D4BDA61704729B11B4AD268024395
:10EEA000194BDA6004E0184AD2688243164BDA60E4
:10EEB000704729B1144A12690243134B1A6104E0E6
:10EEC000114A12698243104B1A6170471249403946
:10EED000086070470F49C86470470B49C871704794
:10EEE0000948406A40F0807007494862704701460F
:10EEF0000020054A92680A400AB1012000E0002083
:10EF00007047014988727047001002400000FFF806
:10EF1000FFFFF6FE000042428004424200127A00E7
:10EF200000093D00140000202400002029B1504AAF
:10EF3000128802434E4B1A8004E04D4A12888243E5
:10EF40004B4B1A8070474A48001D008840F0100063
:10EF50004749091D088070474548001D00884FF645
:10EF6000EF7108404249091D088070470021404860
:10EF70001C300188001F008841EA0040704700B53E
:10EF80000246FFF7E0FF100C394918310880091DCF
:10EF90000A80FFF7E1FF00BD00B50246FFF7D3FF8F
:10EFA000C2F30340324908310880091D0A80FFF787
:10EFB000D3FF00BD00B50246FFF7C5FF100C2C497A
:10EFC00020310880091D0A80FFF7C6FF00BD002020
:10EFD0002749103109880907080B25491431098888
:10EFE0000843704700BF2248001D008800F0200041
:10EFF0000028F8D070471E48001D00884FF6F771B2
:10F0000008401B49091D088000BF1948001D0088E1
:10F0100000F008000028F8D0704701460020144A8C
:10F02000121D12880A400AB1012000E0002070473A
:10F030000F49091D098881430D4A121D118070472F
:10F04000014600200A4A121D12880A40D0B2084A1E
:10F0500012880A4012B108B1012000E00020704778
:10F060000349091D09888143014A121D1180704717
:10F070000028004010B50446FE48844208D1012112
:10F08000C014FFF709FF0021E014FFF705FFC4E0FB
:10F09000B4F1804F08D101210846FFF70AFF002193
:10F0A0000120FFF706FFB8E0F348844208D10121B0
:10F0B0000220FFF7FEFE00210220FFF7FAFEACE07F
:10F0C000EE48844208D101210420FFF7F2FE00211E
:10F0D0000420FFF7EEFEA0E0E948844208D10121B8
:10F0E0000820FFF7E6FE00210820FFF7E2FE94E08B
:10F0F000E448844208D101211020FFF7DAFE002104
:10F100001020FFF7D6FE88E0DF48844208D10121B5
:10F110002020FFF7CEFE00212020FFF7CAFE7CE072
:10F12000DA48844208D101214014FFF7B5FE0021DE
:10F130006014FFF7B1FE70E0D548844209D1012187
:10F14000C804FFF7A9FE00214FF40020FFF7A4FE3A
:10F1500063E0D048844209D101210805FFF79CFEF5
:10F1600000214FF48010FFF797FE56E0CA48844212
:10F1700009D101214805FFF78FFE00214FF400104F
:10F18000FFF78AFE49E0C548844208D101214020AA
:10F19000FFF78FFE00214020FFF78BFE3DE0C048C7
:10F1A000844208D101218020FFF783FE00218020C6
:10F1B000FFF77FFE31E0BB48844208D10121801572
:10F1C000FFF777FE0021A015FFF773FE25E0B64894
:10F1D000844209D101210804FFF75EFE00214FF4AB
:10F1E0008030FFF759FE18E0B048844209D1012170
:10F1F0004804FFF751FE00214FF40030FFF74CFEAA
:10F200000BE0AB48844208D101218804FFF744FE9B
:10F2100000214FF48020FFF73FFE10BD002202883E
:10F22000944B98420ED0994B98420BD0B0F1804F3E
:10F2300008D0914B984205D0904B984202D0904B09
:10F24000984204D14FF68F731A404B881A438D4B66
:10F25000984207D08C4B984204D04FF6FF431A4097
:10F26000CB881A4302808B8883850B880385814B6A
:10F2700098420BD0854B984208D08B4B984205D0D2
:10F280008A4B984202D08A4B984201D10B7A03866E
:10F2900001238382704770B5002400220023058C6F
:10F2A0004FF6FE7635400584028C8388048B4FF63A
:10F2B0008F752C40B51E2C400D882C43751E2A409E
:10F2C0000D892A434D882A436A4DA8420BD06F4DC1
:10F2D000A84208D0744DA84205D0744DA84202D06F
:10F2E000734DA84213D14FF6F7752A404D892A4332
:10F2F0004FF6FB752A408D882A434FF6FF652B4059
:10F300004FF6FF552B408D892B43CD892B438380AE
:10F310000483CD888586028470BD70B500240022E8
:10F320000023058C4FF6EF7635400584028C8388E8
:10F33000048B48F6FF752C404FF6FF452C400D8896
:10F340004FF6FF7606EA05252C434FF6DF752A4077
:10F350000D8906EA05152A434D8806EA05152A4354
:10F36000444DA84202D0494DA8421DD14FF67F75A9
:10F370002A404D894FF6FF7606EA05152A434FF6D7
:10F38000BF752A408D8806EA05152A434FF6FF35DA
:10F390002B404FF2FF752B408D8906EA85052B43E4
:10F3A000CD8906EA85052B4383800483CD880587B4
:10F3B000028470BD70B5002400220023058C4FF636
:10F3C000FF6635400584028C8388848B4FF68F75E9
:10F3D0002C404FF6FC752C400D882C434FF6FF5502
:10F3E0002A400D894FF6FF7606EA05252A434D8807
:10F3F00006EA05252A431F4DA84202D0234DA84204
:10F400001DD14FF2FF752A404D894FF6FF7606EA6F
:10F4100005252A434FF6FF352A408D8806EA052543
:10F420002A434EF6FF752B404DF6FF752B408D8914
:10F4300006EA05152B43CD8906EA05152B43838083
:10F440008483CD888587028470BD70B50022002337
:10F450000024058C4EF6FF7635400584038C8488A5
:10F46000828B48F6FF752A404FF6FF452A400D88EB
:10F4700020E00000002C0140000400400008004093
:10F48000000C004000100040001400400034014017
:10F49000004C014000500140005401400018004061
:10F4A000001C00400020004000400140004401409A
:10F4B000004801404FF6FF7606EA05252A434DF63F
:10F4C000FF752B400D8906EA05352B434D8806EA6A
:10F4D00005352B43FA4DA84202D0FA4DA84208D177
:10F4E0004BF6FF752C408D894FF6FF7606EA8515A1
:10F4F0002C4384808283CD88A0F84050038470BD63
:10F50000828B4FF2FF331A408283828B4FF6FF7358
:10F5100003EA01231A4382837047F0B50C4615466F
:10F52000002200210026078C4EF6FF7C07EA0C071C
:10F530000784828B018C4FF6FF7707EA043640F68A
:10F54000FF473A404FF6FF7707EA05273A434FF661
:10F55000FF7707EA03373A43D94FB8420ED0D94F65
:10F56000B8420BD0B0F1804F08D0D74FB84205D089
:10F57000D64FB84202D0D64FB84206D14DF6FF77EB
:10F58000394046F48057394305E047F6FF57394084
:10F5900044F48057394382830184F0BD828B4FF657
:10F5A000F3731A408283828B0A4382837047F0B5DB
:10F5B0000C461546002200210026078C4FF6FF6CF2
:10F5C00007EA0C070784828B018C4FF6FF7707EA66
:10F5D00004264FF60C773A404FF6FF7707EA0317F9
:10F5E0002F433A43B64FB8420ED0B64FB8420BD075
:10F5F000B0F1804F08D0B44FB84205D0B34FB842F5
:10F6000002D0B34FB84206D14FF6FF57394046F407
:10F610008077394305E04FF2FF57394044F4807753
:10F62000394382830184F0BD028B4FF2FF331A40CD
:10F630000283028B4FF6FF7303EA01231A4302830E
:10F640007047F0B50C461546002200210026078CB5
:10F650004FF6EF7C07EA0C070784028B018C4FF60C
:10F66000FF7707EA041640F6FF473A404FF6FF7768
:10F6700007EA03373A434FF6FF7707EA05273A438D
:10F680008F4FB8420ED08F4FB8420BD0B0F1804FA1
:10F6900008D08D4FB84205D08C4FB84202D08C4F65
:10F6A000B84206D14FF6DF77394046F010073943AC
:10F6B00005E04FF65F77394044F010073943028385
:10F6C0000184F0BD028B4FF6F3731A400283028B64
:10F6D0000A4302837047F0B50C461546002200210C
:10F6E000068C4FF6FE773E400684028B018C4FF667
:10F6F0000C7632407E1C06EA03162E433243704ECF
:10F70000B0420ED06F4EB0420BD0B0F1804F08D057
:10F710006D4EB04205D06D4EB04202D06C4EB0423C
:10F7200006D14FF6FD76314044F00106314305E045
:10F730004FF6F576314044F00106314302830184EF
:10F74000F0BD70B505460C465D4885420ED05D485B
:10F7500085420BD0B5F1804F08D05B48854205D07B
:10F760005A48854202D05A48854200D100E000BF85
:10F77000208850B92389A28861882846FFF7ABFF0B
:10F78000E1882846FFF79EFF25E0208804280AD15B
:10F790002389A28861882846FFF753FFE18828461D
:10F7A000FFF742FF17E0208808280AD12389A288A2
:10F7B00061882846FFF7FBFEE1882846FFF7EEFE4A
:10F7C00009E02389A28861882846FFF7A6FEE18820
:10F7D0002846FFF795FE70BD2DE9F04105460C4621
:10F7E00000260127608808B9022600E00026A088CC
:10F7F000012801D1022700E001272088A0B9238930
:10F80000A28861882846FFF766FFE1882846FFF74F
:10F8100059FF23893A4631462846FFF712FFE1880F
:10F820002846FFF701FF13E02389A2886188284654
:10F83000FFF707FFE1882846FFF7F6FE23893A46DF
:10F8400031462846FFF747FFE1882846FFF73AFF91
:10F85000BDE8F0810A884B881A438B881A43CB880D
:10F860001A430B891A434B891A438B891A43A0F810
:10F87000442070474FF6FF71818000210180C180D4
:10F880004180017270470021018041808180C180E8
:10F89000018141818181C1817047002101804180C6
:10F8A000012181800021C1800181704700210180F8
:10F8B00041808180C1800181418181817047000048
:10F8C000002C0140003401400004004000080040CA
:10F8D000000C004021B1028842F00102028004E0E5
:10F8E00002884FF6FE731A400280704731B1B0F8BB
:10F8F000442042F40042A0F8442005E0B0F844203F
:10F90000C2F30E02A0F8442070471AB183890B435A
:10F91000838102E083898B438381704781827047B2
:10F9200041EA0203A0F8483070471AB183890B43BB
:10F93000838102E083898B438381704701894FF67D
:10F94000F8721140018170470A46002101894FF683
:10F950008F73194011430181704730B504460D463D
:10F9600029462046FFF7F0FF208940F0070020815C
:10F9700030BD2DE9F04104460D4616461F46602D68
:10F9800006D13B46012231462046FFF75AFE05E0EC
:10F990003B46012231462046FFF79DFE2946204680
:10F9A000FFF7D2FF208940F007002081BDE8F081F9
:10F9B00030B50C4600210189C9B24FF6FF7505EA42
:10F9C0000325154325432943018130BD2DE9F0412D
:10F9D00005460E4617469846002443463A463146A9
:10F9E0002846FFF7E5FF2C894FF6F870044044F0F5
:10F9F00007044FF68F70044044F070042C81BDE87A
:10FA0000F081F0B504460D4616461F463B46324689
:10FA100029462046FFF7CCFF208940F48040208112
:10FA2000F0BD0185828270470A46002101884FF6A9
:10FA30008F731940114301807047F0B50C4615468D
:10FA40001E460021002200230189028B038C4FF601
:10FA5000F877394021434FF6FC473A4040F201170E
:10FA60003A434FF6DD773B404FF6FF7707EA06173C
:10FA70002F433B43018102830384F0BD0A460021EA
:10FA8000018B4FF68F7319401143018370470A466B
:10FA90000021018B48F6FF7319404FF6FF7303EA0C
:10FAA00002231943018370470A460021818B4FF6D8
:10FAB0008F7319401143818370470A460021818B5F
:10FAC00048F6FF7319404FF6FF7303EA0223194308
:10FAD0008183704721B1028842F08002028004E0F5
:10FAE00002884FF67F731A400280704721B18288E6
:10FAF00042F00402828004E082884FF6FB731A40D1
:10FB00008280704721B1828842F00802828004E03E
:10FB100082884FF6F7731A408280704721B182883D
:10FB200042F00102828004E082884FF6FE731A40A0
:10FB3000828070470A460021018B4FF6F773194007
:10FB40001143018370470A460021018B4FF2FF7376
:10FB500019404FF6FF7303EA0223194301837047EC
:10FB60000A460021818B4FF6F773194011438183B8
:10FB700070470A460021818B4FF2FF7319404FF600
:10FB8000FF7303EA02231943818370470A46002169
:10FB9000018B4FF6FB7319401143018370470A46EE
:10FBA0000021018B4FF6FF3319404FF6FF7303EA34
:10FBB00002231943018370470A460021818B4FF6C7
:10FBC000FB7319401143818370470A460021818BE2
:10FBD0004FF6FF3319404FF6FF7303EA0223194330
:10FBE000818370470A460021018B4FF67F731940CD
:10FBF0001143018370470A460021018BC1F30E01B6
:10FC00004FF6FF7303EA02231943018370470A4644
:10FC10000021818B4FF67F73194011438183704718
:10FC20000A460021818BC1F30E014FF6FF7303EAF0
:10FC300002231943818370470A460021018C4FF645
:10FC4000FD7319401143018470470A460021018C5D
:10FC50004FF6F77319401143018470470A4600219B
:10FC6000018C4FF6DF7319404FF6FF7303EA02135E
:10FC70001943018470470A460021018C4FF67F73B7
:10FC800019404FF6FF7303EA0213194301847047CA
:10FC90000A460021018C4FF6FF5319404FF6FF73BF
:10FCA00003EA02231943018470470A460021018CAC
:10FCB0004FF2FF7319404FF6FF7303EA0223194313
:10FCC000018470470A460021018C4DF6FF731940EC
:10FCD0004FF6FF7303EA023319430184704730B5CE
:10FCE000002301248C40A3B2048C9C430484048C24
:10FCF00002FA01F5ADB22C43048430BD30B50023C7
:10FD000004248C40A3B2048C9C430484048C02FA27
:10FD100001F5ADB22C43048430BD70B5034600201C
:10FD200000241846183001258D40ACB21D8CA54327
:10FD30001D8409B1082909D100EB6100056825F08F
:10FD4000700505600568154305600EE00D1FC5F3DD
:10FD50004E052844056825F4E045056005684FF622
:10FD6000FF7606EA02263543056070BD21B10288A0
:10FD700042F00202028004E002884FF6FD731A404E
:10FD80000280704721B1028842F00402028004E040
:10FD900002884FF6FB731A400280704721B18288B7
:10FDA00042F08002828004E082884FF67F731A401E
:10FDB0008280704702884FF6F7731A4002800288EB
:10FDC0000A430280704782884FF68F731A40828000
:10FDD00082880A438280704702894FF6F8731A407E
:10FDE000028102890A430281704702894FF67F73BC
:10FDF0001A40028102890A43028170478184704758
:10FE00008185704781867047018770478187704779
:10FE1000A0F84010704702884FF6FF431A40028056
:10FE200002880A43028070470146888E7047014667
:10FE3000088F70470146888F70470146B1F840002F
:10FE400070470146888C70470146088D704702460E
:10FE50000020138A0B400BB1012000E00020704706
:10FE6000CA430282704730B50246002000230024B6
:10FE7000158A05EA0103958905EA010413B10CB15D
:10FE8000012000E0002030BDCA430282704700001C
:10FE900010B50446FB48844209D101218803FEF7CE
:10FEA000FBFF00214FF48040FEF7F6FF32E0F648FA
:10FEB000844209D101214804FEF7FBFF00214FF4E1
:10FEC0000030FEF7F6FF25E0F048844209D1012119
:10FED0008804FEF7EEFF00214FF48020FEF7E9FFD3
:10FEE00018E0EB48844209D10121C804FEF7E1FF84
:10FEF00000214FF40020FEF7DCFF0BE0E5488442D0
:10FF000008D101210805FEF7D4FF00214FF480102D
:10FF1000FEF7CFFF10BD2DE9F04786B005460E462F
:10FF20000024A24600BFA1460027B08900B100BF4F
:10FF30002F462C8A4CF6FF700440F08804432C8234
:10FF4000AC894EF6F3100440B088318908437189BA
:10FF500008430443AC81AC8A4FF6FF400440B089AB
:10FF60000443AC8201A8FEF710FFC648874202D1C5
:10FF7000DDF810A001E0DDF80CA0A88900F4004035
:10FF800040B10AEBCA0000EB0A1031684900B0FB2F
:10FF9000F1F807E00AEBCA0000EB0A1031688900AB
:10FFA000B0FBF1F86420B8FBF0F0040120096421F3
:10FFB00001FB1089A88900F4004040B1322000EB19
:10FFC000C900B0FBF1F000F00700044308E0322064
:10FFD00000EB09106421B0FBF1F000F00F000443C6
:10FFE0002C8106B0BDE8F0874FF416510160002166
:10FFF0008180C18001810C21418100218181704774
:020000040801F1
:1000000010B502460020108A4FF2FF0318400B88FB
:100010004C8823438C882343CC8823431843108285
:1000200010BD0021018041808180C180704721B1D5
:10003000828942F40052828104E082894DF6FF7386
:100040001A4082817047F0B503460024002600253F
:10005000002040F66A17B94200D100BF1846C1F32C
:10006000421401F01F06012707FA06F5012C01D101
:100070000C3004E0022C01D1103000E014301AB131
:1000800007682F43076002E00768AF430760F0BDD1
:100090001AB1838A0B43838202E0838A8B43838273
:1000A0007047028A4FF6F0731A400282028A0A43AE
:1000B0000282704782894FF2FF731A4082818289DF
:1000C0000A438281704721B1828942F00202828113
:1000D00004E082894FF6FD731A4082817047028ADC
:1000E0004FF6DF731A400282028A0A430282704787
:1000F00021B1028A42F48042028204E0028A4BF675
:10010000FF731A4002827047C1F308028280704771
:1001100001468888C0F308007047818941F00101D9
:1001200081817047028BD2B20283028B42EA0122A4
:1001300002837047028B02F47F420283028B0A43E0
:100140000283704721B1828A42F02002828204E059
:10015000828A4FF6DF731A408282704721B1828A09
:1001600042F01002828204E0828A4FF6EF731A4056
:100170008282704721B1828A42F00802828204E0C2
:10018000828A4FF6F7731A408282704721B18289C2
:1001900042F40042828103E08289C2F30E0282812E
:1001A000704721B1828A42F40062828204E0828A2E
:1001B0004FF2FF731A4082827047828A4FF6FB73B8
:1001C0001A408282828A0A438282704721B1828ADF
:1001D00042F00202828204E0828A4FF6FD731A40E6
:1001E0008282704702460020B1F5007F00D100BF37
:1001F00013880B400BB1012000E00020704701F490
:100200000072B2F5007F00D100BFCA430280704780
:1002100070B50246002400230025002040F66A162F
:10022000B14200D100BFC1F3421501F01F03012606
:1002300006FA03F3012D02D19689334006E0022D20
:1002400002D1168A334001E0968A33400C1201260F
:1002500006FA04F41688344013B10CB1012000E012
:10026000002070BD10B50022002340F66A14A142A0
:1002700000D100BF0A1201249440A3B2DC430480E1
:1002800010BD00000038014000440040004800401C
:10029000004C0040005000406E480068401C6D4912
:1002A0000860704770B5FEF76FFC4FF48030FEF7C2
:1002B0008BFCFEF7C8FC0446012C24D10220FDF77C
:1002C00051FF1020FDF762FF0020FEF702FD002025
:1002D000FEF711FDA002FEF705FD4FF4E01120042A
:1002E000FEF7DAFC0120FEF7E3FC00BF3920FEF741
:1002F0008EFC0028FAD00220FEF7DDFC00BFFEF7DE
:10030000E3FC0828FBD1012140F2FD10FEF7AAFD15
:1003100001215148FEF735FB0120FEF729FD4F482A
:1003200000684F4AB0FBF2F1B1F1807F00D31DE0CD
:1003300021F07F40401E4FF0E022506150170F2205
:10034000002807DA13071E0E464B00F00F052D1F7D
:100350005E5503E013071D0E434B1D5400BF0020E4
:100360004FF0E02290610720106100BF70BD10B512
:10037000014609B9002010BD3C4802680A70100A05
:100380004870100C8870100EC8703848001D036843
:100390000B71180A4871180C8871180EC87133480F
:1003A000083004680C72200A4872200C8872200EF3
:1003B000C8720C20DFE710B5FEF769FB10BD10B561
:1003C000FFF7F9FF10BD10B5044645F25550FEF792
:1003D00055FB0520FEF755FB254804604FF49C7142
:1003E000614388B2FEF750FBFEF751FBFEF754FB6A
:1003F00010BD70B505461748006844191C480068D0
:1004000038B101E0FEF743FB12480068A042F9D37F
:1004100004E000BF0F480068A042FBD370BD70B578
:10042000054605EB4500C0EBC5100A49096801EB1C
:10043000C0040F48006838B101E0FEF728FB05480A
:100440000068A042F9D304E000BF02480068A0425F
:10045000FBD370BD2C000020000430000000002001
:1004600040420F0018ED00E000E400E0E8F7FF1F55
:10047000280000202DE9FE4307460C4615461E467F
:10048000DDF8288001210846FEF7ECFCE1B2384691
:10049000FEF7BCFA0120A04001908DF808508DF8BD
:1004A000096001208DF80A0001A8FDF7DBFD4FF47B
:1004B000C060FCF7EBFF052C04DAA01DC0B28DF87C
:1004C000000008E00A2C03DA17208DF8000002E093
:1004D00028208DF8000001208DF8010002208DF801
:1004E000020001208DF803006846FCF7D4FF7D4828
:1004F00040F82480BDE8FE8310B50120FDF718FE0A
:10050000012807D1FDF725FE7648006810B175492E
:100510000868804710BD10B50220FDF709FE0128CC
:1005200008D10220FDF715FE6E48406810B16D49F4
:100530004868804710BD10B50420FDF7F9FD01287B
:1005400008D10420FDF705FE6648806810B16549B2
:100550008868804710BD10B50820FDF7E9FD012827
:1005600008D10820FDF7F5FD5E48C06810B15D496F
:10057000C868804710BD10B51020FDF7D9FD0128CF
:1005800008D11020FDF7E5FD5648006910B1554926
:100590000869804710BD10B52020FDF7C9FD01286E
:1005A00008D12020FDF7D5FD4E48406910B14D49D6
:1005B000486980474020FDF7BBFD012808D1402055
:1005C000FDF7C7FD4748806910B1464988698047F3
:1005D0008020FDF7ADFD012808D18020FDF7B9FD91
:1005E0004048C06910B13F49C86980474FF48070E6
:1005F000FDF79EFD012808D10002FDF7AAFD39484C
:10060000006A10B13749086A80474FF40070FDF75F
:100610008FFD012808D14002FDF79BFD3148406A5B
:1006200010B13049486A804710BD10B54FF4806062
:10063000FDF77EFD012808D18002FDF78AFD2948DB
:10064000806A10B12749886A80474FF40060FDF73F
:100650006FFD012808D1C002FDF77BFD2148C06A6B
:1006600010B12049C86A80474FF48050FDF760FD03
:10067000012808D10003FDF76CFD1A48006B10B18A
:100680001849086B80474FF40050FDF751FD0128D1
:1006900008D14003FDF75DFD1248406B10B11149D0
:1006A000486B80474FF48040FDF742FD012808D198
:1006B0008003FDF74EFD0B48806B10B10949886B34
:1006C00080474FF40040FDF733FD012808D1C003F7
:1006D000FDF73FFD0348C06B10B10249C86B80476E
:1006E00010BD00009C00002001460020002205E013
:1006F000401C02F500628A4200D300E0F8E700BF28
:1007000070472DE9F04700240025002601274FF00F
:1007100002084FF004094FF0010AFDF7AEFF06464C
:1007200006EA0400A04235D0FDF7A3FF0546344396
:10073000FDF701FE8246601C18B1E043FDF7BBFEE9
:10074000824605F00700072812D005F0010000B925
:10075000002705F0020008B94FF0000805F004007A
:1007600008B94FF000094A4641463846FDF755FFA3
:10077000BAF1040F0ED100BF6448006800F4E060D5
:1007800063490843001D61490860BFF34F8F00BFF4
:1007900000BFFEE7BDE8F0872DE9F04706460F46AB
:1007A0004FF00008C14600253846FFF79DFF8146FF
:1007B000FDF7F7FC3520FDF78FFF04245548048032
:1007C00000BF09E04FF4006101FB0560FDF72EFD5D
:1007D0000446504804806D1C4D4501D2042CF1D0D4
:1007E000042C01D14FF00108FDF7E7FC4046BDE8BD
:1007F000F0872DE9F05F0746884691464FF0000AE2
:100800004FF0010B0025002645463E46FDF7C9FC8A
:100810003520FDF761FF042400BF11E02988304630
:10082000FDF707FE04463B4804803088298888424B
:1008300002D04FF0000B07E0AD1CB61C0AF1020A13
:10084000CA4501D2042CE9D000BF042C01D04FF0DE
:10085000000BFDF7B2FC5846BDE8F09F10B504460A
:100860000B460BB9002010BD002102E0605858541F
:10087000491C9142FAD30120F5E72DE9F84F0546CE
:100880000F46904600200090814682468346002411
:10089000002633E0C5F30A00A5EB00094FF400621F
:1008A0001D494846FFF7DAFFC5F30A0A56460BE032
:1008B0001948805D395D884204D0385D16498855F5
:1008C0004FF0010B761C641C444502D2B6F5006F54
:1008D000EED3BBF1000F0ED04FF400614846FFF796
:1008E0005BFF40B14FF400620B494846FFF781FFC0
:1008F00008B10120009009F5006925444445C9D399
:100900000098BDE8F88F0348008870470CED00E0C0
:100910000000FA0530000020DC00002070B504461D
:100920000D4616466348844203D3A01962498842A3
:1009300001D3002070BD0DB90020FBE732462946E7
:100940002046FFF756FFF5E770B504460D461646FC
:100950005848844201D2002070BD324629462046C4
:10096000FFF77CFFF8E72DE9F84F05460F46904664
:10097000002000908146824683460024002633E012
:10098000C5F30A00A5EB00094FF400624B49484645
:10099000FFF764FFC5F30A0A56460BE04748805D3F
:1009A000395D884204D0385D444988554FF0010BC9
:1009B000761C641C444502D2B6F5006FEED3BBF141
:1009C000000F0ED04FF400614846FFF7E5FE40B13E
:1009D0004FF4006239494846FFF70BFF08B1012088
:1009E000009009F5006925444445C9D30098BDE845
:1009F000F88F38B504460094012269463048FFF765
:100A0000B2FF38BD08B500200090012269462C488D
:100A1000FFF724FF9DF8000008B1012008BD002069
:100A2000FCE710B52748FDF77BFE00210420FEF708
:100A300019FA00210120FEF715FA72B610BD70B543
:100A4000044600251B4884421ED100681E49084008
:100A5000B0F1005F14D1FFF7D5FF88B11BA002F001
:100A6000ABFE1FA002F0A8FE41F28830FFF7C1FCE8
:100A7000FFF7D7FF65682068FCF76DFBA84715E016
:100A800018A002F099FE11E021461EA002F094FE8B
:100A900013A002F091FE41F28830FFF7AAFCFFF7A5
:100AA000C0FF65682068FCF756FBA84770BD1B496E
:100AB0000860704700D0000800F00308DC08002040
:100AC00000C80008000801400000FE2F4A756D7044
:100AD00020746F204170706C69636174696F6E007F
:100AE0000D0A00004170706C69636174696F6E205B
:100AF0006973206E6F7420616374697665210D0AD5
:100B0000000000004A756D7020746F2041646472AB
:100B10003A2030582530386C5800000008ED00E0CD
:100B20007FB505460C46002D52D0002C50D0012137
:100B3000C802FEF797F9FE48FEF79CFAB4F57A7FF3
:100B400006D2A0B2ADF808004720ADF804000BE0D3
:100B50004FF47A70B4FBF0F4C4F34F00ADF8080022
:100B600048F69F40ADF804000020ADF80A00ADF84B
:100B7000060001A9EE48FEF751FBEE480078A8B93F
:100B80004FF44070FCF782FC19208DF80000002023
:100B90008DF8010003208DF8020001208DF803007C
:100BA0006846FCF778FC0120E24908700121E04822
:100BB000FFF76AF90121DE48FFF752F901221146D9
:100BC000DB48FEF7A2FE0121D948FEF783FE0FE0C5
:100BD0000121D748FFF744F900220121D448FEF74C
:100BE00094FE0021D248FEF775FED148FEF742FA86
:100BF0007FBD10B50021CE48FFF700F910BD7FB5CD
:100C000005460C46002D50D0002C4ED00121084640
:100C1000FEF735F94FF08040FEF72CFAB4F57A7FF5
:100C200006D2A0B2ADF808004720ADF804000BE0F2
:100C30004FF47A70B4FBF0F4C4F34F00ADF8080041
:100C400048F69F40ADF804000020ADF80A00ADF86A
:100C5000060001A94FF08040FEF7E0FAB6480078A0
:100C6000A8B94FF44070FCF711FC1C208DF800006F
:100C700000208DF8010003208DF8020001208DF87E
:100C800003006846FCF707FC0120AB49087001210E
:100C90008807FFF7E5F8012211469007FEF735FEB9
:100CA00001218807FEF716FE11E001218807FFF7F2
:100CB000D7F8002201218807FEF727FE00214FF018
:100CC0008040FEF707FE4FF08040FEF7D3F97FBD6E
:100CD00010B500214FF08040FFF790F810BD7FB5B0
:100CE00005460C46002D4ED0002C4CD00121022090
:100CF000FEF7C5F89148FEF7BDF9B4F57A7F06D244
:100D0000A0B2ADF808004720ADF804000BE04FF4A6
:100D10007A70B4FBF0F4C4F34F00ADF8080048F665
:100D20009F40ADF804000020ADF80A00ADF80600C1
:100D300001A98248FEF772FA81480078A8B94FF4F9
:100D40004070FCF7A3FB1D208DF8000000208DF8FB
:100D5000010003208DF8020001208DF80300684691
:100D6000FCF799FB01207649087001217348FFF7D1
:100D700077F8012211467148FEF7C7FD01216F483F
:100D8000FEF7A8FD0FE001216C48FFF769F800228B
:100D900001216A48FEF7B9FD00216848FEF79AFD77
:100DA0006648FEF767F97FBD10B500216348FFF77D
:100DB00025F810BD7FB505460C46002D4ED0002C01
:100DC0004CD001210420FEF75AF85E48FEF752F994
:100DD000B4F57A7F06D2A0B2ADF808004720ADF88E
:100DE00004000BE04FF47A70B4FBF0F4C4F34F004E
:100DF000ADF8080048F69F40ADF804000020ADF8BB
:100E00000A00ADF8060001A94E48FEF707FA4E4861
:100E10000078A8B94FF44070FCF738FB1E208DF81D
:100E2000000000208DF8010003208DF80200012051
:100E30008DF803006846FCF72EFB0120424908703C
:100E400001214048FFF70CF8012211463D48FEF70A
:100E50005CFD01213B48FEF73DFD0FE001213948D3
:100E6000FEF7FEFF002201213648FEF74EFD00216D
:100E70003448FEF72FFD3348FEF7FCF87FBD10B570
:100E800000213048FEF7BAFF10BD7FB505460C467D
:100E9000002D62D0002C60D001210820FDF7EFFF6B
:100EA0002A48FEF7E7F8B4F57A7F06D2A0B2ADF88B
:100EB00008004720ADF804000BE04FF47A70B4FB53
:100EC000F0F4C4F34F00ADF8080048F69F40ADF8C9
:100ED00004000020ADF80A00ADF8060001A91B4887
:100EE000FEF79CF91A480078A8B94FF44070FCF757
:100EF000CDFA1E208DF8000000208DF8010003209F
:100F00008DF8020001208DF803006846FCF7C3FA53
:100F100001200F49087001210C48FEF7A1FF0122B2
:100F200011460A48FEF7F1FC0121084812E014E0DE
:100F3000002C014034000020350000200004004057
:100F4000360000200008004037000020000C004060
:100F500038000020FEF7BEFC0FE00121FC48FEF740
:100F60007FFF00220121FA48FEF7CFFC0021F8485C
:100F7000FEF7B0FCF648FEF77DF87FBD10B5002106
:100F8000F348FEF73BFF10BD7FB505460C46002D2C
:100F90004ED0002C4CD001211020FDF770FFED4801
:100FA000FEF768F8B4F57A7F06D2A0B2ADF8080073
:100FB0004720ADF804000BE04FF47A70B4FBF0F476
:100FC000C4F34F00ADF8080048F69F40ADF80400A8
:100FD0000020ADF80A00ADF8060001A9DD48FEF7D3
:100FE0001DF9DD480078A8B94FF44070FCF74EFABF
:100FF00036208DF8000000208DF8010003208DF8C8
:10100000020001208DF803006846FCF744FA012035
:10101000D14908700121CF48FEF722FF0122114675
:10102000CC48FEF772FC0121CA48FEF753FC0FE0E2
:101030000121C848FEF714FF00220121C548FEF730
:1010400064FC0021C348FEF745FCC248FEF712F8D5
:101050007FBD10B50021BF48FEF7D0FE10BD7FB5A3
:1010600005460C46002D40D0002C3ED0012120200A
:10107000FDF705FFB948FDF7FDFF6004000CADF872
:10108000080048F69F40ADF804000020ADF80A00C3
:10109000ADF8060001A9B148FEF7C0F8B0480078E5
:1010A000A8B94FF44070FCF7F1F937208DF8000033
:1010B00000208DF8010003208DF8020001208DF83A
:1010C00003006846FCF7E7F90120A54908700121F3
:1010D000A248FEF7C5FE01221146A048FEF715FC06
:1010E00001219E48FEF7F6FB0FE001219B48FEF729
:1010F000B7FE002201219948FEF707FC002197481E
:10110000FEF7E8FB9548FDF7B5FF7FBD7FB50546C7
:101110000C46002D52D0002C50D001214803FDF781
:10112000A1FE9048FDF7A6FFB4F57A7F06D2A0B2E3
:10113000ADF808004720ADF804000BE04FF47A70DA
:10114000B4FBF0F4C4F34F00ADF8080048F69F403C
:10115000ADF804000020ADF80A00ADF8060001A9C2
:101160008048FEF75BF880480078A8B94FF44070DB
:10117000FCF78CF92C208DF8000000208DF8010080
:1011800003208DF8020001208DF803006846FCF76B
:1011900082F901207449087001217248FEF774FE3B
:1011A00001217048FEF75CFE012211466D48FEF7F2
:1011B000ACFB01216B48FEF78DFB0FE00121694874
:1011C000FEF74EFE002201216648FEF79EFB00213D
:1011D0006448FEF77FFB6348FDF74CFF7FBD10B509
:1011E00000216048FEF70AFE10BD10B501215F48DE
:1011F000FEF739FE48B101215C48FEF745FE5C4828
:10120000006810B15A490868804710BD10B5012127
:101210008807FEF728FE48B101218807FEF734FE53
:101220005348406810B152494868804710BD10B516
:1012300001215048FEF717FE48B101214D48FEF745
:1012400023FE4B48806810B149498868804710BD2B
:1012500010B501214848FEF706FE48B10121464875
:10126000FEF712FE4248C06810B14149C868804785
:1012700010BD10B501213648FEF7F5FD48B101213A
:101280003348FEF701FE3A48006910B13849086951
:10129000804710BD10B501212E48FEF7E4FD48B18E
:1012A00001212C48FEF7F0FD3148406910B130496A
:1012B0004869804710BD10B501212848FEF7D3FDCD
:1012C00098B301212548FEF7DFFD00242BE004EB55
:1012D00044002A4951F8200018B304EB440001EB04
:1012E00080004068401C04EB4401244A02EB810169
:1012F000486004EB4400114601EB8000406804EBB9
:10130000440102EB8101896888420AD3002004EB82
:10131000440102EB8101486004EB440152F82100D2
:101320008047601C84B2202CD1DB10BD10B5012198
:101330000C48FEF798FD48B101210A48FEF7A4FDCC
:101340000B48806910B10A498869804710BD0000C8
:10135000000C004000100040390000200014004044
:101360003A000020003401403B000020002C0140E6
:10137000DC10002000040040000800401411002090
:10138000D748D8490860D8484860D8488860D848C5
:10139000C860D8480861D8484861D8488861D848AA
:1013A000D8490860D8484860D8488860D848C8609C
:1013B000D8480861D8484861D848886170472DE905
:1013C000F04105460E46012715B9B81EBDE8F0816B
:1013D000D3480088202802DB4FF0FF30F6E70121D8
:1013E0000846FFF73CFE012E01D9374600E00127F1
:1013F000002417E004EB4400CA4951F82000A84239
:101400000ED1002004EB4401C64A02EB8101486082
:1014100004EB4400114601EB80008760E01DD5E736
:10142000601C84B2BE4800888442E3DBBC4800886C
:10143000844218D104EB4400BA4941F820500020FE
:1014400004EB4401B74A02EB8101486004EB44001D
:10145000114601EB80008760B1480088401CB0490C
:101460000880E01DB2E74FF0FF30AFE72DE9F04113
:1014700004460D4616464FF0FF3715B93846BDE80D
:10148000F0819848006808B9FFF77AFF072C0FD25F
:10149000A54850F82400A8420FD0A34840F8245093
:1014A000904850F82420314601209047274604E018
:1014B00031462846FFF783FF07463846DFE70246F6
:1014C0004FF0FF30072A08D2974B53F822308B4257
:1014D00003D0954B43F822101046704770B505466F
:1014E0008048006808B9FFF74BFF002411E08E48E0
:1014F00050F82400A8420AD100208B4941F824006A
:10150000784850F8242000210846904770BD601CA0
:1015100084B2072CEBDB002409E004EB4400814992
:1015200051F82000A84200D105E0601C84B27C483C
:1015300000888442F1DB00BF79480088844237DAB2
:10154000002424E0601C00EB4000764951F82000A4
:1015500004EB4401734A42F82100601C00EB400098
:10156000114601EB8000406804EB440102EB81016D
:101570004860601C00EB4000114601EB8000806871
:1015800004EB440102EB81018860601C84B2644872
:101590000088401EA042D5DC61480088401E60499A
:1015A00008800846008818B900210846FFF727FB85
:1015B00000BFABE770B50446002C00DA70BD4948A7
:1015C000006808B9FFF7DCFE072C0ADA002056494C
:1015D00041F82400434850F8242000210846904751
:1015E0001FE0E01F20281CDA85B2002005EB450132
:1015F0004C4A42F8210005EB450102EB81014860AD
:1016000005EB450102EB8101886045480088401EDA
:10161000434908800846008818B900210846FFF7AA
:10162000EEFA00BFCAE770B505462E48006808B953
:10163000FFF7A6FE00240BE03B4850F82400A84228
:1016400004D1304951F82400804770BD601C84B239
:10165000072CF1DB002409E004EB4400314951F888
:101660002000A84200D105E0601C84B22C4800880C
:101670008442F1DB00BF2A48008884420FDA00244C
:1016800008E0002004EB4401264A02EB8101486097
:10169000601C84B222480088401EA042F1DC00BFDA
:1016A000D3E770B50446002C00DA70BD0D48006821
:1016B00008B9FFF765FE072C04DA124951F8240037
:1016C00080470AE0E01F202807DA85B2002005EBFA
:1016D0004501144A02EB8101486000BFE5E70000C4
:1016E000210B010894120020FF0B0108DF0C0108F8
:1016F000B50D01088B0E0108890F01080D110108B5
:10170000F30B0108F8100020D10C0108A90D010805
:101710007F0E01087D0F010853100108DF11010839
:101720003200002014110020DC10002010B5044607
:10173000FE4804600146FE48FEF7EDFB10BD10B503
:101740000446FA4884800146F948FEF7E4FB10BDE0
:1017500010B50446F548C4800146F548FEF7DBFBAA
:1017600010BD10B50446F14804810146F048FEF76B
:10177000D2FB10BD10B5044600BF4021EC48FEF777
:1017800031FD0028F9D02146E948FEF7BDFC10BD27
:1017900002460020704770B504460D4600264CB145
:1017A00000BF05E02078FFF7E5FF641C701C86B2DF
:1017B000AE42F7DB70BDDF49086070471CB5012100
:1017C00044F20500FDF74EFBD948FEF761FB4FF4EC
:1017D0000070ADF8040003208DF8060018208DF885
:1017E000070001A9D448FCF7FBFF4FF48060ADF877
:1017F000040004208DF8070001A9CF48FCF7F0FF92
:101800004FF4E130C949086000208880C880088111
:1018100088810C204881C648FEF77DFB25208DF885
:10182000000000208DF8010003208DF80200012047
:101830008DF803006846FBF72EFE012240F2255189
:10184000BB48FEF700FC0121B948FEF7F0FB1CBDC8
:1018500008B54FF40070ADF8000003208DF80200C9
:1018600004208DF803006946B348FCF7B9FF4FF434
:101870008060ADF8000004208DF803006946AE4892
:10188000FCF7AEFF002240F22551A948FEF7DBFB32
:101890000021A748FEF7CBFB0020A649086008BD41
:1018A00010B50446A148046100F11001A348FEF7F9
:1018B00032FB10BD10B504469C48848200F1100133
:1018C0009E48FEF728FB10BD10B504469748C48219
:1018D00000F110019948FEF71EFB10BD10B504463B
:1018E0009248048300F110019448FEF714FB10BDE8
:1018F00010B5044600BF40219048FEF773FC002855
:10190000F9D021468D48FEF7FFFB10BD02460020AE
:10191000704770B504460D4600264CB100BF05E087
:101920002078FFF7E5FF641C701C86B2AE42F7DB3F
:1019300070BD8049486070471CB501210520FDF746
:1019400091FA01214804FDF79AFA7C48FEF7A0FAC3
:101950000420ADF8040003208DF8060018208DF84F
:10196000070001A97448FCF73BFF0820ADF804000C
:1019700004208DF8070001A96F48FCF731FF4FF4F0
:10198000E1306A490861002168488182C18201838F
:1019900081830C21418300F110016848FEF7BBFAF6
:1019A00026208DF8000000208DF8010003208DF81E
:1019B000020001208DF803006846FBF76CFD012250
:1019C00040F225515D48FEF73EFB01215B48FEF7E2
:1019D0002EFB1CBD08B50420ADF8000003208DF8D7
:1019E000020004208DF8030069465348FCF7F8FE16
:1019F0000820ADF8000004208DF8030069464E4829
:101A0000FCF7EEFE002240F225514C48FEF71BFB8E
:101A100000214A48FEF70BFB00204649486008BDFC
:101A200010B504464148046200F120014448FEF725
:101A300072FA10BD10B504463C48848400F12001C0
:101A40003F48FEF768FA10BD10B504463748C48415
:101A500000F120013A48FEF75EFA10BD10B50446C9
:101A60003248048500F120013548FEF754FA10BDD4
:101A700010B5044600BF40213148FEF7B3FB0028F3
:101A8000F9D021462E48FEF73FFB10BD024600204C
:101A9000704770B504460D4600264CB100BF05E006
:101AA0002078FFF7E5FF641C701C86B2AE42F7DBBE
:101AB00070BD2049886070471CB501210920FDF7E1
:101AC000D1F901218804FDF7DAF91D48FEF7E0F9A4
:101AD0004FF48060ADF8040003208DF80600182054
:101AE0008DF8070001A91748FCF77AFE4FF4006053
:101AF000ADF8040004208DF8070001A91148FCF797
:101B00006FFE4FF4E13009490862002107488184E3
:101B1000C184018581850C21418500F1200108489F
:101B2000FEF7F9F927208DF800000DE0B012002033
:101B3000003801400013002000080140004400402C
:101B400000480040000C014000208DF801000320F7
:101B50008DF8020001208DF803006846FBF79BFC1E
:101B6000012240F22551FA48FEF76DFA0121F848AA
:101B7000FEF75DFA1CBD08B54FF48060ADF80000BB
:101B800003208DF8020004208DF803006946F14817
:101B9000FCF726FE4FF40060ADF8000004208DF83D
:101BA00003006946EB48FCF71BFE002240F225517A
:101BB000E748FEF748FA0021E548FEF738FA00202A
:101BC000E549886008BD10B50446E448046300F1A7
:101BD0003001E348FEF79FF910BD10B50446DF4819
:101BE000848600F13001DE48FEF795F910BD10B58E
:101BF0000446DA48C48600F13001D948FEF78BF973
:101C000010BD10B50446D548048700F13001D44812
:101C1000FEF781F910BD10B5044600BF4021D04841
:101C2000FEF7E0FA0028F9D02146CD48FEF76CFA1D
:101C300010BD02460020704770B504460D460026D0
:101C40004CB100BF05E02078FFF7E5FF641C701C75
:101C500086B2AE42F7DB70BDBF49C86070471CB5A5
:101C600001211120FDF7FEF80121C804FDF707F955
:101C7000BB48FEF70DF94FF48060ADF80400032077
:101C80008DF8060018208DF8070001A9B548FCF76B
:101C9000A7FD4FF40060ADF8040004208DF80700A4
:101CA00001A9B048FCF79CFD4FF4E130AB49086353
:101CB0000021AA488186C186018781870C2141873E
:101CC00000F13001A648FEF726F934208DF8000017
:101CD00000208DF8010003208DF8020001208DF80E
:101CE00003006846FBF7D7FB012240F225519C48D0
:101CF000FEF7A9F901219A48FEF799F91CBD08B52C
:101D00004FF48060ADF8000003208DF8020004203D
:101D10008DF8030069469348FCF762FD4FF40060BC
:101D2000ADF8000004208DF8030069468D48FCF7EB
:101D300057FD002240F225518948FEF784F9002121
:101D40008748FEF774F900208349C86008BD10B5C4
:101D500004468248046400F140018348FEF7DBF842
:101D600010BD10B504467D48A0F8444000F1400184
:101D70007D48FEF7D0F810BD10B504467748A0F8AE
:101D8000464000F140017848FEF7C5F810BD10B597
:101D900004467248A0F8484000F140017248FEF73E
:101DA000BAF810BD10B5044600BF40216E48FEF7DA
:101DB00019FA0028F9D021466B48FEF7A5F910BDA5
:101DC00002460020704770B504460D4600264CB10F
:101DD00000BF05E02078FFF7E5FF641C701C86B2A9
:101DE000AE42F7DB70BD5C49086170471CB501214C
:101DF0003120FDF737F801210805FDF740F85A4872
:101E0000FEF746F84FF48050ADF8040003208DF83B
:101E1000060018208DF8070001A95248FCF7E0FCE5
:101E20000420ADF804008DF8070001A94F48FCF725
:101E3000D7FC4FF4E1304949086400214748A0F835
:101E40004410A0F84610A0F84810A0F84C100C213F
:101E5000A0F84A1000F140014348FEF75CF8352035
:101E60008DF8000000208DF8010003208DF802009D
:101E700001208DF803006846FBF70DFB012240F2BC
:101E800025513948FEF7DFF801213748FEF7CFF832
:101E90001CBD08B54FF48050ADF8000003208DF84C
:101EA000020004208DF8030069462E48FCF798FCD8
:101EB0000420ADF800008DF8030069462B48FCF7BC
:101EC0008FFC002240F225512748FEF7BCF8002184
:101ED0002548FEF7ACF800201F49086108BD10B581
:101EE00040F225512248FEF793F950B12048FEF701
:101EF0000FF9C4B21848006818B1174801682046A5
:101F0000884710BD10B540F225511A48FEF780F9F8
:101F100050B11848FEF7FCF8C4B20F48406818B139
:101F20000D4841682046884710BD10B540F2255144
:101F30000748FEF76DF950B10548FEF7E9F8C4B25D
:101F40000548806818B1044881682046884710BD5C
:101F500000480040000C014000130020B012002097
:101F6000004C0040001001400050004000140140AF
:101F7000003801400044004010B540F225516E4841
:101F8000FEF746F950B16C48FEF7C2F8C4B26B4890
:101F9000C06818B16948C1682046884710BD10B5AF
:101FA00040F225516648FEF733F950B16448FEF718
:101FB000AFF8C4B26148006918B1604801692046B1
:101FC000884710BD10B50446052C76D2DFE804F032
:101FD000031D395576005B485B4988605B480860A3
:101FE0005B4848605B48C8605B4808615B48486183
:101FF0005B4888615B48C8615B48086208465B498A
:1020000008600968086880477EE059494E48C16207
:1020100058484D49486258494B48816257490163C5
:1020200057494163574981635749C163574901641F
:102030005749416424304D494860496808688047E1
:1020400062E054494048016553483F498864534918
:102050003D48C16452494165524981655249C16553
:1020600052490166524941665249816648303F49AA
:10207000886089680868804746E04F493248416770
:102080004E483149C8664E492F4801674D4981671E
:102090004D49C1674D49C0F880104D49C0F88410C2
:1020A0004C49C0F888104C49C0F88C106C302F494E
:1020B000C860C9680868804726E024E0474922488C
:1020C000C0F8981046482049C1F8900045491E487C
:1020D000C0F894104449C0F89C104449C0F8A010BE
:1020E0004349C0F8A4104349C0F8A8104249C0F8B9
:1020F000AC104249C0F8B01090301C490861096921
:102100000868804700E000BF00BF10BD10B504465E
:10211000164850F8240010B92046FFF753FF134823
:1021200050F8240010BD70B504460D46E0B2FFF72C
:1021300021FB204670BD0000004C00400013002031
:1021400000500040B717010814130020BD17010804
:10215000511801082D1701083F17010851170108F0
:10216000631701089117010897170108C813002089
:102170003319010839190108D5190108A1180108F6
:10218000B5180108C9180108DD1801080D19010862
:1021900013190108B31A0108B91A0108771B0108BD
:1021A000211A0108351A0108491A01085D1A0108A7
:1021B0008D1A0108931A0108591C01085F1C0108B7
:1021C000FF1C0108C71B0108DB1B0108EF1B0108EE
:1021D000031C0108331C0108391C0108E71D010814
:1021E000ED1D0108931E01084F1D0108631D010824
:1021F000791D01088F1D0108C11D0108C71D0108B7
:10220000014601F0030090B96420B1FBF0F200FB3D
:10221000121050B94FF4C870B1FBF0F200FB12106D
:1022200008B9012070470020FCE70120FAE70020F0
:10223000F8E72DE9F05F06460F4690469946DDE93E
:102240000AAB002440F2B270864203DB40F6330052
:10225000864202DD0020BDE8F09F40F2B27509E041
:102260002846FFF7CDFF10B1BE48044401E0BE4848
:1022700004446D1CB542F3D37F1E00250FE0BB481C
:10228000405D40F2A321484304EBC0143046FFF701
:10229000B7FF18B1012D01D1B54804446D1CBD42F2
:1022A000EDD3A8F1010040F2A321484304EBC01490
:1022B000C9EB4910C0EB092004EB0014CAEB0A106B
:1022C00004EB80045C442046FCF759FEFCF78AFED0
:1022D0002046C0E770B50446FCF748FE054604B149
:1022E0002560284670BD10B5A248008800F00100A6
:1022F00010B10020FFF7EEFF9E48008800F00200BA
:1023000028B19C48008820F002009A49088099482A
:10231000008840F6FA7108409649088000BF954849
:10232000008800F020000028F9D010BD3EB5002440
:1023300003208DF8080001208DF8090000208DF899
:102340000A0001208DF80B0002A8FBF7A4F8042076
:10235000FBF755F945F25001884242D001214FF078
:10236000C050FCF78CFD0120FCF7B3FBFBF712F922
:102370000120FCF7E4FC04E0601CC4B20A20FEF774
:102380004EF84120FCF743FC0028F5D0FA2C01DB85
:1023900001203EBD4FF48070FCF7EDFC0120FCF7FE
:1023A000F0FCFCF728FEFCF71DFE01210846FCF7B7
:1023B000BDFDFCF717FE47F6FF70FCF7EDFDFCF7DF
:1023C00011FE0020009003460122114601904FF4B7
:1023D000FC60FFF72EFF45F250010420FBF703F9E4
:1023E00007E0FCF708FE01210846FCF79FFDFCF71B
:1023F000F9FD0020FFF76EFFFCF772FD0020C8E733
:102400007CB50446D4E90010CDE90001D4E90232DC
:10241000D4E90410FFF70DFF7CBD10B5044620463B
:10242000FCF7ADFDFCF7DEFD204610BD70B504469F
:10243000FCF79CFD054604B12560284670BD2DE9DA
:10244000F04706464FF00009002700240025A0466B
:10245000A24616B1D6F8009003E00020FFF7E6FF91
:1024600081464348B9FBF0F42421434801F035F993
:10247000A2454DD0A24640F2B2780EE04046FFF7AA
:10248000BFFE30B1B4F5B77F02D3A4F5B77402E054
:1024900006E0A4F26D1408F10108B4F5B67FEDD89A
:1024A00000BF3548C0F81480C4610720B4FBF0F0C9
:1024B000314988610720B4FBF0F100FB114008B9F5
:1024C000012000E000202C49896908442A498861DC
:1024D000002515E028494869FFF792FE30B1012D2B
:1024E00004D11D2C01D31D3C09E00BE01F48405DC9
:1024F000A04203D81D48405D241A00E002E06D1C94
:102500001C2CE7D200BF1C480561601C1A49C8603A
:102510001748B9FBF0F100FB11974FF46160B7FB6E
:10252000F0F0154988604FF46160B7FBF0F100FBF3
:1025300011703C21B0FBF1F00F4948604FF461602D
:10254000B7FBF0F100FB11703C21B0FBF1F201FB95
:102550001200094908604FF0FF3008620846BDE8E4
:10256000F08700000085E2018033E1015A3C010858
:102570008051010004280040DC130020F8B5044617
:102580000D46164601210420FCF76CFC012148068B
:10259000FCF775FC4FF48050ADF8000003208DF877
:1025A000020018208DF803006946FB48FCF718F973
:1025B0004FF40060ADF8000048208DF80300694634
:1025C000F548FCF70DF9F548FBF76AF90020F349E7
:1025D0008871C871087248728872C872084684701F
:1025E0000020C870022008710420487105EBC50066
:1025F00048F6A041B1FBF0F0E8490880E848FBF755
:1026000044F8E84801780088401CE64A1080C8B2C7
:10261000E54988720020C8720120087300200880F4
:1026200048808880C8800881012048730846FBF7ED
:10263000B6F8DE480660F8BD38B50446DC480470DC
:10264000C4B101220221D648FBF7A8FB4FF4A060D9
:10265000FAF71CFF14208DF8000001208DF801000E
:1026600000208DF8020001208DF803006846FAF77B
:1026700012FF04E000220221C948FBF78FFB38BD9E
:1026800010B5C648FBF70CF9C548FAF7E5FF00207E
:10269000FFF7D2FF0020C549086010BD10B5044601
:1026A0000020BE49C870022008710420487104EB64
:1026B000C40048F6A041B1FBF0F0B8490880B84822
:1026C000FAF7E3FF10BD70B505460E46002400BFC3
:1026D0002BE0B44800880E2800DB28E0B1480178E0
:1026E0000088401CAF4A1080C8B2AF4988720020F1
:1026F000C8720120087355F82400C0F34F300880D9
:1027000055F824004FF6FF7101EAC000A649488041
:102710004FF6FF708880C01FC8800020088101200C
:1027200048730846FBF73BF8641CB442D1D300BFA2
:1027300070BDF0B50446154600200022082B00DDD0
:1027400008239C4E367806EB06104FEA146C0746B9
:10275000401C994E06F807C0C4F3074C0746401CBE
:1027600006F807C0C4F3072C0746401C06F807C04C
:102770000646471CB8B2904FBC554FEA116C06464E
:10278000471CB8B28C4F07F806C0C1F3074C064689
:10279000471CB8B2884F07F806C0C1F3072C06469D
:1027A000471CB8B2844F07F806C00646471CB8B2AB
:1027B000814FB9550646471CB8B27F4FBB55002222
:1027C00009E015F802C00646471CB8B27A4F07F870
:1027D00006C0561CB2B29A42F3DB764E3678761CAF
:1027E000142796FBF7FC07FB1C66724F3E703E46B3
:1027F0003678724F3F78BE4209D1704E3678761CDB
:10280000142796FBF7FC07FB1C666C4F3E70F0BD6F
:102810002DE9F04305460E46174600218C4600245C
:1028200066480078DFF88C8198F80080404502D136
:102830000020BDE8F0836148007800EB0011884675
:10284000491C5D4810F808208846491C10F808000B
:1028500040EA02228846491C574810F8080040EA1E
:102860000222084601F101081FFA88F1DFF84881C9
:1028700018F8000040EA02222A60084601F1010827
:102880001FFA88F1DFF8308118F80030084601F1AE
:1028900001081FFA88F1DFF8208118F8000040EAEB
:1028A0000323084601F101081FFA88F1DFF80881C7
:1028B00018F8000040EA0323084601F101081FFA56
:1028C00088F1DFF8F48018F8000040EA0323336051
:1028D000084601F101081FFA88F1DFF8DC8018F8DA
:1028E00000C000240BE0084601F101081FFA88F13E
:1028F000DFF8C48018F800003855601C84B26445C5
:10290000F1DB2E480078401C4FF0140890FBF8F9DA
:1029100008FB1900DFF8A48088F800000CF0FF0025
:1029200087E72DE9F04385B080460E4617461D46E1
:102930004FF000091FB9002005B0BDE8F083082D55
:1029400000DD08250096019600208DF8090008F0AA
:10295000FF008DF808008DF80A50002404E0395D6E
:102960000DF10B000155641CAC42F8D369460C48CC
:10297000FBF704F88146002400E0641C494608483F
:10298000FBF794F810B9B4F5805FF6D340F6FF700A
:10299000844215D30020CFE7000801401C1400201A
:1029A0000064004044000020281400204000002063
:1029B0004800002046000020361400204700002078
:1029C0000120B9E7F0B585B006460D4617463F48E9
:1029D000007820BB00213E48FBF748F910B90020E1
:1029E00005B0F0BD6A4600213948FBF7BCF89DF8F8
:1029F000080030609DF80800042802D10198286082
:102A000001E000982860002404E00DF10B00005D57
:102A10003855641C082CF8D39DF80A00E0E73A46C4
:102A200029463046FFF7F4FEDAE7704700B585B077
:102A30006A4600212648FBF796F826480068F0B160
:102A40009DF80800042809D19DF80A309DF8080077
:102A50000DF10B020199FFF76CFE08E09DF80A30BA
:102A60009DF808000DF10B020099FFF762FE19486E
:102A7000006820B19DF80A00164A1168884705B021
:102A800000BD90B91449154A1160154951601549A6
:102A900091601549D1601549116115495161154978
:102AA00091611146144A116000E000BF00BF7047F9
:102AB00000B50346104850F8230010B91846FFF738
:102AC000E0FF0D4850F8230000BD00004800002042
