:020000040800F2
:10000000A0470020ED030008F1010008F3010008FB
:10001000F7010008FB010008FF01000800000000D4
:1000200000000000000000000000000003020008C3
:10003000050200080000000007020008090200088D
:10004000070400080704000807040008A744000884
:100050000704000807040008A12B0008BF2B0008B4
:10006000DF2B0008FF2B00081F2C000807040008E6
:100070000704000807040008070400080704000834
:100080000704000807040008070400080704000824
:100090000704000807040008070400083F2C0008B4
:1000A0000704000807040008070400080704000804
:1000B00039350008AF350008D135000807040008BD
:1000C00007040008070400080704000807040008E4
:1000D00007040008CD400008F3400008194100085B
:1000E000D32C0008070400080704000807040008D0
:1000F00007040008070400080704000807040008B4
:1001000007040008070400080704000807040008A3
:10011000694100088F410008213600084336000875
:100120000704000807040008070400080704000883
:10013000DFF80CD005F084FC00480047910100086E
:10014000A0470020EFF30980704780F309887047CB
:10015000EFF30880704780F30888704740BA704713
:10016000C0BA704770B50025002613A117A005F08E
:1001700099FC17A51126002404E0295719A005F0C1
:1001800091FC641CB442F8D317A005F08BFC70BD41
:1001900062B64FF000601549086002F07BFB00205A
:1001A00004F09EF80468A047FFF7DCFF05F0D6FBDB
:1001B00001E004F0CDFBFCE74672696D7761726582
:1001C00056657273696F6E3A200000002573000057
:1001D000426F6F744C6F616465722056312E302E01
:1001E00030000000256300000D0A000008ED00E06B
:1001F000704700BFFEE700BFFEE700BFFEE700BF9D
:10020000FEE7704770477047704700000CB500204C
:10021000019000906C48006840F480306A490860A2
:1002200000BF6948006800F4003000900198401C4D
:100230000190009818B90198B0F5A06FF1D162480B
:10024000006800F4003010B10120009001E00020AF
:1002500000900098012843D15C48006840F01000ED
:100260005A4908600846006820F003000860084604
:10027000006840F0020008605348406852494860F6
:100280000846406848600846406840F4806048601E
:100290000846406820F47C1048600846406840F4F6
:1002A000E81048600846006840F08070086000BFB1
:1002B0004548006800F000700028F9D042484068C6
:1002C00020F00300404948600846406840F00200C2
:1002D000486000BF3C48406800F00C000828F9D195
:1002E0000CBD10B5FFF792FF10BD10B53648006881
:1002F00040F001003449086008464068344908402D
:100300003149486008460068324908402E49086073
:100310000846006820F4802008600846406820F401
:10032000FE0048604FF41F008860FFF7DAFF4FF0CF
:1003300000602949086010BD10B50021002000228E
:10034000214B5B6803F00C0121B1042906D0082978
:1003500028D107E0214B224C236027E01F4B204C83
:10036000236023E0184B5B6803F47010164B5B6846
:1003700003F48032022303EB904022B9194B43432C
:10038000174C23600DE0104B5B6803F4003323B17E
:10039000144B4343124C236003E0104B4343104C77
:1003A000236003E00D4B0E4C236000BF00BF064BE3
:1003B0005B68C3F303130C4CE15C094B1B68CB4037
:1003C000074C236010BD00000010024000200240D6
:1003D0000000FFF8FFFFF6FE08ED00E000127A00D3
:1003E0000000002000093D0004000020064880476E
:1003F00006480047FEE7FEE7FEE7FEE7FEE7FEE70A
:10040000FEE7FEE7FEE7FEE7EB0200083101000829
:1004100030BF704720BF704740BF704701DF704753
:10042000EFF31480704780F31488BFF36F8F704729
:10043000EFF30980704780F309887047EFF3088075
:10044000704780F30888704762B6704772B670478D
:10045000EFF31080704771B6704761B67047EFF3E5
:100460001380704780F311887047EFF31280704754
:1004700040BA704700BA70473C4901433C4A11609A
:10048000704770B5002100230F22C47804B3384CA4
:10049000246804F4E064C4F5E064210AC1F10403B3
:1004A000CA40447804FA03F18478144021430901D6
:1004B000304C0678A155047804F01F050124AC40A7
:1004C00005786D11AD0005F1E025C5F8004109E0A2
:1004D000047804F01F050124AC40274D06787611FE
:1004E00045F8264070BD254A0A400243204B1B1F99
:1004F0001A60704739B11E4A121D126802431C4B24
:100500001B1D1A6006E01A4A121D12688243184B1E
:100510001B1D1A60704710B5FFF798FF10BD10B58E
:10052000FFF792FF10BD10B5FFF795FF10BD10B596
:10053000FFF793FF10BD10B504462001FFF792FFAF
:1005400010BD042808D14FF0E021096941F00401F1
:100550004FF0E022116107E04FF0E021096921F03E
:1005600004014FF0E0221161704700000000FA051D
:100570000CED00E000E400E080E100E080FFFF1F00
:1005800010B5012000F0A0FF002000F09DFF10BD7D
:100590002A49086070472949091F086070472749A0
:1005A00084310860704701460020254A10884FF6C4
:1005B0007F4210400843224A1080704701460020C5
:1005C0001F4A10884FF68072104008431C4A108062
:1005D000704708B500220092194A2C3A0092009AFE
:1005E00002440092009A116008BD08B5014600203F
:1005F000009013482C380090009808440090009810
:10060000008808BD0D489C300068C0B270470C4897
:100610000830008840F0010009490831088070471F
:100620000648A0300068C0B270470548083000880E
:1006300040F00200024908310880704704860D42EC
:100640002C6C0040002044490860091D0860091D09
:100650000860091D086041483F491431086070472F
:1006600000213D498279002A3AD00A46126803687F
:100670009A430B461A600A1D126803689A430B1DC1
:100680001A60027911440A6803681A430A60324A00
:100690000832126803689A432F4B08331A601A1DF8
:1006A000126803689A432C4B0C331A604279102A63
:1006B0000ED11A1F126803681A43274B08331A60B9
:1006C0001A1D126803681A43234B0C331A600DE09D
:1006D0002149427911440A6803681A430A6005E017
:1006E000027911440A6803689A430A60704700213E
:1006F000016001710C21417100218171704716491F
:10070000103109680143144A1032116070470146E4
:100710000020114A143212680A400AB1012000E098
:10072000002070470C4914310860704701460020D2
:100730000022094B1B6803EA0102074B14331B68B4
:100740000B4013B10AB1012000E0002070470249BC
:10075000143108607047000000040140FFFF0F00E3
:1007600001460020FE4A106800F03800084310607F
:100770007047FB49096821F00801F94A11601146E8
:100780000968014311607047F549096821F01001BB
:10079000F34A116011460968014311607047F1483E
:1007A000EF494860F04848607047EE48EC494860BF
:1007B000ED4848607047EA48006940F08000E84929
:1007C00008617047E648006940F08000E44908612C
:1007D00070470420E249C96801F0010109B1012014
:1007E0000EE0DF49C96801F0040109B1022007E009
:1007F000DB49C96801F0100109B1032000E00420C1
:10080000704700B502460423FFF7E3FF034603E009
:10081000FFF7DFFF0346521E012B01D1002AF7D15B
:1008200002B90523184600BD30B5044604254FF42F
:100830003020FFF7E6FF0546042D17D1C8480069B0
:1008400040F00200C649086108464461006940F072
:10085000400008614FF43020FFF7D3FF0546C04841
:10086000006941F6FD710840BD490861284630BD68
:1008700010B504244FF43020FFF7C3FF0446042CC6
:1008800016D1B748006940F00400B5490861084630
:10089000006940F0400008614FF43020FFF7B1FFDD
:1008A0000446AF48006941F6FB710840AC49086155
:1008B000204610BD00B502460423FFF78AFF034619
:1008C00003E0FFF786FF0346521E012B01D1002AE9
:1008D000F7D102B90523184600BD10B504244FF422
:1008E0003020FFF7E7FF0446042C16D19C4800692E
:1008F00040F004009A4908610846006940F0400051
:1009000008614FF43020FFF7D5FF04469448006992
:1009100041F6FB71084092490861204610BD002055
:100920008F49C96901F0020109B1012000E00020EE
:10093000704730B5A5250424FFF7F1FF00B100256D
:100940004FF43020FFF75DFF0446042C3AD1854870
:1009500083498860844888600846006940F0200028
:1009600008610846006940F0400008614FF43020FB
:10097000FFF747FF0446042C1BD17948006941F674
:10098000DF710840764908610846006940F01000B0
:10099000086176480580E002FFF733FF0446052C26
:1009A00010D06F48006941F6EF7108406C4908614A
:1009B00008E0052C06D06A48006941F6EF7108404E
:1009C00067490861204630BD78B506460C460425C7
:1009D00000200090E802FFF714FF0546042D24D103
:1009E0005F48006940F001005D4908613480E80219
:1009F000FFF707FF0546042D10D1B01C0090200C16
:100A000000990880E802FFF7FCFE0546544800699B
:100A100041F6FE7108405249086106E050480069FD
:100A200041F6FE7108404E490861284678BD70B510
:100A300004460D460426F002FFF7E3FE0646042EA8
:100A400011D14748006940F00100454908612580FF
:100A5000F002FFF7D6FE06464148006941F6FE71F6
:100A600008403F490861304670BD70B505460E46E6
:100A70000424E002FFF7C5FE0446042C17D13948D0
:100A800037498860384888600846006940F010009F
:100A900008612E80E002FFF7B4FE0446052C06D064
:100AA0002F48006941F6EF7108402D490861204642
:100AB00070BD2DE9F04304464FF6FF763746B04649
:100AC000B1460425E443E6B2C4F30727C4F307485C
:100AD0004FEA1469E802FFF794FE0546042D49D158
:100AE00020481F498860204888600846006940F017
:100AF00010000861FF2E06D01C4808300680E8026E
:100B0000FFF77FFE0546042D08D1FF2F06D01748BA
:100B10000A300780E802FFF774FE0546042D0AD16B
:100B2000B8F1FF0F07D011480C30A0F80080E802A0
:100B3000FFF767FE0546042D0AD1B9F1FF0F07D074
:100B40000A480E30A0F80090E802FFF75AFE05466A
:100B5000052D0FD00248006941F6EF71084007E00B
:100B60000020024023016745AB89EFCD00F8FF1F4D
:100B7000664908612846BDE8F08330B5054604247F
:100B80004FF43020FFF73DFE0446042C41D160486D
:100B90005E4988605F4888600846006940F0200030
:100BA00008610846006940F0400008614FF43020B9
:100BB000FFF727FE0446042C22D15448006941F671
:100BC000DF710840514908610846006940F0100093
:100BD00008611DB100205049088002E0A5204E495F
:100BE00008804FF43020FFF70CFE0446052C10D08F
:100BF0004648006941F6EF7108404449086108E041
:100C0000052C06D04148006941F6DF7108403F4994
:100C10000861204630BDF0B505460E46174604244F
:100C20003B483A4988603B488860E002FFF7E9FDAD
:100C30000446042C19D13548006940F010003349AE
:100C4000086147F0F800304328433349891C088085
:100C5000E002FFF7D6FD0446052C06D02B480069BC
:100C600041F6EF710840294908612046F0BD274848
:100C7000C069800870472548006A704700202349F2
:100C8000096801F0200109B1012000E0002070474F
:100C900029B11E4A126902431C4B1A6104E01B4A27
:100CA00012698243194B1A617047014600200129DD
:100CB00008D1164AD26902F001020AB1012008E007
:100CC000002006E0114AD2680A400AB1012000E083
:100CD000002070470D49C860704704200B49C9685F
:100CE00001F0010109B101200EE00849C96801F0D5
:100CF000040109B1022007E00449C96801F01001AC
:100D000009B1032000E004207047000000200240E9
:100D100023016745AB89EFCD00F8FF1F10B50446EE
:100D2000CC48844208D10121042000F0B3FB00210B
:100D3000042000F0AFFB46E0C748844208D10121FF
:100D4000082000F0A7FB0021082000F0A3FB3AE0F8
:100D5000C248844208D10121102000F09BFB0021F1
:100D6000102000F097FB2EE0BD48844208D10121FD
:100D7000202000F08FFB0021202000F08BFB22E0E0
:100D8000B848844208D10121402000F083FB0021B3
:100D9000402000F07FFB16E0B348844208D10121D7
:100DA000802000F077FB0021802000F073FB0AE038
:100DB000AE48844207D10121801500F06BFB002171
:100DC000A01500F067FB10BD10B50121084600F02A
:100DD00061FB0021012000F05DFB10BD2DE9F04119
:100DE000024600250026002000230024002791F859
:100DF00003C00CF00F0591F803C00CF0100CBCF10F
:100E0000000F03D091F802C04CEA050591F800C02C
:100E1000BCF1000F31D0146800202BE04FF0010C22
:100E20000CFA00F3B1F800C00CEA03069E4220D190
:100E300083004FF00F0C0CFA03F7BC4305FA03FCD8
:100E40004CEA040491F803C0BCF1280F06D14FF01E
:100E5000010C0CFA00FCC2F814C00AE091F803C0BF
:100E6000BCF1480F05D14FF0010C0CFA00FCC2F8A0
:100E700010C0401C0828D1D31460B1F800C0BCF1E8
:100E8000FF0F34DD546800202EE000F1080C4FF015
:100E9000010808FA0CF3B1F800C00CEA03069E4200
:100EA00021D183004FF00F0C0CFA03F7BC4305FA75
:100EB00003FC4CEA040491F803C0BCF1280F05D1EF
:100EC00000F1080C08FA0CF8C2F8148091F803C07D
:100ED000BCF1480F07D100F1080C4FF0010808FAE7
:100EE0000CF8C2F81080401C0828CED35460BDE82E
:100EF000F0814FF6FF710180022181700421C170E1
:100F000070470246002093680B400BB1012000E0BF
:100F1000002070470146886880B270470246002072
:100F2000D3680B400BB1012000E000207047014660
:100F3000C86880B2704701617047416170470AB16B
:100F4000016100E041617047C16070474FF4803239
:100F50000A438261816182618269826970470246C7
:100F60000020434B18684FF68073184040EA021087
:100F700008433F4B186070473E49C8617047F0B561
:100F80000A46002300240021002500F00046B6F1A7
:100F9000004F02D1364EF16901E0354E7168C0F361
:100FA000034583B200F44016B6F5401F08D121F086
:100FB00070612F4E766826F070662D4F7E6012E0CD
:100FC00000F48016B6F5801F06D1032606FA05F454
:100FD000A14341F0706106E0460D360103FA06F6C2
:100FE000B14341F0706122B1460D360103FA06F6B5
:100FF000314300F00046B6F1004F02D11C4EF161C2
:1010000001E01B4E7160F0BD30B500228B071C0F54
:101010000F2303FA04F2164B08338C1053F82430D4
:101020009343134C08348D1044F8253023468C101C
:1010300053F824308C07240F00FA04F423430C4C9B
:1010400008348D1044F8253030BD0A49DC31086081
:101050007047000000080140000C014000100140F2
:101060000014014000180140001C01400020014014
:1010700000000140000020420E49086070470D4901
:10108000486070470B49886070474AF6AA200949B2
:10109000086070474CF6CC4006490860704701462E
:1010A0000020044AD2680A400AB1012000E0002072
:1010B000704700000030004010B50121080700F023
:1010C000F6F900214FF0805000F0F1F910BD2A49E7
:1010D0000862704728490861704701460020274A86
:1010E000106820F0E0000843106070472249A031EA
:1010F0000860704710B502460020204B186820F0A9
:101100000300104318601E4B1B6843F004031C4C83
:101110002360012901D130BF00E020BF184B1B68BC
:1011200023F00403164C236010BD1448006840F0FF
:101130000400124908600846006840F00200086098
:101140000F48006840F004000D49086000BF00BF70
:1011500030BF704701460020084A52680A400AB171
:10116000012000E0002070470449096841EA80013D
:10117000024A11607047000000000E4200700040FB
:1011800010ED00E0DF48006840F00100DD49086034
:1011900008464068DC490840DA494860084600686B
:1011A000DA490840D74908600846006820F48020E2
:1011B00008600846406820F4FE0048604FF41F00B5
:1011C00088607047CF49096821F48031CD4A1160A9
:1011D0001146096821F480211160B0F5803F03D0E9
:1011E000B0F5802F0ED106E0C649096841F4803180
:1011F000C44A116007E0C349096841F4A021C14A0B
:10120000116000E000BF00BF704710B5014600222A
:10121000002300204A11012A02D1BA4C236806E0BB
:10122000022A02D1B74C236A01E0B64C636A01F08E
:101230001F02012494401C400CB1012000E000205A
:1012400010BD38B5002000900024002500BF3120DB
:10125000FFF7DBFF05460098401C00900098B0F5B2
:10126000A06F01D0002DF2D03120FFF7CEFF08B1E2
:10127000012400E00024204638BD01460020A14A98
:10128000106820F0F80040EAC10010607047A049E3
:1012900008607047024600209A4B586820F47C1082
:1012A00042EA01031843974B586070479849086613
:1012B000704701460020934A506820F0030008431D
:1012C000506070478F48406800F00C00704701463E
:1012D00000208C4A506820F0F000084350607047AE
:1012E00001460020874A506820F4E06008435060BF
:1012F000704701460020834A506820F4605040EA5D
:10130000C1005060704729B17E4A527A02437D4B3A
:101310005A7204E07B4A527A82437A4B5A7270477F
:101320007B49D8310860704701460020754A5068F3
:1013300020F440400843506070470021714A203239
:101340001170704A82F82010012802D004280AD1B6
:1013500004E001216B4A2032117005E00521694A41
:101360002032117000E000BF00BF7047694908607B
:1013700070476449096A0143624A116270476549CE
:1013800044390860704730B5002100220024002352
:101390005C4D6D6805F00C0121B1042905D00829C8
:1013A00023D105E05C4D056022E05B4D05601FE048
:1013B000544D6D6805F47012524D6D6805F480341B
:1013C000022505EB92421CB9544D554305600BE0D4
:1013D0004C4D6D6805F400351DB1504D5543056009
:1013E00002E04D4D5543056002E04B4D056000BFE6
:1013F00000BF444D6D6805F0F0010909484D6B5C74
:101400000568DD4045603F4D6D6805F4E061090AFF
:10141000434D6B5C4568DD4085603A4D6D6805F471
:101420006051C90A3E4D6B5C4568DD40C560354D75
:101430006D6805F44041890B3A4D6B5CC568B5FB9E
:10144000F3F5056130BD29B12E4A526902432D4B97
:101450005A6104E02B4A526982432A4B5A61704711
:1014600029B1284A92690243264B9A6104E0254A31
:1014700092698243234B9A61704729B1214AD2690C
:101480000243204BDA6104E01E4AD26982431D4BBD
:10149000DA61704729B11B4AD2680243194BDA60FE
:1014A00004E0184AD2688243164BDA60704729B1CB
:1014B000144A12690243134B1A6104E0114A12697B
:1014C0008243104B1A6170471249403908607047D7
:1014D0000F49C86470470B49C87170470948406A92
:1014E00040F0807007494862704701460020054A75
:1014F00092680A400AB1012000E0002070470149CB
:1015000088727047001002400000FFF8FFFFF6FEEF
:10151000000042428004424200127A0000093D006D
:10152000140000202400002029B1504A12880243F0
:101530004E4B1A8004E04D4A128882434B4B1A806E
:1015400070474A48001D008840F010004749091DB7
:10155000088070474548001D00884FF6EF7108402D
:101560004249091D08807047002140481C3001880D
:10157000001F008841EA0040704700B50246FFF7AF
:10158000E0FF100C394918310880091D0A80FFF767
:10159000E1FF00BD00B50246FFF7D3FFC2F30340F1
:1015A000324908310880091D0A80FFF7D3FF00BDCA
:1015B00000B50246FFF7C5FF100C2C49203108800A
:1015C000091D0A80FFF7C6FF00BD00202749103122
:1015D00009880907080B2549143109880843704711
:1015E00000BF2248001D008800F020000028F8D02D
:1015F00070471E48001D00884FF6F77108401B49D0
:10160000091D088000BF1948001D008800F008006F
:101610000028F8D0704701460020144A121D128895
:101620000A400AB1012000E0002070470F49091D5F
:10163000098881430D4A121D118070470146002020
:101640000A4A121D12880A40D0B2084A12880A407B
:1016500012B108B1012000E0002070470349091DC4
:1016600009888143014A121D1180704700280040FB
:1016700010B50446FE48844208D10121C014FFF78A
:1016800009FF0021E014FFF705FFC4E0B4F1804F2B
:1016900008D101210846FFF70AFF00210120FFF7CA
:1016A00006FFB8E0F348844208D101210220FFF789
:1016B000FEFE00210220FFF7FAFEACE0EE48844275
:1016C00008D101210420FFF7F2FE00210420FFF7DA
:1016D000EEFEA0E0E948844208D101210820FFF78E
:1016E000E6FE00210820FFF7E2FE94E0E448844291
:1016F00008D101211020FFF7DAFE00211020FFF7AA
:10170000D6FE88E0DF48844208D101212020FFF77F
:10171000CEFE00212020FFF7CAFE7CE0DA4884429A
:1017200008D101214014FFF7B5FE00216014FFF736
:10173000B1FE70E0D548844209D10121C804FFF709
:10174000A9FE00214FF40020FFF7A4FE63E0D0487B
:10175000844209D101210805FFF79CFE00214FF4C6
:101760008010FFF797FE56E0CA48844209D1012154
:101770004805FFF78FFE00214FF40010FFF78AFEA7
:1017800049E0C548844208D101214020FFF78FFE7F
:1017900000214020FFF78BFE3DE0C048844208D185
:1017A00001218020FFF783FE00218020FFF77FFECC
:1017B00031E0BB48844208D101218015FFF777FE54
:1017C0000021A015FFF773FE25E0B648844209D139
:1017D00001210804FFF75EFE00214FF48030FFF77F
:1017E00059FE18E0B048844209D101214804FFF7AE
:1017F00051FE00214FF40030FFF74CFE0BE0AB48E8
:10180000844208D101218804FFF744FE00214FF4EF
:101810008020FFF73FFE10BD00220288944B9842C3
:101820000ED0994B98420BD0B0F1804F08D0914B1D
:10183000984205D0904B984202D0904B984204D1E8
:101840004FF68F731A404B881A438D4B984207D03E
:101850008C4B984204D04FF6FF431A40CB881A4372
:1018600002808B8883850B880385814B98420BD03F
:10187000854B984208D08B4B984205D08A4B9842B2
:1018800002D08A4B984201D10B7A038601238382CE
:10189000704770B5002400220023058C4FF6FE76B9
:1018A00035400584028C8388048B4FF68F752C405D
:1018B000B51E2C400D882C43751E2A400D892A43E5
:1018C0004D882A436A4DA8420BD06F4DA84208D0DC
:1018D000744DA84205D0744DA84202D0734DA84261
:1018E00013D14FF6F7752A404D892A434FF6FB7501
:1018F0002A408D882A434FF6FF652B404FF6FF554F
:101900002B408D892B43CD892B4383800483CD8845
:101910008586028470BD70B5002400220023058CEA
:101920004FF6EF7635400584028C8388048B48F6A9
:10193000FF752C404FF6FF452C400D884FF6FF7683
:1019400006EA05252C434FF6DF752A400D8906EA85
:1019500005152A434D8806EA05152A43444DA84239
:1019600002D0494DA8421DD14FF67F752A404D89BE
:101970004FF6FF7606EA05152A434FF6BF752A4053
:101980008D8806EA05152A434FF6FF352B404FF2A6
:10199000FF752B408D8906EA85052B43CD8906EA24
:1019A00085052B4383800483CD880587028470BD21
:1019B00070B5002400220023058C4FF6FF663540E9
:1019C0000584028C8388848B4FF68F752C404FF6EC
:1019D000FC752C400D882C434FF6FF552A400D898D
:1019E0004FF6FF7606EA05252A434D8806EA0525C7
:1019F0002A431F4DA84202D0234DA8421DD14FF2C9
:101A0000FF752A404D894FF6FF7606EA05252A43E1
:101A10004FF6FF352A408D8806EA05252A434EF603
:101A2000FF752B404DF6FF752B408D8906EA051595
:101A30002B43CD8906EA05152B4383808483CD880B
:101A40008587028470BD70B5002200230024058CB8
:101A50004EF6FF7635400584038C8488828B48F6E9
:101A6000FF752A404FF6FF452A400D8820E0000010
:101A7000002C01400004004000080040000C004021
:101A8000001000400014004000340140004C0140B0
:101A9000005001400054014000180040001C00406C
:101AA0000020004000400140004401400048014047
:101AB0004FF6FF7606EA05252A434DF6FF752B40C3
:101AC0000D8906EA05352B434D8806EA05352B437B
:101AD000FA4DA84202D0FA4DA84208D14BF6FF7544
:101AE0002C408D894FF6FF7606EA85152C438480BD
:101AF0008283CD88A0F84050038470BD828B4FF262
:101B0000FF331A408283828B4FF6FF7303EA01236F
:101B10001A4382837047F0B50C4615460022002117
:101B20000026078C4EF6FF7C07EA0C070784828BA1
:101B3000018C4FF6FF7707EA043640F6FF473A403C
:101B40004FF6FF7707EA05273A434FF6FF7707EA94
:101B500003373A43D94FB8420ED0D94FB8420BD0D1
:101B6000B0F1804F08D0D74FB84205D0D64FB84219
:101B700002D0D64FB84206D14DF6FF77394046F431
:101B80008057394305E047F6FF57394044F4805702
:101B9000394382830184F0BD828B4FF6F3731A4080
:101BA0008283828B0A4382837047F0B50C461546C8
:101BB000002200210026078C4FF6FF6C07EA0C0775
:101BC0000784828B018C4FF6FF7707EA04264FF6D5
:101BD0000C773A404FF6FF7707EA03172F433A4353
:101BE000B64FB8420ED0B64FB8420BD0B0F1804FCE
:101BF00008D0B44FB84205D0B34FB84202D0B34F6B
:101C0000B84206D14FF6FF57394046F48077394342
:101C100005E04FF2FF57394044F48077394382831F
:101C20000184F0BD028B4FF2FF331A400283028B16
:101C30004FF6FF7303EA01231A4302837047F0B59E
:101C40000C461546002200210026078C4FF6EF7C3B
:101C500007EA0C070784028B018C4FF6FF7707EA2F
:101C6000041640F6FF473A404FF6FF7707EA03377E
:101C70003A434FF6FF7707EA05273A438F4FB842BA
:101C80000ED08F4FB8420BD0B0F1804F08D08D4F9F
:101C9000B84205D08C4FB84202D08C4FB84206D122
:101CA0004FF6DF77394046F01007394305E04FF62D
:101CB0005F77394044F01007394302830184F0BD57
:101CC000028B4FF6F3731A400283028B0A4302839E
:101CD0007047F0B50C46154600220021068C4FF6E1
:101CE000FE773E400684028B018C4FF60C76324024
:101CF0007E1C06EA03162E433243704EB0420ED0CD
:101D00006F4EB0420BD0B0F1804F08D06D4EB04254
:101D100005D06D4EB04202D06C4EB04206D14FF6A7
:101D2000FD76314044F00106314305E04FF6F5768B
:101D3000314044F00106314302830184F0BD70B5A7
:101D400005460C465D4885420ED05D4885420BD065
:101D5000B5F1804F08D05B48854205D05A4885428E
:101D600002D05A48854200D100E000BF208850B917
:101D70002389A28861882846FFF7ABFFE1882846BF
:101D8000FFF79EFF25E0208804280AD12389A28836
:101D900061882846FFF753FFE1882846FFF742FF96
:101DA00017E0208808280AD12389A288618828465C
:101DB000FFF7FBFEE1882846FFF7EEFE09E02389E6
:101DC000A28861882846FFF7A6FEE1882846FFF72B
:101DD00095FE70BD2DE9F04105460C460026012711
:101DE000608808B9022600E00026A088012801D1F9
:101DF000022700E001272088A0B92389A2886188F2
:101E00002846FFF766FFE1882846FFF759FF238938
:101E10003A4631462846FFF712FFE1882846FFF789
:101E200001FF13E02389A28861882846FFF707FF96
:101E3000E1882846FFF7F6FE23893A4631462846D0
:101E4000FFF747FFE1882846FFF73AFFBDE8F0813A
:101E50000A884B881A438B881A43CB881A430B890C
:101E60001A434B891A438B891A43A0F844207047C0
:101E70004FF6FF71818000210180C1804180017295
:101E800070470021018041808180C18001814181B2
:101E90008181C181704700210180418001218180C1
:101EA0000021C18001817047002101804180818033
:101EB000C18001814181818170470000002C014077
:101EC000003401400004004000080040000C0040C5
:101ED00021B1028842F00102028004E002884FF63C
:101EE000FE731A400280704731B1B0F8442042F4CA
:101EF0000042A0F8442005E0B0F84420C2F30E02EE
:101F0000A0F8442070471AB183890B43838102E013
:101F100083898B43838170478182704741EA020342
:101F2000A0F8483070471AB183890B43838102E0DF
:101F300083898B438381704701894FF6F872114082
:101F4000018170470A46002101894FF68F731940BD
:101F500011430181704730B504460D46294620469D
:101F6000FFF7F0FF208940F00700208130BD2DE908
:101F7000F04104460D4616461F46602D06D13B46ED
:101F8000012231462046FFF75AFE05E03B4601227A
:101F900031462046FFF79DFE29462046FFF7D2FF37
:101FA000208940F007002081BDE8F08130B50C4663
:101FB00000210189C9B24FF6FF7505EA03251543D3
:101FC00025432943018130BD2DE9F04105460E46E8
:101FD00017469846002443463A4631462846FFF7BE
:101FE000E5FF2C894FF6F870044044F007044FF6E3
:101FF0008F70044044F070042C81BDE8F081F0B58E
:1020000004460D4616461F463B46324629462046A4
:10201000FFF7CCFF208940F480402081F0BD01858E
:10202000828270470A46002101884FF68F7319405B
:10203000114301807047F0B50C4615461E4600213D
:10204000002200230189028B038C4FF6F877394078
:1020500021434FF6FC473A4040F201173A434FF60E
:10206000DD773B404FF6FF7707EA06172F433B43E8
:10207000018102830384F0BD0A460021018B4FF6E3
:102080008F7319401143018370470A460021018B69
:1020900048F6FF7319404FF6FF7303EA0223194312
:1020A000018370470A460021818B4FF68F731940D8
:1020B0001143818370470A460021818B48F6FF73E4
:1020C00019404FF6FF7303EA0223194381837047D7
:1020D00021B1028842F08002028004E002884FF6BB
:1020E0007F731A400280704721B1828842F0040257
:1020F000828004E082884FF6FB731A40828070472A
:1021000021B1828842F00802828004E082884FF682
:10211000F7731A408280704721B1828842F0010231
:10212000828004E082884FF6FE731A4082807047F6
:102130000A460021018B4FF6F773194011430183C2
:1021400070470A460021018B4FF2FF7319404FF68A
:10215000FF7303EA02231943018370470A460021F3
:10216000818B4FF6F77319401143818370470A46FC
:102170000021818B4FF2FF7319404FF6FF7303EA82
:1021800002231943818370470A460021018B4FF6D1
:10219000FB7319401143018370470A460021018BEC
:1021A0004FF6FF3319404FF6FF7303EA022319433A
:1021B000018370470A460021818B4FF6FB7319405B
:1021C0001143818370470A460021818B4FF6FF330C
:1021D00019404FF6FF7303EA0223194381837047C6
:1021E0000A460021018B4FF67F731940114301838A
:1021F00070470A460021018BC1F30E014FF6FF73B1
:1022000003EA02231943018370470A460021818BA8
:102210004FF67F7319401143818370470A460021AE
:10222000818BC1F30E014FF6FF7303EA02231943BA
:10223000818370470A460021018C4FF6FD731940D7
:102240001143018470470A460021018C4FF6F77351
:1022500019401143018470470A460021018C4FF652
:10226000DF7319404FF6FF7303EA02131943018429
:1022700070470A460021018C4FF67F7319404FF6D4
:10228000FF7303EA02131943018470470A460021D1
:10229000018C4FF6FF5319404FF6FF7303EA0223F8
:1022A0001943018470470A460021018C4FF2FF73E5
:1022B00019404FF6FF7303EA022319430184704764
:1022C0000A460021018C4DF6FF7319404FF6FF734B
:1022D00003EA023319430184704730B50023012417
:1022E0008C40A3B2048C9C430484048C02FA01F554
:1022F000ADB22C43048430BD30B5002304248C409F
:10230000A3B2048C9C430484048C02FA01F5ADB2A0
:102310002C43048430BD70B50346002000241846C9
:10232000183001258D40ACB21D8CA5431D8409B128
:10233000082909D100EB6100056825F070050560EA
:102340000568154305600EE00D1FC5F34E052844D2
:10235000056825F4E045056005684FF6FF7606EA56
:1023600002263543056070BD21B1028842F00202A9
:10237000028004E002884FF6FD731A400280704725
:1023800021B1028842F00402028004E002884FF684
:10239000FB731A400280704721B1828842F08002AC
:1023A000828004E082884FF67F731A4082807047F3
:1023B00002884FF6F7731A40028002880A430280AF
:1023C000704782884FF68F731A40828082880A4352
:1023D0008280704702894FF6F8731A4002810289A1
:1023E0000A430281704702894FF67F731A400281C7
:1023F00002890A4302817047818470478185704752
:10240000818670470187704781877047A0F8401028
:10241000704702884FF6FF431A40028002880A4341
:10242000028070470146888E70470146088F7047CA
:102430000146888F70470146B1F840007047014659
:10244000888C70470146088D704702460020138A29
:102450000B400BB1012000E000207047CA4302820C
:10246000704730B50246002000230024158A05EA93
:102470000103958905EA010413B10CB1012000E0C4
:10248000002030BDCA4302827047000010B50446E8
:10249000FB48844209D101218803FEF7FBFF00219C
:1024A0004FF48040FEF7F6FF32E0F648844209D14F
:1024B00001214804FEF7FBFF00214FF40030FEF736
:1024C000F6FF25E0F048844209D101218804FEF797
:1024D000EEFF00214FF48020FEF7E9FF18E0EB4803
:1024E000844209D10121C804FEF7E1FF00214FF425
:1024F0000020FEF7DCFF0BE0E548844208D1012113
:102500000805FEF7D4FF00214FF48010FEF7CFFF3F
:1025100010BD2DE9F04786B005460E460024A246C0
:1025200000BFA1460027B08900B100BF2F462C8A0A
:102530004CF6FF700440F08804432C82AC894EF6C0
:10254000F3100440B088318908437189084304437B
:10255000AC81AC8A4FF6FF400440B0890443AC82A2
:1025600001A8FEF710FFC648874202D1DDF810A08F
:1025700001E0DDF80CA0A88900F4004040B10AEBAE
:10258000CA0000EB0A1031684900B0FBF1F807E01F
:102590000AEBCA0000EB0A1031688900B0FBF1F8C1
:1025A0006420B8FBF0F004012009642101FB1089CC
:1025B000A88900F4004040B1322000EBC900B0FB14
:1025C000F1F000F00700044308E0322000EB0910AE
:1025D0006421B0FBF1F000F00F0004432C8106B041
:1025E000BDE8F0874FF41651016000218180C18061
:1025F00001810C21418100218181704710B5024683
:102600000020108A4FF2FF0318400B884C882343A8
:102610008C882343CC8823431843108210BD0021AB
:10262000018041808180C180704721B1828942F45C
:102630000052828104E082894DF6FF731A40828144
:102640007047F0B50346002400260025002040F620
:102650006A17B94200D100BF1846C1F3421401F015
:102660001F06012707FA06F5012C01D10C3004E002
:10267000022C01D1103000E014301AB107682F434A
:10268000076002E00768AF430760F0BD1AB1838AB4
:102690000B43838202E0838A8B4383827047028AE2
:1026A0004FF6F0731A400282028A0A430282704790
:1026B00082894FF2FF731A40828182890A438281A4
:1026C000704721B1828942F00202828104E082894E
:1026D0004FF6FD731A4082817047028A4FF6DF730E
:1026E0001A400282028A0A430282704721B1028A9A
:1026F00042F48042028204E0028A4BF6FF731A40E1
:1027000002827047C1F308028280704701468888C0
:10271000C0F308007047818941F001018181704751
:10272000028BD2B20283028B42EA012202837047FB
:10273000028B02F47F420283028B0A4302837047BA
:1027400021B1828A42F02002828204E0828A4FF61E
:10275000DF731A408282704721B1828A42F01002F0
:10276000828204E0828A4FF6EF731A4082827047B9
:1027700021B1828A42F00802828204E0828A4FF606
:10278000F7731A408282704721B1828942F4004275
:10279000828103E08289C2F30E028281704721B1F7
:1027A000828A42F40062828204E0828A4FF2FF73DE
:1027B0001A4082827047828A4FF6FB731A408282E7
:1027C000828A0A438282704721B1828A42F00202E1
:1027D000828204E0828A4FF6FD731A40828270473B
:1027E00002460020B1F5007F00D100BF13880B40E6
:1027F0000BB1012000E00020704701F40072B2F537
:10280000007F00D100BFCA430280704770B5024606
:10281000002400230025002040F66A16B14200D1B2
:1028200000BFC1F3421501F01F03012606FA03F3AE
:10283000012D02D19689334006E0022D02D1168A7D
:10284000334001E0968A33400C12012606FA04F464
:102850001688344013B10CB1012000E0002070BD97
:1028600010B50022002340F66A14A14200D100BF37
:102870000A1201249440A3B2DC43048010BD00007E
:10288000003801400044004000480040004C004037
:102890000050004010B5FEF775FC4FF48030FEF795
:1028A00091FCFEF7CEFC0446012C24D10220FDF75A
:1028B00057FF1020FDF768FF0020FEF708FD0020FD
:1028C000FEF717FDA002FEF70BFD4FF4E011200408
:1028D000FEF7E0FC0120FEF7E9FC00BF3920FEF71F
:1028E00094FC0028FAD00220FEF7E3FC00BFFEF7BC
:1028F000E9FC0828FBD101217D20FEF7B1FD012173
:102900005A48FEF73CFB0120FEF730FD6FF0040053
:10291000FDF717FE564800685649B0FBF1F05649DE
:102920000870534800684FF4FA51B0FBF1F0534976
:10293000088010BD10B5014609B9002010BD5048EF
:1029400002680A70100A4870100C8870100EC87067
:102950004B48001D03680B71180A4871180C8871E8
:10296000180EC8714648083004680C72200A487274
:10297000200C8872200EC8720C20DFE710B5FEF71D
:1029800084FB10BD10B5FFF7F9FF10BD10B504466C
:1029900045F25550FEF770FB0520FEF770FB3948F5
:1029A00004604FF49C71614388B2FEF76BFBFEF745
:1029B0006CFBFEF76FFB4FF47A71334801F010FFA8
:1029C00010BD70B505462C48007868434FF0E021F3
:1029D0004861002088610846006940F001000861F4
:1029E00000BF2848006808B1FFF7C8FF4FF0E0209B
:1029F000046904F0010018B104F480300028F0D01C
:102A00004FF0E020006920F001004FF0E021086164
:102A10000020886170BD70B505461848008868437D
:102A20004FF0E0214861002088610846006940F0CD
:102A30000100086100BF1348006808B1FFF79EFF5E
:102A40004FF0E020046904F0010018B104F4803074
:102A50000028F0D04FF0E020006920F001004FF096
:102A6000E02108610020886170BD00000004300092
:102A70000000002000127A00280000202A00002018
:102A8000E8F7FF1F2C0000208529000870B50B46D1
:102A90000024002109E0C4B25D5C65401C4E36F89C
:102AA000155085EA20204D1CA9B29142F3DB70BD80
:102AB00030B50B460021002400BF0AE05D5C85EACA
:102AC0002024144D35F8145085EA0025A8B24D1C79
:102AD000A9B29142F2DB30BD70B504460D461646F0
:102AE000324629462046FFF7E3FF70BD30B50B465E
:102AF0000021002400BF08E05D5C85EA1064064DFB
:102B000055F8245085EA0020491C9142F4D330BD89
:102B1000405F000840610008406300082DE9FE4363
:102B200007460C4615461E46DDF82880012108465A
:102B3000FEF796FCE1B23846FEF766FA0120A040A7
:102B400001908DF808508DF8096001208DF80A0079
:102B500001A8FDF785FD4FF4C060FDF78DFC052C45
:102B600004DAA01DC0B28DF8000008E00A2C03DAD8
:102B700017208DF8000002E028208DF800000120C9
:102B80008DF8010002208DF8020001208DF803006D
:102B90006846FDF776FC7D4840F82480BDE8FE835A
:102BA00010B50120FDF7C2FD012807D1FDF7CFFDCB
:102BB0007648006810B175490868804710BD10B5A7
:102BC0000220FDF7B3FD012808D10220FDF7BFFD6B
:102BD0006E48406810B16D494868804710BD10B517
:102BE0000420FDF7A3FD012808D10420FDF7AFFD67
:102BF0006648806810B165498868804710BD10B587
:102C00000820FDF793FD012808D10820FDF79FFD5E
:102C10005E48C06810B15D49C868804710BD10B5F6
:102C20001020FDF783FD012808D11020FDF78FFD4E
:102C30005648006910B155490869804710BD10B564
:102C40002020FDF773FD012808D12020FDF77FFD2E
:102C50004E48406910B14D49486980474020FDF712
:102C600065FD012808D14020FDF771FD47488069C6
:102C700010B14649886980478020FDF757FD01283B
:102C800008D18020FDF763FD4048C06910B13F497D
:102C9000C86980474FF48070FDF748FD012808D1CE
:102CA0000002FDF754FD3948006A10B13749086A3F
:102CB00080474FF40070FDF739FD012808D140022C
:102CC000FDF745FD3148406A10B13049486A8047F8
:102CD00010BD10B54FF48060FDF728FD012808D124
:102CE0008002FDF734FD2948806A10B12749886ABF
:102CF00080474FF40060FDF719FD012808D1C0029C
:102D0000FDF725FD2148C06A10B12049C86A8047F7
:102D10004FF48050FDF70AFD012808D10003FDF7AC
:102D200016FD1A48006B10B11849086B80474FF424
:102D30000050FDF7FBFC012808D14003FDF707FD1B
:102D40001248406B10B11149486B80474FF48040E6
:102D5000FDF7ECFC012808D18003FDF7F8FC0B48D7
:102D6000806B10B10949886B80474FF40040FDF734
:102D7000DDFC012808D1C003FDF7E9FC0348C06B66
:102D800010B10249C86B804710BD0000AC000020A4
:102D900001460020002205E0401C02F500628A4244
:102DA00000D300E0F8E700BF70472DE9F0470024AA
:102DB0000025002601274FF002084FF004094FF0CC
:102DC000010AFDF758FF064606EA0400A04235D086
:102DD000FDF74DFF05463443FDF7ABFD8246601C11
:102DE00018B1E043FDF765FE824605F007000728AD
:102DF00012D005F0010000B9002705F0020008B963
:102E00004FF0000805F0040008B94FF000094A46E9
:102E100041463846FDF7FFFEBAF1040F0ED100BF60
:102E20006448006800F4E06063490843001D61499C
:102E30000860BFF3408F00BF00BFFEE7BDE8F0872A
:102E40002DE9F04705460E464FF00008C146002424
:102E50003046FFF79DFF8146FDF7A1FC3520FDF7C9
:102E600039FF042700BF07E04FF4006101FB045065
:102E7000FDF7DAFC0746641C4C4501D2042FF3D061
:102E8000042F01D14FF00108FDF795FC4046BDE845
:102E9000F0872DE9F05F06460F4690464FF0000997
:102EA0004FF0010B002400253C463546FDF777FC2A
:102EB0003520FDF70FFF4FF0040A00BF0FE0218817
:102EC0002846FDF7B4FD824628882188884202D032
:102ED0004FF0000B08E0A41CAD1C09F10209C1452C
:102EE00002D2BAF1040FEAD000BFBAF1040F01D048
:102EF0004FF0000BFDF75FFC5846BDE8F09F10B5A2
:102F000004460B460BB9002010BD002102E06058BA
:102F10005854491C9142FAD30120F5E72DE9F05F9E
:102F200005460E4617464FF00009CA46C846C34636
:102F30002248854202D20020BDE8F09FC5F30A0076
:102F40003844B0F5007F01D90020F5E7C5F30A0049
:102F5000A5EB000A4FF4007219495046FFF7CFFF66
:102F6000C5F30A0800240EE008EB04001449085CCD
:102F7000315D884206D0305D08EB0401104A5054A0
:102F80004FF0010B641CBC42EED3BBF1000F0ED01E
:102F90004FF400615046FFF753FF40B14FF4007209
:102FA00007495046FFF775FF08B14FF00109484641
:102FB000C2E700000CED00E00000FA0500F0030895
:102FC000EC00002070B504460D4616466648844263
:102FD00003D3A0196549884201D3002070BD0DB903
:102FE0000020FBE7324629462046FFF752FFF5E76F
:102FF00070B504460D4616465B48844201D2002057
:1030000070BD324629462046FFF779FFF8E72DE9E3
:10301000F05F05460E4617464FF00009CA46C846FF
:10302000C3465348854202D20020BDE8F09FC5F355
:103030000A003844B0F5007F01D90020F5E7C5F358
:103040000A00A5EB000A4FF400724A495046FFF708
:1030500056FFC5F30A0800240EE008EB04004549BA
:10306000085C315D884206D0305D08EB0401414ABE
:1030700050544FF0010B641CBC42EED3BBF1000F67
:103080000ED04FF400715046FFF7DAFE40B14FF416
:10309000007238495046FFF7FCFE08B14FF00109B5
:1030A0004846C2E738B504460094012269463048D4
:1030B000FFF7ADFF38BD08B500200090012269463A
:1030C0002B48FFF71CFF9DF8000008B1012008BD48
:1030D0000020FCE710B52848FDF720FE0021042061
:1030E000FEF7BEF900210120FEF7BAF972B610BD55
:1030F00070B5044600251C4884421FD100681F4952
:103100000840B0F1005F15D1FFF7D5FF002827D0A8
:103110001BA002F0C7FC1FA002F0C4FC41F28830E3
:10312000FFF74FFCFFF7D6FF65682068FDF713F83F
:10313000A84715E018A002F0B5FC11E021461EA03A
:1031400002F0B0FC13A002F0ADFC41F28830FFF7B2
:1031500038FCFFF7BFFF65682068FCF7FCFFA84755
:1031600070BD1B490860704700D0000800F00308DC
:1031700000C80008EC020020000801400000FE2FFB
:103180004A756D7020746F204170706C6963617452
:10319000696F6E000D0A00004170706C69636174A4
:1031A000696F6E206973206E6F7420616374697635
:1031B00065210D0A000000004A756D7020746F20B3
:1031C000416464723A2030582530386C5800000051
:1031D00008ED00E07FB504460D46002C41D00121EA
:1031E0000846FEF74AF94FF08040FEF741FA6800C2
:1031F000401E80B2ADF8080048F69F40ADF80400CC
:103200000020ADF80A00ADF8060001A94FF080409B
:10321000FEF702FBF7480078A8B94FF44070FDF7BD
:103220002BF91C208DF8000000208DF801000320F0
:103230008DF8020001208DF803006846FDF721F9A2
:103240000120EC49087001218807FFF707F90122E6
:1032500011469007FEF757FE01218807FEF738FE5A
:1032600011E001218807FFF7F9F800220121880702
:10327000FEF749FE00214FF08040FEF729FE4FF097
:103280008040FEF7F5F97FBD7FB504460D46002C62
:103290003FD001210220FEF7F0F8D748FEF7E8F909
:1032A0006800401E80B2ADF8080048F69F40ADF8B7
:1032B00004000020ADF80A00ADF8060001A9CE48D0
:1032C000FEF7AAFACD480078A8B94FF44070FDF790
:1032D000D3F81D208DF8000000208DF80100032098
:1032E0008DF8020001208DF803006846FDF7C9F84B
:1032F0000120C24908700121BF48FFF7AFF8012241
:103300001146BD48FEF7FFFD0121BB48FEF7E0FD79
:103310000FE00121B848FFF7A1F800220121B648CB
:10332000FEF7F1FD0021B448FEF7D2FDB248FEF7EA
:103330009FF97FBD7FB504460D46002C3FD001218B
:103340000420FEF79AF8AE48FEF792F96800401E96
:1033500080B2ADF8080048F69F40ADF804000020A8
:10336000ADF80A00ADF8060001A9A548FEF754FA29
:10337000A4480078A8B94FF44070FDF77DF81E20EE
:103380008DF8000000208DF8010003208DF8020068
:1033900001208DF803006846FDF773F80120994974
:1033A000087001219648FFF759F801221146944808
:1033B000FEF7A9FD01219248FEF78AFD0FE00121E9
:1033C0008F48FFF74BF8002201218D48FEF79BFD47
:1033D00000218B48FEF77CFD8948FEF749F97FBD47
:1033E0007FB504460D46002C3FD001211020FEF78A
:1033F00044F88548FEF73CF96800401E80B2ADF8FD
:10340000080048F69F40ADF804000020ADF80A001F
:10341000ADF8060001A97C48FEF7FEF97B4800786C
:10342000A8B94FF44070FDF727F836208DF800005A
:1034300000208DF8010003208DF8020001208DF896
:1034400003006846FDF71DF801207049087001214E
:103450006D48FFF703F8012211466B48FEF753FD54
:1034600001216948FEF734FD0FE001216648FEF7AF
:10347000F5FF002201216448FEF745FD0021624866
:10348000FEF726FD6048FEF7F3F87FBD7FB50446E2
:103490000D46002C3FD001212020FDF7EEFF5C48B7
:1034A000FEF7E6F86800401E80B2ADF8080048F666
:1034B0009F40ADF804000020ADF80A00ADF806000A
:1034C00001A95348FEF7A8F952480078A8B94FF46B
:1034D0004070FCF7D1FF37208DF8000000208DF8F8
:1034E000010003208DF8020001208DF803006846DA
:1034F000FCF7C7FF01204749087001214448FEF747
:10350000ADFF012211464248FEF7FDFC0121404873
:10351000FEF7DEFC0FE001213D48FEF79FFF002291
:1035200001213B48FEF7EFFC00213948FEF7D0FCB3
:103530003748FEF79DF87FBD10B501218807FEF7DB
:1035400090FF98B301218807FEF79CFF00242BE031
:1035500004EB4400304951F8200018B304EB440058
:1035600001EB80004068401C04EB44012A4A02EB56
:103570008101486004EB4400114601EB8000406883
:1035800004EB440102EB8101896888420AD30020E0
:1035900004EB440102EB8101486004EB440152F862
:1035A00021008047601C84B2202CD1DB10BD10B5F7
:1035B00001211148FEF755FF48B101210E48FEF7E1
:1035C00061FF1648006810B114490868804710BDB3
:1035D00010B501210A48FEF744FF48B1012108480F
:1035E000FEF750FF0D48406810B10C49486880470D
:1035F00010BD000032000020000400403300002015
:103600000008004034000020001000403500002079
:103610000014004036000020FC040020EC040020D0
:1036200010B50121BA48FEF71CFF48B10121B84886
:10363000FEF728FFB748806810B1B6498868804710
:1036400010BD10B50121B448FEF70BFF48B10121B0
:10365000B148FEF717FFAF48C06810B1AD49C86860
:10366000804710BD2DE9F04105460E46012715B9EA
:10367000B81EBDE8F081A9480088202802DB4FF081
:10368000FF30F6E732210120FFF7A4FD322E03D9E7
:103690003220B6FBF0F700E00127002417E004EB2E
:1036A00044009F4951F82000A8420ED1002004EBAD
:1036B00044019B4A02EB8101486004EB440011463F
:1036C00001EB80008760201DD3E7601C84B2934823
:1036D00000888442E3DB91480088844218D104EBDF
:1036E00044008F4941F82050002004EB44018C4AEB
:1036F00002EB8101486004EB4400114601EB8000BD
:10370000876086480088401C84490880201DB0E7F7
:103710004FF0FF30ADE72DE9F04105460F4600249C
:10372000661E15B9601EBDE8F0817E48006840B98C
:103730007D487C4908607D4848607D4888607D48B8
:10374000C86000240EE0734850F82400A84207D156
:10375000744850F82420394601209047264603E05B
:10376000601C84B2042CEEDB00BF002E1CDA0024A7
:1037700010E0684850F8240050B9664840F82450DA
:10378000684850F82420394601209047264603E037
:10379000601C84B2042CECDB00BF002E04DA394636
:1037A0002846FFF75FFF06463046BCE770B5054682
:1037B0005C48006840B95C485A4908605B4848600A
:1037C0005B4888605B48C860002411E0514850F8AD
:1037D0002400A8420AD100204E4941F82400514853
:1037E00050F8242000210846904770BD601C84B228
:1037F000042CEBDB002409E004EB4400484951F8B9
:103800002000A84200D105E0601C84B24348008833
:103810008442F1DB00BF41480088844237DA00244B
:1038200024E0601C00EB40003D4951F8200004EB0F
:1038300044013B4A42F82100601C00EB4000114665
:1038400001EB8000406804EB440102EB8101486019
:10385000601C00EB4000114601EB8000806804EB27
:10386000440102EB81018860601C84B22B4800880F
:10387000401EA042D5DC29480088401E2749088008
:103880000846008818B900210846FFF7A3FC00BFCE
:10389000ABE770B505462348006840B92248214986
:1038A000086022484860224888602248C86028464C
:1038B00004280CD2284684B20020164941F824007E
:1038C000184850F824200021084690471FE0281F80
:1038D00020281CD284B2002004EB4401104A42F894
:1038E000210004EB440102EB8101486004EB440138
:1038F00002EB8101886009480088401E0749088062
:103900000846008818B900210846FFF763FC70BD1F
:1039100000100040EC0400200014004030000020A3
:10392000FC0400207C0600208932000835330008A2
:10393000E13300088D34000810B50446FE480460E9
:103940000146FE48FEF7E5FD10BD10B50446FA48F5
:1039500084800146F948FEF7DCFD10BD10B5044631
:10396000F548C4800146F548FEF7D3FD10BD10B5FB
:103970000446F14804810146F048FEF7CAFD10BD37
:1039800010B5044600BF4021EC48FEF729FF00288F
:10399000F9D02146E948FEF7B5FE10BD70B50446E2
:1039A0000D4600264CB100BF05E02078FFF7E8FF88
:1039B000641C701C86B2AE42F7DB70BDE049086043
:1039C00070471CB5012144F20500FDF749FDDB48B5
:1039D000FEF75CFD4FF40070ADF8040003208DF895
:1039E000060018208DF8070001A9D648FDF7F6F962
:1039F0004FF48060ADF8040004208DF8070001A9A1
:103A0000D048FDF7EBF94FF4E130CB4908600020D6
:103A10008880C880088188810C204881C748FEF7CB
:103A200078FD25208DF8000000208DF8010003208E
:103A30008DF8020001208DF803006846FCF721FD97
:103A4000012240F22551BD48FEF7FBFD0121BB4894
:103A5000FEF7EBFD1CBD08B54FF40070ADF800009B
:103A600003208DF8020004208DF803006946B54854
:103A7000FDF7B4F94FF48060ADF8000004208DF834
:103A800003006946AF48FDF7A9F9002240F225512D
:103A9000AA48FEF7D6FD0021A848FEF7C6FD002083
:103AA000A749086008BD10B50446A348046100F1A9
:103AB0001001A548FEF72DFD10BD10B504469E4827
:103AC000848200F11001A048FEF723FD10BD10B55F
:103AD00004469948C48200F110019B48FEF719FD85
:103AE00010BD10B504469448048300F110019648B7
:103AF000FEF70FFD10BD10B5044600BF40219248EF
:103B0000FEF76EFE0028F9D021468F48FEF7FAFD39
:103B100010BD70B504460D4600264CB100BF05E04F
:103B20002078FFF7E8FF641C701C86B2AE42F7DB1A
:103B300070BD8349486070471CB501210520FDF721
:103B40008FFC01214804FDF798FC7F48FEF79EFC9E
:103B50000420ADF8040003208DF8060018208DF82D
:103B6000070001A97748FDF739F90820ADF80400EE
:103B700004208DF8070001A97248FDF72FF94FF4D2
:103B8000E1306D49086100216B488182C182018367
:103B900081830C21418300F110016B48FEF7B9FCD1
:103BA00026208DF8000000208DF8010003208DF8FC
:103BB000020001208DF803006846FCF762FC012238
:103BC00040F225516048FEF73CFD01215E48FEF7BA
:103BD0002CFD1CBD08B50420ADF8000003208DF8B5
:103BE000020004208DF8030069465648FDF7F6F8F8
:103BF0000820ADF8000004208DF803006946514804
:103C0000FDF7ECF8002240F225514F48FEF719FD70
:103C100000214D48FEF709FD00204949486008BDD4
:103C200010B504464448046200F120014748FEF7FD
:103C300070FC10BD10B504463F48848400F120019B
:103C40004248FEF766FC10BD10B504463A48C484ED
:103C500000F120013D48FEF75CFC10BD10B50446A4
:103C60003548048500F120013848FEF752FC10BDAC
:103C700010B5044600BF40213448FEF7B1FD0028CE
:103C8000F9D021463148FEF73DFD10BD70B5044620
:103C90000D4600264CB100BF05E02078FFF7E8FF95
:103CA000641C701C86B2AE42F7DB70BD244988608C
:103CB00070471CB501210920FDF7D2FB01218804C2
:103CC000FDF7DBFB2148FEF7E1FB4FF48060ADF828
:103CD000040003208DF8060018208DF8070001A9C4
:103CE0001B48FDF77BF84FF40060ADF8040004209A
:103CF0008DF8070001A91648FDF770F84FF4E13080
:103D00000D49086200210C488184C18401858185A8
:103D10000C21418500F120010C48FEF7FAFB272019
:103D20008DF8000000208DF8010003208DF80200BE
:103D300001208DF803000DE08C06002000380140C2
:103D4000DC0600200008014000440040004800401C
:103D5000000C01406846FCF794FB012240F225511B
:103D6000F748FEF76EFC0121F548FEF75EFC1CBD2E
:103D700008B54FF48060ADF8000003208DF8020014
:103D800004208DF803006946EE48FDF727F84FF44C
:103D90000060ADF8000004208DF803006946E94892
:103DA000FDF71CF8002240F22551E548FEF749FCDA
:103DB0000021E348FEF739FC0020E349886008BD94
:103DC00010B50446E148046300F13001E048FEF715
:103DD000A0FB10BD10B50446DC48848600F130011C
:103DE000DB48FEF796FB10BD10B50446D748C486E5
:103DF00000F13001D648FEF78CFB10BD10B504462B
:103E0000D248048700F13001D148FEF782FB10BD93
:103E100010B5044600BF4021CD48FEF7E1FC002864
:103E2000F9D02146CA48FEF76DFC10BD70B50446B6
:103E30000D4600264CB100BF05E02078FFF7E8FFF3
:103E4000641C701C86B2AE42F7DB70BDBE49C86010
:103E500070471CB501211120FDF702FB0121C804A8
:103E6000FDF70BFBBA48FEF711FB4FF48060ADF88D
:103E7000040003208DF8060018208DF8070001A922
:103E8000B448FCF7ABFF4FF40060ADF80400042029
:103E90008DF8070001A9AF48FCF7A0FF4FF4E1300F
:103EA000AA4908630021A9488186C18601878187C4
:103EB0000C21418700F13001A548FEF72AFB342090
:103EC0008DF8000000208DF8010003208DF802001D
:103ED00001208DF803006846FCF7D3FA012240F276
:103EE00025519B48FEF7ADFB01219948FEF79DFB4C
:103EF0001CBD08B54FF48060ADF8000003208DF8BC
:103F0000020004208DF8030069469248FCF766FF22
:103F10004FF40060ADF8000004208DF803006946FE
:103F20008C48FCF75BFF002240F225518848FEF7E1
:103F300088FB00218648FEF778FB00208249C86094
:103F400008BD10B504468148046400F14001824870
:103F5000FEF7DFFA10BD10B504467C48A0F84440D7
:103F600000F140017C48FEF7D4FA10BD10B50446BC
:103F70007648A0F8464000F140017748FEF7C9FABC
:103F800010BD10B504467148A0F8484000F140014A
:103F90007148FEF7BEFA10BD10B5044600BF4021BF
:103FA0006D48FEF71DFC0028F9D021466A48FEF74F
:103FB000A9FB10BD70B504460D4600264CB100BFEC
:103FC00005E02078FFF7E8FF641C701C86B2AE4263
:103FD000F7DB70BD5C49086170471CB501213120D9
:103FE000FDF73EFA01210805FDF747FA5A48FEF7AA
:103FF0004DFA4FF48050ADF8040003208DF8060010
:1040000018208DF8070001A95248FCF7E7FE0420AC
:10401000ADF804008DF8070001A95048FCF7DEFE5A
:104020004FF4E1304949086400214848A0F84410A1
:10403000A0F84610A0F84810A0F84C100C21A0F8E9
:104040004A1000F140014448FEF763FA35208DF82C
:10405000000000208DF8010003208DF802000120EF
:104060008DF803006846FCF70CFA012240F2255156
:104070003948FEF7E6FA01213748FEF7D6FA1CBDAB
:1040800008B54FF48050ADF8000003208DF8020011
:1040900004208DF8030069462E48FCF79FFE04209B
:1040A000ADF800008DF8030069462C48FCF796FE39
:1040B000002240F225512848FEF7C3FA0021264885
:1040C000FEF7B3FA00202049086108BD10B540F2A0
:1040D00025512348FEF79AFB50B12148FEF716FB05
:1040E000C4B21948006818B11748016820468847CB
:1040F00010BD10B540F225511A48FEF787FB50B1AC
:104100001848FEF703FBC4B20F48406818B10E48C8
:1041100041682046884710BD10B540F22551084837
:10412000FEF774FB50B10648FEF7F0FAC4B2064839
:10413000806818B1044881682046884710BD000097
:1041400000480040000C0140DC0600208C060020E6
:10415000004C00400010014000500040001401409D
:10416000003801400044004010B540F22551674836
:10417000FEF74CFB50B16548FEF7C8FAC4B264487C
:10418000C06818B16248C1682046884710BD10B5A4
:1041900040F225515F48FEF739FB50B15D48FEF70C
:1041A000B5FAC4B25A48006918B1594801692046A5
:1041B000884710BD10B50446052C7DD2DFE804F019
:1041C000031B354F690054485449886054480860BF
:1041D000544848605448C86054480861544848618D
:1041E000544888615448C8610846544908600968C1
:1041F0000868804772E052494848816251484749FF
:1042000008625149454841625049C16250490163C1
:1042100050494163504981635049C1632030474947
:10422000486049680868804758E04D493B488164C8
:104230004C483A4908644C49384841644B49C16488
:104240004B4901654B4941654B4981654B49C16506
:1042500040303A4988608968086880473EE04849AC
:104260002E48816647482D49086647492B484166D4
:104270004649C166464901674649416746498167E3
:104280004649C16760302D49C860C96808688047E1
:1042900024E043492148C0F8881042481F49C1F82A
:1042A000800041491D48C0F884104049C0F88C1076
:1042B0003F49C0F8901000E00FE03E49C0F894106C
:1042C0003D49C0F898103D49C0F89C1080301B490A
:1042D000086109690868804700E000BF00BF10BDA1
:1042E00010B50446154850F8240010B92046FFF7D1
:1042F00061FF124850F8240010BD70B504460D4609
:10430000E0B2FFF73DFB204670BD0000004C0040CE
:10431000DC06002000500040BD390008F0060020F7
:10432000C3390008573A0008393900084B390008EA
:104330005D3900086F3900089D390008900700209A
:10434000333B0008393B0008D53B0008A73A00087A
:10435000BB3A0008CF3A0008E33A0008133B0008D4
:10436000AD3C0008B33C0008713D0008213C00084A
:10437000353C0008493C00085D3C00088D3C0008C5
:104380004D3E0008533E0008F33E0008C13D0008C2
:10439000D53D0008E93D0008FD3D00082D3E000820
:1043A000D53F0008DB3F000881400008433F00087C
:1043B000573F00086D3F0008833F0008B53F0008E5
:1043C000014601F0030090B96420B1FBF0F200FB5C
:1043D000121050B94FF4C870B1FBF0F200FB12108C
:1043E00008B9012070470020FCE70120FAE700200F
:1043F000F8E72DE9F05F06460F4690469946DDE95D
:104400000AAB002440F2B270864203DB40F6330070
:10441000864202DD0020BDE8F09F40F2B27509E05F
:104420002846FFF7CDFF10B1BE48044401E0BE4866
:1044300004446D1CB542F3D37F1E00250FE0BB483A
:10444000405D40F2A321484304EBC0143046FFF71F
:10445000B7FF18B1012D01D1B54804446D1CBD4210
:10446000EDD3A8F1010040F2A321484304EBC014AE
:10447000C9EB4910C0EB092004EB0014CAEB0A1089
:1044800004EB80045C442046FDF777F8FDF7A8F8BC
:104490002046C0E770B50446FDF766F8054604B14E
:1044A0002560284670BD10B5A248008800F00100C4
:1044B00010B10020FFF7EEFF9E48008800F00200D8
:1044C00028B19C48008820F002009A490880994849
:1044D000008840F6FA7108409649088000BF954868
:1044E000008800F020000028F9D010BD3EB500245F
:1044F00003208DF8080001208DF8090000208DF8B8
:104500000A0001208DF80B0002A8FBF7BAFF042077
:10451000FCF76BF845F25001884242D001214FF080
:10452000C050FCF7AAFF0120FCF7D1FDFCF728F8EA
:104530000120FCF702FF04E0601CC4B20A20FEF771
:104540006AFA4120FCF761FE0028F5D0FA2C01DB65
:1045500001203EBD4FF48070FCF70BFF0120FCF7FB
:104560000EFFFDF746F8FDF73BF801210846FCF782
:10457000DBFFFDF735F847F6FF70FDF70BF8FDF7A9
:104580002FF80020009003460122114601904FF4BD
:10459000FC60FFF72EFF45F250010420FCF719F8EC
:1045A00007E0FDF726F801210846FCF7BDFFFDF7FF
:1045B00017F80020FFF76EFFFCF790FF0020C8E718
:1045C0007CB50446D4E90010CDE90001D4E90232FB
:1045D000D4E90410FFF70DFF7CBD10B5044620465A
:1045E000FCF7CBFFFCF7FCFF204610BD70B504467E
:1045F000FCF7BAFF054604B12560284670BD2DE9D9
:10460000F04706464FF00009002700240025A04689
:10461000A24616B1D6F8009003E00020FFF7E6FFAF
:1046200081464348B9FBF0F42421434801F0CBF91B
:10463000A2454DD0A24640F2B2780EE04046FFF7C8
:10464000BFFE30B1B4F5B77F02D3A4F5B77402E072
:1046500006E0A4F26D1408F10108B4F5B67FEDD8B8
:1046600000BF3548C0F81480C4610720B4FBF0F0E7
:10467000314988610720B4FBF0F100FB114008B913
:10468000012000E000202C49896908442A498861FA
:10469000002515E028494869FFF792FE30B1012D49
:1046A00004D11D2C01D31D3C09E00BE01F48405DE7
:1046B000A04203D81D48405D241A00E002E06D1CB2
:1046C0001C2CE7D200BF1C480561601C1A49C86059
:1046D0001748B9FBF0F100FB11974FF46160B7FB8D
:1046E000F0F0154988604FF46160B7FBF0F100FB12
:1046F00011703C21B0FBF1F00F4948604FF461604C
:10470000B7FBF0F100FB11703C21B0FBF1F201FBB3
:104710001200094908604FF0FF3008620846BDE802
:10472000F08700000085E2018033E1014067000866
:104730008051010004280040A4070020024908809D
:104740007047014800887047380000200146234820
:1047500000786C2806D10020C8B2020242EA112279
:1047600090B270470846FCE701461C4800786C2868
:1047700006D10020C8B2020242EA112290B270476C
:104780000846FCE70146154800786C280ED1002049
:10479000C8B2C1F3072242EA0020C1F3074242EA4D
:1047A00000200A0E60F31F22104670470846FCE7FF
:1047B00001460A4800786C280ED10020C8B2C1F327
:1047C000072242EA0020C1F3074242EA00200A0E13
:1047D00060F31F22104670470846FCE73C000020AB
:1047E00030B502460B4600211AB1724800883228C3
:1047F00002DB4FF0FF3030BD00210AE001EB410049
:104800006D4C54F82000904201D10846F3E7481C53
:1048100001B2684800888142F0DB6648008800EBFE
:104820004000654C44F820200020624C248804EBB2
:104830004404614D05EB840460605E48008800EB31
:1048400040002C4604EB800083605A480088401CDE
:10485000584C20802046008800B2CCE710B50146B5
:10486000002001B910BD002009E000EB4002524BCE
:1048700053F822208A4200D105E0421C10B24D4A72
:1048800012889042F1DB00BF4A4A128890422EDA29
:1048900024E0421C02EB4202474B53F8222000EB7B
:1048A0004003454C44F82320421C02EB42022346BD
:1048B00003EB8202526800EB400304EB83035A606F
:1048C000421C02EB4202234603EB8202926800EB99
:1048D000400304EB83039A60421C10B2354A1288ED
:1048E0009042D6DB334A1288521E324B1A8000BFE8
:1048F000B8E700202F490880704730B502460B46C4
:1049000000210AB9481E30BD00211AE001EB410028
:10491000294C54F82000904211D10020254C2488C5
:1049200004EB4404244D05EB8404606021480088B6
:1049300000EB40002C4604EB8000836005E0481C3F
:1049400001B21C4800888142E0DB00BF0846DAE77C
:1049500010B5002400BF27E004EB4400164901EB2A
:1049600080004068401C04EB4401134A02EB8101C3
:10497000486004EB4400114601EB8000406804EB02
:10498000440102EB8101896888420BD304EB4401A6
:1049900052F821008047002004EB4401064A02EB54
:1049A00081014860601C04B2024800888442D3DB65
:1049B00010BD000040000020C80700206E4800889D
:1049C000704770B504460D46052C04DB0120FFF747
:1049D000B5FE002070BD694850F8240040B1FFF7D3
:1049E000EDFF6880654850F82400C1682846884774
:1049F0000120EFE701B5BDF800005F490880022201
:104A000069465F48FEF78AFA5B48008808BD70B5C2
:104A100004460025207A03280BD1607B217B40EAE5
:104A200001252846FFF792FE05462846FFF7E2FFDC
:104A30000546207A00F0020088B1FFF7BFFF054667
:104A40002846FFF791FE0546281220736573022061
:104A500060810020207220782146FFF7B2FF70BDF0
:104A600010B50446E088212802D022280BD106E0A8
:104A70000020207220782146FFF7A3FF04E02046A3
:104A8000FFF7C5FF00E000BF00BF10BD01464FF6B5
:104A9000FF70814203D038480088814201D1012053
:104AA00070470020FCE710B504466088FFF7EEFF72
:104AB000F0B13448006848B132480068006828B155
:104AC0002078304909680A6801219047A0880128A8
:104AD00002D0032808D103E0204600F069FC04E07E
:104AE0002046FFF7BDFF00E000BF00BF012010BD62
:104AF0000020FCE770B505460C46052C04DB0220BF
:104B0000FFF71CFE002070BD1C4850F8240020B1A7
:104B10001A4951F8241048688047184840F8245032
:104B20000120F0E7184870477047704738B50446D1
:104B300000200090022269461148FEF7E0F9BDF816
:104B400000004FF6FF71884203D0BDF800000A490B
:104B50000880094801880DA000F0A4FF4FF47A7185
:104B60001048FEF77FFD4FF47A710F48FEF77AFD8B
:104B70000448046038BD000048000020200A0020DE
:104B800000F0030844000020340A002044657669E0
:104B9000636520416464726573733A2025640D0A6D
:104BA00000000000294B00082B4B00080146C843B9
:104BB00082B24FF6FF7000EA0232C1F30B001043DD
:104BC00070472DE9F05F054600240027002668881D
:104BD000FFF7CAFD8046A888FFF7C6FD8146E88832
:104BE000FFF7C2FD82464FEA282408F0FF00444048
:104BF00084EA292409F0FF00444084EA2A240AF0C8
:104C0000FF004440287A44406889FFF7CFFF83467D
:104C1000FFF7AAFD074684EA2724F8B2444000BF04
:104C200005E005F10C00805D4440701C86B2688987
:104C3000B042F6DC2046BDE8F09F0146FD48FE4A42
:104C400012888154FC480088401CFB4A1080108860
:104C5000C21700EB92529212A0EB82221432F64B52
:104C60001A8018460088F54A128890420ED1F348FF
:104C70000088401CF14A10801088C21700EB925245
:104C80009212A0EB82221432EC4B1A80704770B55E
:104C90000024EA480088E8490988884200D170BDAC
:104CA000E448E6490988445CE4480088401CE3493C
:104CB00008800888C11700EB91518912A0EB81216F
:104CC0001431DE4A1180DE4800780C2875D2DFE806
:104CD00000F0060E1E263840525A6C757DBE552CCB
:104CE00004D1D7480078401CD5490870E1E0EE2C8B
:104CF00005D1D3480078401CD149087006E0552CF6
:104D000004D00020CE490870CE490880D1E0CE48BA
:104D10000480CB480078401CC9490870C9E0CA48E3
:104D2000007844EA0020C849088008460088FFF758
:104D30000DFDC6494880C2480078401CC049087033
:104D4000B7E0C3480480BE480078401CBC490870E6
:104D5000AFE0BF48007844EA0020BD49088008461B
:104D60000088FFF7F3FCB9498880B5480078401CFB
:104D7000B34908709DE0B7480480B1480078401CF2
:104D8000AF49087095E0B348007844EA0020B14983
:104D9000088008460088FFF7D9FCAC49C880A848BD
:104DA0000078401CA649087083E0A8480472A44813
:104DB0000078401CA24908707BE074E0A64804809B
:104DC0009F480078401C9E49087072E0A248007815
:104DD00044EA0020A049088008460088FFF7B6FC96
:104DE0009A4948814889FFF7E1FE984949898842F4
:104DF0001CD196484089C0F30B009449488108466D
:104E00004089B0F5806F08DD00208D4908708D491C
:104E1000088092A000F046FE18E089480078401C07
:104E2000874908700020874908800FE000208449E6
:104E300008708449088085494889FFF7B7FE054610
:104E4000824841892A4695A000F02CFE31E07F4837
:104E500040897C490988884209DD7A4801880088B0
:104E6000401C784A108079480C3044541AE00020E5
:104E700073490870734908807448FFF7A2FEA04286
:104E800007D19348006868B170489149096888471C
:104E900008E06E48FFF795FE05462A4621468DA09C
:104EA00000F000FE05E000206549087065490880B3
:104EB00000BF00BF00BFF2E68549086070472DE9DA
:104EC000F843044600200090002600270025804675
:104ED0008C48006810B90020BDE8F8835520009088
:104EE000884800680121C26968469047EE2000901A
:104EF000844800680121C269684690476088FFF7CE
:104F000033FC0646301200907E4800680121C269D9
:104F100068469047F0B200907A4800680121C26963
:104F200068469047A088FFF71FFC0746381200909C
:104F3000744800680121C26968469047F8B2009041
:104F4000704800680121C26968469047E088FFF711
:104F50000BFC80464FEA282000906A480068012137
:104F6000C2696846904708F0FF00009065480068F5
:104F70000121C26968469047207A00906148006824
:104F80000121C269684690476089FFF70FFE054618
:104F90002846FFF7E9FB05462812009059480068AB
:104FA0000121C26968469047E8B200905548006800
:104FB0000121C26968469047618952480068C26908
:104FC00004F10C0090472046FFF7FBFD00904D4890
:104FD00000680121C2696846904701207CE730B52E
:104FE00001460023002209B9002030BD4648008850
:104FF000464C2488A04201D10020F6E742480088B0
:10500000401C414C2080204600880A2490FBF4F587
:1050100004FB15003C4C208020460078082404EB5B
:10502000802082B21046541CA2B2394C205C4880C9
:1050300010466FE0680E002056000020540000204B
:105040005C0000205E00002060000020843A002008
:10505000620000206400002066000020636F6D6D18
:105060003A3A476574436865636B4C656E6768746C
:10507000204572726F723A206D7367206C656E679F
:105080007468206D757374206265206C657373207D
:105090007468616E20313032340D0A00636F6D6DBB
:1050A0003A3A476574436865636B4C656E6768742C
:1050B000204572726F723A2052585B253032785D0B
:1050C0002C2043485B253032785D0D0A000000003B
:1050D00050000020636F6D6D3A3A47657443686510
:1050E000636B56616C7565204572726F723A20521F
:1050F000585B253032785D2C2043485B2530327870
:105100005D0D0A004C000020580000205A000020CD
:105110007C120020541CA2B2964C205C8C7840EA91
:10512000042048801046541CA2B2924C205C888017
:105130001046541CA2B28F4C205C0C7940EA04202B
:1051400088801046541CA2B28A4C205CC88010464D
:10515000541CA2B2874C205C8C7940EA0420C880A1
:105160001046541CA2B2834C205C08721046541C9A
:10517000A2B2804C205C48811046541CA2B27D4CE7
:10518000205C8C7A40EA04204881002309E0104624
:10519000541CA2B2774C245C01F10C00C454581C7E
:1051A00083B248899842F2DC01201EE730B50146FF
:1051B0000023002209B9002030BD6F480078082480
:1051C00004EB802082B2488805121046541CA2B21B
:1051D000684C25548D781046541CA2B2654C255459
:1051E000888805121046541CA2B2624C25540D79D1
:1051F0001046541CA2B25F4C2554C88805121046B4
:10520000541CA2B25B4C25548D791046541CA2B29A
:10521000584C25540D7A1046541CA2B2554C2554B6
:10522000488905121046541CA2B2524C25548D7A5E
:105230001046541CA2B24F4C2554002309E001F142
:105240000C00C55C1046541CA2B24A4C2554581C94
:1052500083B248899842F2DC47480088401C464C9B
:105260002080204600880A2490FBF4F504FB1500FA
:10527000414C208020460088404C2488A0420DD11B
:105280003E480088401C3D4C2080204600880A246F
:1052900090FBF4F504FB1500384C208001208BE7CF
:1052A00010B504462046FFF781FF10BD10B5344805
:1052B000FFF795FE10B13248FFF701FE10BD10B5A3
:1052C000044604B910BD2F48006818B12D4909687B
:1052D000486880472B480460006881682A488847EE
:1052E00001212A48FFF77CFA01212948FFF778FAC3
:1052F00000BFE7E710B50020264908602148006894
:1053000018B1204909684868804700201D49086095
:105310001E48FFF7A3FA1E48FFF7A0FA10BD1E486B
:105320001E4908601E4848601E4888601E48C860C4
:105330001E480861084617490860704710B50446C2
:105340001448006808B9FFF7EAFF124850F8240033
:1053500010BD70B505460C460E4850F8240020B12B
:105360000C4951F82410486880470A4840F82450F6
:10537000012070BD7C1200205A000020580000203F
:10538000903E00204C0000203B4C00088F4C000851
:10539000AD520008540E0020BF520008400E0020FD
:1053A000F5520008B94E0008BF4E0008A15200088F
:1053B00010B504462C48006800B910BD6088FFF79E
:1053C00065FB00B9F9E7A088012800D0F5E7E0887F
:1053D000072841D2DFE800F040040E182C362200E6
:1053E00021480068006820B11F4800680168204615
:1053F000884732E01C480068406820B11A480068BD
:1054000041682046884728E017480068806820B136
:10541000154800688168204688471EE012480068E9
:10542000406920B11048006841692046884714E06F
:105430000D480068C06820B10B480068C16820466C
:1054400088470AE008480068006920B106480068FB
:1054500001692046884700E000BF00BF00BFACE7FD
:1054600001490860704700006800002000BF00BFCD
:1054700000BF70472DE9F0410446207A022818D178
:1054800000270026F8A712266681002504E0795D32
:1054900004F10C0041556D1CB542F8D3002104F114
:1054A0000C0041550020207220782146FFF789FA30
:1054B00000BFBDE8F0812DE9F0410446207A0228C2
:1054C00018D100270026E8A712266681002504E0EF
:1054D000795D04F10C0041556D1CB542F8D30021F3
:1054E00004F10C0041550020207220782146FFF77E
:1054F00068FA00BFBDE8F08110B50446207A0228A2
:105500000AD104F10C00FDF715FA60810020207229
:1055100020782146FFF755FA10BD10B50446E08803
:10552000112808D0122802D013280CD107E02046F9
:10553000FFF7A0FF08E02046FFF7BDFF04E020468C
:10554000FFF7DAFF00E000BF00BF10BD10B5044652
:10555000A088022805D0032807D12046FFF786FF40
:1055600004E02046FFF7D9FF00E000BF00BF10BDF8
:1055700010B5C248FFF772F9C148FDF7B9FD10BD7B
:1055800010B50446E088012800D010BD60890228CB
:1055900000D0FAE7B948FFF761F90120B94908805E
:1055A0004FF6FF70B8490880207BB8490880607BBF
:1055B000097840EA0120B549088008460088FFF7CD
:1055C000C5F8B24908800020FDF76CFD207A02285A
:1055D00002D0207A032805D10020207220782146AD
:1055E000FFF7EFF900BFD0E72DE9F0410446E0886E
:1055F000022801D0BDE8F0816089082800D0F9E7D1
:105600000220A0490880207BA1490880607B09789E
:1056100040EA01209E49088008460088FFF796F876
:105620009B490880A07B9B490860E07B096840EAB1
:10563000012098490860207C096840EA01209549CA
:105640000860607C096840EA0120924908600846C9
:105650000068FFF797F88F490860A07C8E490880A2
:10566000E07C097840EA01208B49088008460088E0
:10567000FFF76CF888490880FDF797FB85480168BB
:105680007F48FDF7DDFB00208449086084490880DD
:1056900084490860207A022802D0207A032827D182
:1056A000002600250027002020720820608178480D
:1056B0000088FFF759F80646301220736673754864
:1056C0000068FFF775F80546290EA173290CE173F0
:1056D000290A2174657470480088FFF745F8074669
:1056E0003912A174E77420782146FFF76AF900BFE8
:1056F00000BF7FE72DE9F041044600260025002782
:10570000E088032801D0BDE8F0816089042800DA30
:10571000F9E703205B490880257B607B40EA05258B
:10572000A07B40EA0525E07B40EA05252846FFF7F7
:1057300029F85C4908606089061F0968504A881882
:10574000324604F11001FDF73DFC28B10127534812
:105750000068304451490860207A022802D0207A3B
:10576000032814D1002020724E480068FFF720F86B
:105770000546280E2073290C6173290AA173E5736D
:1057800027740520608120782146FFF71AF900BFB1
:10579000B9E72DE9F0410446404806680025042099
:1057A0003849088000BF15E005F58070B04200DD83
:1057B00012E033496818CA143B49FDF719FC4FF44D
:1057C0008072394936480088FDF786F934490880E7
:1057D00005F58075B542E7DB00BF721B28496818E4
:1057E0003149FDF705FC701B82B22F492C48008817
:1057F000FDF772F92A4908800020234908802848CB
:10580000008825490988884202D003201E49088063
:10581000224800681F490968884202D004201A49BA
:105820000880207A022802D0207A032819D1002784
:105830000020207214480088FEF796FF07463812B1
:105840002073677316480088FEF78EFF07463912EB
:10585000A173E7730420608120782146FFF7B1F837
:1058600000BFBDE8F0810000426F6F744C6F61644F
:1058700065722056312E302E300000007155000820
:1058800000D0000876000020780000206C00002086
:105890006E000020700000207400002084000020B2
:1058A000800000207C0000209C42002070B504464F
:1058B00005203A490880207A022802D0207A03285D
:1058C00010D137480088FEF74FFF054600202072B0
:1058D0002812207365730220608120782146FFF72B
:1058E00070F800BF70BD70B50446002600256089C1
:1058F000012803D029480088052800D1267B2848A4
:10590000008808B9012000E0002005462846FDF780
:10591000C9FB207A032802D0207A022808D100206F
:10592000207225730120608120782146FFF749F815
:1059300000201A49088016B11A48FDF7D9FB70BD3E
:105940007047704710B50446002020702046FFF7CE
:10595000AAF810B12046FFF7F9FD10BD70B500247C
:105960000020FFF7EBFC04460020FEF7B9FC0546DB
:10597000216888470C48A168884700212046FFF726
:10598000B9F80A48FFF7D2F80948FFF769FD4FF464
:1059900080210848FEF724FF70BD0000760000203B
:1059A0007800002000D0000845590008A000002021
:1059B0008800002071550008D2B201E000F8012BE8
:1059C000491EFBD270470022F6E710B513460A467F
:1059D00004461946FFF7F0FF204610BD2DE9F05FA1
:1059E0000546002092469B4688460646814640244E
:1059F0001BE0284641464746224600F042F85346FF
:105A00005A46C01A914110D311461846224600F05A
:105A100029F82D1A67EB01084F4622460120002184
:105A200000F020F817EB00094E41201EA4F10104FC
:105A3000DFDC484631462A464346BDE8F09F000079
:105A4000064C074D06E0E06840F0010394E80700CB
:105A500098471034AC42F6D3FAF76EFB4C67000857
:105A60006C670008202A04DB203A00FA02F10020CB
:105A700070479140C2F1200320FA03F3194390408C
:105A80007047202A04DB203A21FA02F000217047F7
:105A900021FA02F3D040C2F1200291400843194696
:105AA000704700000FB4054B10B503A9044A0298D3
:105AB00000F018F810BC5DF814FB0000FB42000871
:105AC000A800002002E008C8121F08C1002AFAD16D
:105AD00070477047002001E001C1121F002AFBD16E
